{
  "_format": "hh-sol-artifact-1",
  "contractName": "ChallengeTreasureBox",
  "sourceName": "contracts/ChallengeTreasureBox.sol",
  "abi": [
    {
      "inputs": [],
      "stateMutability": "nonpayable",
      "type": "constructor"
    },
    {
      "inputs": [
        {
          "internalType": "uint256",
          "name": "challengeId",
          "type": "uint256"
        }
      ],
      "name": "AlreadySolved",
      "type": "error"
    },
    {
      "inputs": [
        {
          "internalType": "uint256",
          "name": "challengeId",
          "type": "uint256"
        }
      ],
      "name": "ChallengeNotActive",
      "type": "error"
    },
    {
      "inputs": [
        {
          "internalType": "uint256",
          "name": "remainingTime",
          "type": "uint256"
        }
      ],
      "name": "CooldownActive",
      "type": "error"
    },
    {
      "inputs": [],
      "name": "InvalidChallengeId",
      "type": "error"
    },
    {
      "inputs": [
        {
          "internalType": "uint256",
          "name": "challengeId",
          "type": "uint256"
        }
      ],
      "name": "MaxAttemptsReached",
      "type": "error"
    },
    {
      "anonymous": false,
      "inputs": [
        {
          "indexed": true,
          "internalType": "address",
          "name": "player",
          "type": "address"
        },
        {
          "indexed": true,
          "internalType": "uint256",
          "name": "challengeId",
          "type": "uint256"
        },
        {
          "indexed": false,
          "internalType": "uint32",
          "name": "guess",
          "type": "uint32"
        }
      ],
      "name": "ChallengeAttempted",
      "type": "event"
    },
    {
      "anonymous": false,
      "inputs": [
        {
          "indexed": true,
          "internalType": "uint256",
          "name": "challengeId",
          "type": "uint256"
        },
        {
          "indexed": false,
          "internalType": "uint32",
          "name": "minRange",
          "type": "uint32"
        },
        {
          "indexed": false,
          "internalType": "uint32",
          "name": "maxRange",
          "type": "uint32"
        },
        {
          "indexed": false,
          "internalType": "uint64",
          "name": "reward",
          "type": "uint64"
        }
      ],
      "name": "ChallengeCreated",
      "type": "event"
    },
    {
      "anonymous": false,
      "inputs": [
        {
          "indexed": true,
          "internalType": "address",
          "name": "player",
          "type": "address"
        },
        {
          "indexed": true,
          "internalType": "uint256",
          "name": "challengeId",
          "type": "uint256"
        },
        {
          "indexed": false,
          "internalType": "uint64",
          "name": "reward",
          "type": "uint64"
        }
      ],
      "name": "TreasureUnlocked",
      "type": "event"
    },
    {
      "inputs": [],
      "name": "COOLDOWN_TIME",
      "outputs": [
        {
          "internalType": "uint256",
          "name": "",
          "type": "uint256"
        }
      ],
      "stateMutability": "view",
      "type": "function"
    },
    {
      "inputs": [],
      "name": "MAX_ATTEMPTS_PER_CHALLENGE",
      "outputs": [
        {
          "internalType": "uint256",
          "name": "",
          "type": "uint256"
        }
      ],
      "stateMutability": "view",
      "type": "function"
    },
    {
      "inputs": [
        {
          "internalType": "uint256",
          "name": "challengeId",
          "type": "uint256"
        },
        {
          "internalType": "uint32",
          "name": "guess",
          "type": "uint32"
        }
      ],
      "name": "attemptChallenge",
      "outputs": [
        {
          "internalType": "bool",
          "name": "isCorrect",
          "type": "bool"
        }
      ],
      "stateMutability": "nonpayable",
      "type": "function"
    },
    {
      "inputs": [
        {
          "internalType": "address",
          "name": "",
          "type": "address"
        },
        {
          "internalType": "uint256",
          "name": "",
          "type": "uint256"
        }
      ],
      "name": "attemptCounts",
      "outputs": [
        {
          "internalType": "uint256",
          "name": "",
          "type": "uint256"
        }
      ],
      "stateMutability": "view",
      "type": "function"
    },
    {
      "inputs": [
        {
          "internalType": "address",
          "name": "player",
          "type": "address"
        }
      ],
      "name": "canAttempt",
      "outputs": [
        {
          "internalType": "bool",
          "name": "",
          "type": "bool"
        },
        {
          "internalType": "uint256",
          "name": "cooldownRemaining",
          "type": "uint256"
        }
      ],
      "stateMutability": "view",
      "type": "function"
    },
    {
      "inputs": [],
      "name": "challengeCount",
      "outputs": [
        {
          "internalType": "uint256",
          "name": "",
          "type": "uint256"
        }
      ],
      "stateMutability": "view",
      "type": "function"
    },
    {
      "inputs": [
        {
          "internalType": "uint256",
          "name": "",
          "type": "uint256"
        }
      ],
      "name": "challenges",
      "outputs": [
        {
          "internalType": "euint32",
          "name": "encryptedTarget",
          "type": "bytes32"
        },
        {
          "internalType": "uint32",
          "name": "minRange",
          "type": "uint32"
        },
        {
          "internalType": "uint32",
          "name": "maxRange",
          "type": "uint32"
        },
        {
          "internalType": "uint64",
          "name": "reward",
          "type": "uint64"
        },
        {
          "internalType": "bool",
          "name": "isActive",
          "type": "bool"
        },
        {
          "internalType": "uint256",
          "name": "createdAt",
          "type": "uint256"
        }
      ],
      "stateMutability": "view",
      "type": "function"
    },
    {
      "inputs": [
        {
          "internalType": "uint32",
          "name": "targetValue",
          "type": "uint32"
        },
        {
          "internalType": "uint32",
          "name": "minRange",
          "type": "uint32"
        },
        {
          "internalType": "uint32",
          "name": "maxRange",
          "type": "uint32"
        },
        {
          "internalType": "uint64",
          "name": "reward",
          "type": "uint64"
        }
      ],
      "name": "createChallenge",
      "outputs": [
        {
          "internalType": "uint256",
          "name": "",
          "type": "uint256"
        }
      ],
      "stateMutability": "nonpayable",
      "type": "function"
    },
    {
      "inputs": [],
      "name": "getActiveChallengesCount",
      "outputs": [
        {
          "internalType": "uint256",
          "name": "count",
          "type": "uint256"
        }
      ],
      "stateMutability": "view",
      "type": "function"
    },
    {
      "inputs": [
        {
          "internalType": "uint256",
          "name": "challengeId",
          "type": "uint256"
        }
      ],
      "name": "getChallengeInfo",
      "outputs": [
        {
          "internalType": "uint32",
          "name": "minRange",
          "type": "uint32"
        },
        {
          "internalType": "uint32",
          "name": "maxRange",
          "type": "uint32"
        },
        {
          "internalType": "uint64",
          "name": "reward",
          "type": "uint64"
        },
        {
          "internalType": "bool",
          "name": "isActive",
          "type": "bool"
        },
        {
          "internalType": "uint256",
          "name": "playerAttempts",
          "type": "uint256"
        },
        {
          "internalType": "bool",
          "name": "solved",
          "type": "bool"
        }
      ],
      "stateMutability": "view",
      "type": "function"
    },
    {
      "inputs": [
        {
          "internalType": "address",
          "name": "player",
          "type": "address"
        }
      ],
      "name": "getPlayerStats",
      "outputs": [
        {
          "internalType": "uint256",
          "name": "solved",
          "type": "uint256"
        },
        {
          "internalType": "uint64",
          "name": "totalRewards",
          "type": "uint64"
        },
        {
          "internalType": "uint256",
          "name": "lastAttempt",
          "type": "uint256"
        },
        {
          "internalType": "uint256",
          "name": "cooldownRemaining",
          "type": "uint256"
        }
      ],
      "stateMutability": "view",
      "type": "function"
    },
    {
      "inputs": [
        {
          "internalType": "uint256",
          "name": "challengeId",
          "type": "uint256"
        },
        {
          "internalType": "address",
          "name": "player",
          "type": "address"
        }
      ],
      "name": "getRemainingAttempts",
      "outputs": [
        {
          "internalType": "uint256",
          "name": "",
          "type": "uint256"
        }
      ],
      "stateMutability": "view",
      "type": "function"
    },
    {
      "inputs": [
        {
          "internalType": "address",
          "name": "",
          "type": "address"
        },
        {
          "internalType": "uint256",
          "name": "",
          "type": "uint256"
        }
      ],
      "name": "hasSolvedChallenge",
      "outputs": [
        {
          "internalType": "bool",
          "name": "",
          "type": "bool"
        }
      ],
      "stateMutability": "view",
      "type": "function"
    },
    {
      "inputs": [
        {
          "internalType": "address",
          "name": "",
          "type": "address"
        }
      ],
      "name": "playerProgress",
      "outputs": [
        {
          "internalType": "uint256",
          "name": "challengesSolved",
          "type": "uint256"
        },
        {
          "internalType": "uint64",
          "name": "totalRewards",
          "type": "uint64"
        },
        {
          "internalType": "uint256",
          "name": "lastAttemptTime",
          "type": "uint256"
        },
        {
          "internalType": "bool",
          "name": "hasActiveCooldown",
          "type": "bool"
        }
      ],
      "stateMutability": "view",
      "type": "function"
    },
    {
      "inputs": [],
      "name": "protocolId",
      "outputs": [
        {
          "internalType": "uint256",
          "name": "",
          "type": "uint256"
        }
      ],
      "stateMutability": "pure",
      "type": "function"
    }
  ],
  "bytecode": "0x608060405234801562000010575f80fd5b5062000169620000b1604080516080810182525f808252602082018190529181018290526060810191909152506040805160808101825273687820221192c5b662b25367f70076a37bc79b6c815273848b0066793bcc60346da1f49049357399b8d595602082015273a02cda4ca3a71d7c46997716f4283aa851c2881291810191909152731364cbbf2cdf5032c47d8226a6f6fbd2afcdacac606082015290565b80515f805160206200146683398151915280546001600160a01b03199081166001600160a01b039384161790915560208301515f80516020620014468339815191528054831691841691909117905560408301517f9e7b61f58c47dc699ac88507c4f5bb9f121c03808c5676a8078fe583e46497028054831691841691909117905560608301517f9e7b61f58c47dc699ac88507c4f5bb9f121c03808c5676a8078fe583e46497038054909216921691909117905550565b6200017362000179565b620004c5565b6200018b60076001600a6064620001b2565b6200019d60216001603260fa620001b2565b620001b0604d600160646101f4620001b2565b565b600180545f9182620001c48362000457565b9091555090505f620001d68662000315565b9050620001e3816200032f565b506040805160c08101825282815263ffffffff80881660208084019182528883168486019081526001600160401b03808a16606087019081526001608088018181524260a08a019081525f8d815296879052958a902098518955955190880180549451925196511515600160801b0260ff60801b1997909416680100000000000000000296909616600160401b600160881b0319928816640100000000026001600160401b03199095169190971617929092179190911693909317929092179055516002909101555182907f49f8cdd2c5e7e5954525528510230e4f3d017d4b023fc111cca02d1341c19ae690620003059088908890889063ffffffff93841681529190921660208201526001600160401b0391909116604082015260600190565b60405180910390a2505050505050565b5f6200032963ffffffff8316600462000340565b92915050565b5f6200033c8230620003de565b5090565b5f805160206200144683398151915254604051639cd07acb60e01b81525f915f8051602062001466833981519152916001600160a01b0390911690639cd07acb906200039390879087906004016200047c565b6020604051808303815f875af1158015620003b0573d5f803e3d5ffd5b505050506040513d601f19601f82011682018060405250810190620003d69190620004ad565b949350505050565b5f5f80516020620014668339815191528054604051635ca4b5b160e11b8152600481018690526001600160a01b03858116602483015292935091169063b9496b62906044015f604051808303815f87803b1580156200043b575f80fd5b505af11580156200044e573d5f803e3d5ffd5b50505050505050565b5f600182016200047557634e487b7160e01b5f52601160045260245ffd5b5060010190565b8281526040810160548310620004a057634e487b7160e01b5f52602160045260245ffd5b8260208301529392505050565b5f60208284031215620004be575f80fd5b5051919050565b610f7380620004d35f395ff3fe608060405234801561000f575f80fd5b50600436106100f0575f3560e01c806385a9943311610093578063da1f12ab11610063578063da1f12ab14610301578063df8f1c0e14610309578063ec7eba051461031c578063f4f759c714610388575f80fd5b806385a99433146101f65780638f1d377614610250578063962fb220146102f0578063a2f05725146102f8575f80fd5b80634fd66eae116100ce5780634fd66eae14610176578063703c054b146101b15780637d263245146101db5780637dfd6a0d146101e3575f80fd5b80631e477f2d146100f45780633ffd8c9b14610123578063421f81e614610160575b5f80fd5b610107610102366004610d7c565b61039b565b6040805192151583526020830191909152015b60405180910390f35b610150610131366004610d95565b600460209081525f928352604080842090915290825290205460ff1681565b604051901515815260200161011a565b610168600581565b60405190815260200161011a565b610189610184366004610d7c565b61040c565b604080519485526001600160401b03909316602085015291830152606082015260800161011a565b6101686101bf366004610d95565b600360209081525f928352604080842090915290825290205481565b610168601e81565b6101686101f1366004610dd0565b61048a565b610209610204366004610e2e565b6106a6565b6040805163ffffffff97881681529690951660208701526001600160401b0390931693850193909352151560608401526080830191909152151560a082015260c00161011a565b6102af61025e366004610e2e565b5f60208190529081526040902080546001820154600290920154909163ffffffff80821692640100000000830490911691600160401b81046001600160401b031691600160801b90910460ff169086565b6040805196875263ffffffff958616602088015293909416928501929092526001600160401b031660608401521515608083015260a082015260c00161011a565b610168610748565b61016860015481565b612711610168565b610150610317366004610e45565b61078f565b61035e61032a366004610d7c565b600260208190525f9182526040909120805460018201549282015460039092015490926001600160401b0316919060ff1684565b604080519485526001600160401b039093166020850152918301521515606082015260800161011a565b610168610396366004610e6f565b610ac2565b6001600160a01b0381165f908152600260205260408120600381015482919060ff166103cd57506001935f9350915050565b5f8160020154426103de9190610ea4565b9050601e81106103f557506001945f945092505050565b5f61040182601e610ea4565b935093505050915091565b6001600160a01b0381165f908152600260205260408120600381015482918291829190829060ff1615610465575f82600201544261044a9190610ea4565b9050601e8110156104635761046081601e610ea4565b91505b505b8154600183015460029093015490986001600160401b03909316975095509350915050565b5f8263ffffffff168463ffffffff16106104db5760405162461bcd60e51b815260206004820152600d60248201526c496e76616c69642072616e676560981b60448201526064015b60405180910390fd5b8363ffffffff168563ffffffff161015801561050357508263ffffffff168563ffffffff1611155b6105455760405162461bcd60e51b8152602060048201526013602482015272546172676574206f7574206f662072616e676560681b60448201526064016104d2565b600180545f918261055583610eb7565b9190505590505f61056587610b09565b905061057081610b1b565b506040805160c08101825282815263ffffffff80891660208084019182528983168486019081526001600160401b03808b16606087019081526001608088018181524260a08a019081525f8d815296879052958a902098518955955190880180549451925196511515600160801b0260ff60801b1997909416600160401b029690961670ffffffffffffffffff0000000000000000199288166401000000000267ffffffffffffffff199095169190971617929092179190911693909317929092179055516002909101555182907f49f8cdd2c5e7e5954525528510230e4f3d017d4b023fc111cca02d1341c19ae6906106949089908990899063ffffffff93841681529190921660208201526001600160401b0391909116604082015260600190565b60405180910390a25095945050505050565b5f805f805f8060015487106106ce576040516331a397b960e01b815260040160405180910390fd5b5050505f848152602081815260408083206001015433808552600384528285208986528452828520549085526004845282852089865290935292205463ffffffff808416965064010000000084041694506001600160401b03600160401b840416935060ff600160801b9093048316921691939550919395565b5f805b60015481101561078b575f81815260208190526040902060010154600160801b900460ff1615610783578161077f81610eb7565b9250505b60010161074b565b5090565b5f60015483106107b2576040516331a397b960e01b815260040160405180910390fd5b5f8381526020819052604090206001810154600160801b900460ff166107ee576040516352211fc360e11b8152600481018590526024016104d2565b335f90815260046020908152604080832087845290915290205460ff161561082c57604051632905f90960e21b8152600481018590526024016104d2565b335f908152600260205260409020600381015460ff161561088c575f8160020154426108589190610ea4565b9050601e81101561088a5761086e81601e610ea4565b60405163c1ab61a160e01b81526004016104d291815260200190565b505b335f908152600360209081526040808320888452909152902054600581106108ca57604051630278da3b60e41b8152600481018790526024016104d2565b600183015463ffffffff908116908616108015906108fe5750600183015463ffffffff640100000000909104811690861611155b61093f5760405162461bcd60e51b81526020600482015260126024820152714775657373206f7574206f662072616e676560701b60448201526064016104d2565b5f61094986610b09565b905061095481610b1b565b505f61096382865f0154610b26565b9050801515335f9081526003602090815260408083208c8452909152812080549298509061099083610eb7565b909155505042600285015560038401805460ff1916600117905560405163ffffffff88168152889033907f607f666ca755127fd0c2923fa40bb1c8964ceda18438b0cb63ba08b3b2ed5c6f9060200160405180910390a38515610ab6578354845f6109fa83610eb7565b909155505060018086015490850180546001600160401b03600160401b9093048316925f91610a2b91859116610ecf565b82546101009290920a6001600160401b03818102199093169183160217909155335f8181526004602090815260408083208e8452825291829020805460ff191660019081179091558a01549151600160401b90920490931681528b935090917f6c9c61b14224ccaf917717a764a2298feb33fd104cf4b1f42ea1c72fadfe70fb910160405180910390a35b50505050505b92915050565b6001600160a01b0381165f90815260036020908152604080832085845290915281205460058110610af6575f915050610abc565b610b01816005610ea4565b949350505050565b5f610abc8263ffffffff166004610b5b565b5f61078b8230610c10565b5f82610b3857610b355f610b09565b92505b81610b4957610b465f610b09565b91505b610b5483835f610c99565b9392505050565b7f9e7b61f58c47dc699ac88507c4f5bb9f121c03808c5676a8078fe583e464970154604051639cd07acb60e01b81525f917f9e7b61f58c47dc699ac88507c4f5bb9f121c03808c5676a8078fe583e4649700916001600160a01b0390911690639cd07acb90610bd09087908790600401610ef6565b6020604051808303815f875af1158015610bec573d5f803e3d5ffd5b505050506040513d601f19601f82011682018060405250810190610b019190610f26565b5f7f9e7b61f58c47dc699ac88507c4f5bb9f121c03808c5676a8078fe583e46497008054604051635ca4b5b160e11b8152600481018690526001600160a01b03858116602483015292935091169063b9496b62906044015f604051808303815f87803b158015610c7e575f80fd5b505af1158015610c90573d5f803e3d5ffd5b50505050505050565b5f808215610cac5750600160f81b610caf565b505f5b5f7f9e7b61f58c47dc699ac88507c4f5bb9f121c03808c5676a8078fe583e4649700600181015460405163f77f3f1d60e01b815260048101899052602481018890526001600160f81b0319851660448201529192506001600160a01b03169063f77f3f1d906064016020604051808303815f875af1158015610d33573d5f803e3d5ffd5b505050506040513d601f19601f82011682018060405250810190610d579190610f26565b9695505050505050565b80356001600160a01b0381168114610d77575f80fd5b919050565b5f60208284031215610d8c575f80fd5b610b5482610d61565b5f8060408385031215610da6575f80fd5b610daf83610d61565b946020939093013593505050565b803563ffffffff81168114610d77575f80fd5b5f805f8060808587031215610de3575f80fd5b610dec85610dbd565b9350610dfa60208601610dbd565b9250610e0860408601610dbd565b915060608501356001600160401b0381168114610e23575f80fd5b939692955090935050565b5f60208284031215610e3e575f80fd5b5035919050565b5f8060408385031215610e56575f80fd5b82359150610e6660208401610dbd565b90509250929050565b5f8060408385031215610e80575f80fd5b82359150610e6660208401610d61565b634e487b7160e01b5f52601160045260245ffd5b81810381811115610abc57610abc610e90565b5f60018201610ec857610ec8610e90565b5060010190565b6001600160401b03818116838216019080821115610eef57610eef610e90565b5092915050565b8281526040810160548310610f1957634e487b7160e01b5f52602160045260245ffd5b8260208301529392505050565b5f60208284031215610f36575f80fd5b505191905056fea26469706673582212203b1f841b0c03a4723df28f8615e1dca83ba1a712837689813fc2ceb39f8efe5364736f6c634300081800339e7b61f58c47dc699ac88507c4f5bb9f121c03808c5676a8078fe583e46497019e7b61f58c47dc699ac88507c4f5bb9f121c03808c5676a8078fe583e4649700",
  "linkReferences": {},
  "deployedLinkReferences": {}
}