{"contracts/SimpleTreasureBoxV2.sol":{"SimpleTreasureBoxV2":{"abi":[{"inputs":[{"internalType":"uint256","name":"remainingTime","type":"uint256"}],"name":"CooldownActive","type":"error"},{"anonymous":false,"inputs":[{"indexed":true,"internalType":"address","name":"player","type":"address"},{"indexed":false,"internalType":"uint256","name":"openId","type":"uint256"}],"name":"BoxOpened","type":"event"},{"anonymous":false,"inputs":[{"indexed":true,"internalType":"address","name":"player","type":"address"},{"indexed":false,"internalType":"uint64","name":"reward","type":"uint64"},{"indexed":false,"internalType":"uint256","name":"openId","type":"uint256"}],"name":"RewardRevealed","type":"event"},{"inputs":[],"name":"COOLDOWN_TIME","outputs":[{"internalType":"uint256","name":"","type":"uint256"}],"stateMutability":"view","type":"function"},{"inputs":[],"name":"MAX_REWARD","outputs":[{"internalType":"uint32","name":"","type":"uint32"}],"stateMutability":"view","type":"function"},{"inputs":[],"name":"MIN_REWARD","outputs":[{"internalType":"uint32","name":"","type":"uint32"}],"stateMutability":"view","type":"function"},{"inputs":[{"internalType":"uint256","name":"","type":"uint256"}],"name":"allPlayers","outputs":[{"internalType":"address","name":"","type":"address"}],"stateMutability":"view","type":"function"},{"inputs":[{"internalType":"address","name":"player","type":"address"}],"name":"canOpenBox","outputs":[{"internalType":"bool","name":"","type":"bool"},{"internalType":"uint256","name":"cooldownRemaining","type":"uint256"}],"stateMutability":"view","type":"function"},{"inputs":[],"name":"getGlobalStats","outputs":[{"internalType":"uint256","name":"totalPlayers","type":"uint256"},{"internalType":"uint256","name":"totalBoxes","type":"uint256"},{"internalType":"uint64","name":"totalRewards","type":"uint64"}],"stateMutability":"view","type":"function"},{"inputs":[{"internalType":"address","name":"player","type":"address"}],"name":"getPlayerStats","outputs":[{"internalType":"uint256","name":"boxesOpened","type":"uint256"},{"internalType":"uint64","name":"totalRewards","type":"uint64"},{"internalType":"uint64","name":"lastReward","type":"uint64"},{"internalType":"uint256","name":"lastOpenTime","type":"uint256"},{"internalType":"uint256","name":"cooldownRemaining","type":"uint256"}],"stateMutability":"view","type":"function"},{"inputs":[{"internalType":"uint256","name":"count","type":"uint256"}],"name":"getTopPlayers","outputs":[{"internalType":"address[]","name":"topAddresses","type":"address[]"},{"internalType":"uint64[]","name":"topRewards","type":"uint64[]"}],"stateMutability":"view","type":"function"},{"inputs":[],"name":"openBox","outputs":[{"internalType":"uint256","name":"","type":"uint256"}],"stateMutability":"nonpayable","type":"function"},{"inputs":[{"internalType":"address","name":"","type":"address"}],"name":"players","outputs":[{"internalType":"uint256","name":"totalBoxesOpened","type":"uint256"},{"internalType":"uint64","name":"totalRewards","type":"uint64"},{"internalType":"uint64","name":"lastReward","type":"uint64"},{"internalType":"uint256","name":"lastOpenTime","type":"uint256"},{"internalType":"bool","name":"isInitialized","type":"bool"}],"stateMutability":"view","type":"function"},{"inputs":[],"name":"totalBoxesOpened","outputs":[{"internalType":"uint256","name":"","type":"uint256"}],"stateMutability":"view","type":"function"},{"inputs":[],"name":"totalRewardsDistributed","outputs":[{"internalType":"uint64","name":"","type":"uint64"}],"stateMutability":"view","type":"function"}],"evm":{"bytecode":{"linkReferences":{},"object":"608060405234801561000f575f80fd5b50610d2b8061001d5f395ff3fe608060405234801561000f575f80fd5b50600436106100b1575f3560e01c80636b4169c31161006e5780636b4169c3146101925780637d263245146101bf578063ba3c0067146101c7578063c2e952c7146101e8578063e2eb41ff146101f0578063ee17254614610271575f80fd5b80630544ce5e146100b55780630e1505e0146100e557806348ea0c03146101025780634fd66eae1461010a5780634ffa7d9f1461015157806352f070d114610168575b5f80fd5b6100c86100c3366004610b26565b61029c565b6040516001600160a01b0390911681526020015b60405180910390f35b6100ed606481565b60405163ffffffff90911681526020016100dc565b6100ed600181565b61011d610118366004610b3d565b6102c4565b604080519586526001600160401b03948516602087015292909316918401919091526060830152608082015260a0016100dc565b61015a60025481565b6040519081526020016100dc565b61017b610176366004610b3d565b61034d565b6040805192151583526020830191909152016100dc565b6001546002546003546040805193845260208401929092526001600160401b0316908201526060016100dc565b61015a603c81565b6101da6101d5366004610b26565b6103bd565b6040516100dc929190610b6a565b61015a610855565b61023b6101fe366004610b3d565b5f60208190529081526040902080546001820154600283015460039093015491926001600160401b0380831693600160401b909304169160ff1685565b604080519586526001600160401b039485166020870152929093169184019190915260608301521515608082015260a0016100dc565b600354610284906001600160401b031681565b6040516001600160401b0390911681526020016100dc565b600181815481106102ab575f80fd5b5f918252602090912001546001600160a01b0316905081565b6001600160a01b0381165f9081526020819052604081206002810154829182918291829182901561031b575f8260020154426103009190610c09565b9050603c8110156103195761031681603c610c09565b91505b505b8154600183015460029093015490996001600160401b038085169a50600160401b909404909316975095509350915050565b6001600160a01b0381165f9081526020819052604081206002810154829190820361037e57506001935f9350915050565b5f81600201544261038f9190610c09565b9050603c81106103a657506001945f945092505050565b5f6103b282603c610c09565b935093505050915091565b6001546060908190808411156103d1578093505b835f036103f7575050604080515f80825260208201908152818301909252939092509050565b5f816001600160401b0381111561041057610410610c22565b604051908082528060200260200182016040528015610439578160200160208202803683370190505b5090505f826001600160401b0381111561045557610455610c22565b60405190808252806020026020018201604052801561047e578160200160208202803683370190505b5090505f5b83811015610567576001818154811061049e5761049e610c36565b905f5260205f20015f9054906101000a90046001600160a01b03168382815181106104cb576104cb610c36565b60200260200101906001600160a01b031690816001600160a01b0316815250505f806001838154811061050057610500610c36565b5f9182526020808320909101546001600160a01b0316835282019290925260400190206001015482516001600160401b039091169083908390811061054757610547610c36565b6001600160401b0390921660209283029190910190910152600101610483565b505f5b83811015610721575f61057e826001610c4a565b90505b848110156107185782828151811061059b5761059b610c36565b60200260200101516001600160401b03168382815181106105be576105be610c36565b60200260200101516001600160401b03161115610710575f8383815181106105e8576105e8610c36565b6020026020010151905083828151811061060457610604610c36565b602002602001015184848151811061061e5761061e610c36565b60200260200101906001600160401b031690816001600160401b0316815250508084838151811061065157610651610c36565b60200260200101906001600160401b031690816001600160401b0316815250505f85848151811061068457610684610c36565b602002602001015190508583815181106106a0576106a0610c36565b60200260200101518685815181106106ba576106ba610c36565b60200260200101906001600160a01b031690816001600160a01b031681525050808684815181106106ed576106ed610c36565b60200260200101906001600160a01b031690816001600160a01b03168152505050505b600101610581565b5060010161056a565b50856001600160401b0381111561073a5761073a610c22565b604051908082528060200260200182016040528015610763578160200160208202803683370190505b509450856001600160401b0381111561077e5761077e610c22565b6040519080825280602002602001820160405280156107a7578160200160208202803683370190505b5093505f5b8681101561084c578281815181106107c6576107c6610c36565b60200260200101518682815181106107e0576107e0610c36565b60200260200101906001600160a01b031690816001600160a01b03168152505081818151811061081257610812610c36565b602002602001015185828151811061082c5761082c610c36565b6001600160401b03909216602092830291909101909101526001016107ac565b50505050915091565b335f9081526020819052604081206002810154156108bb575f81600201544261087e9190610c09565b9050603c8110156108b95761089481603c610c09565b60405163c1ab61a160e01b81526004016108b091815260200190565b60405180910390fd5b505b600381015460ff16610916576001805480820182555f8290527fb10e2d527612073b26eecdfd717e6a320cf44b4afac2b0732d9fcbe2b7fa0cf60180546001600160a01b0319163317905560038201805460ff191690911790555b5f42443360045f81548092919061092c90610c5d565b909155506040805160208101959095528401929092526bffffffffffffffffffffffff19606091821b1690830152607482015260940160408051601f19818403018152919052805160209091012090505f600161098a816064610c75565b610995906001610c99565b6109a59063ffffffff1684610cb6565b6109af9190610c4a565b8354909150835f6109bf83610c5d565b90915550506001830180548291905f906109e39084906001600160401b0316610cd5565b92506101000a8154816001600160401b0302191690836001600160401b03160217905550808360010160086101000a8154816001600160401b0302191690836001600160401b0316021790555042836002018190555060025f815480929190610a4b90610c5d565b9091555050600380548291905f90610a6d9084906001600160401b0316610cd5565b92506101000a8154816001600160401b0302191690836001600160401b031602179055505f6002549050336001600160a01b03167fb73d415d4554d9bc64f3fadea1d75caaeb0f4db5b74538b5e5dcbce2660e624082604051610ad291815260200190565b60405180910390a2604080516001600160401b03841681526020810183905233917fb632fd4c363c3902d29b9c46cb62fe17abc1d6330ca7e88683ebf7608c54784d910160405180910390a2949350505050565b5f60208284031215610b36575f80fd5b5035919050565b5f60208284031215610b4d575f80fd5b81356001600160a01b0381168114610b63575f80fd5b9392505050565b604080825283519082018190525f906020906060840190828701845b82811015610bab5781516001600160a01b031684529284019290840190600101610b86565b505050838103828501528451808252858301918301905f5b81811015610be85783516001600160401b031683529284019291840191600101610bc3565b5090979650505050505050565b634e487b7160e01b5f52601160045260245ffd5b81810381811115610c1c57610c1c610bf5565b92915050565b634e487b7160e01b5f52604160045260245ffd5b634e487b7160e01b5f52603260045260245ffd5b80820180821115610c1c57610c1c610bf5565b5f60018201610c6e57610c6e610bf5565b5060010190565b63ffffffff828116828216039080821115610c9257610c92610bf5565b5092915050565b63ffffffff818116838216019080821115610c9257610c92610bf5565b5f82610cd057634e487b7160e01b5f52601260045260245ffd5b500690565b6001600160401b03818116838216019080821115610c9257610c92610bf556fea2646970667358221220a3bbb029979ac766aa2c54267d1c14322f7614a4de0625eba4e3b838cc8c956d64736f6c63430008180033","opcodes":"PUSH1 0x80 PUSH1 0x40 MSTORE CALLVALUE DUP1 ISZERO PUSH2 0xF JUMPI PUSH0 DUP1 REVERT JUMPDEST POP PUSH2 0xD2B DUP1 PUSH2 0x1D PUSH0 CODECOPY PUSH0 RETURN INVALID PUSH1 0x80 PUSH1 0x40 MSTORE CALLVALUE DUP1 ISZERO PUSH2 0xF JUMPI PUSH0 DUP1 REVERT JUMPDEST POP PUSH1 0x4 CALLDATASIZE LT PUSH2 0xB1 JUMPI PUSH0 CALLDATALOAD PUSH1 0xE0 SHR DUP1 PUSH4 0x6B4169C3 GT PUSH2 0x6E JUMPI DUP1 PUSH4 0x6B4169C3 EQ PUSH2 0x192 JUMPI DUP1 PUSH4 0x7D263245 EQ PUSH2 0x1BF JUMPI DUP1 PUSH4 0xBA3C0067 EQ PUSH2 0x1C7 JUMPI DUP1 PUSH4 0xC2E952C7 EQ PUSH2 0x1E8 JUMPI DUP1 PUSH4 0xE2EB41FF EQ PUSH2 0x1F0 JUMPI DUP1 PUSH4 0xEE172546 EQ PUSH2 0x271 JUMPI PUSH0 DUP1 REVERT JUMPDEST DUP1 PUSH4 0x544CE5E EQ PUSH2 0xB5 JUMPI DUP1 PUSH4 0xE1505E0 EQ PUSH2 0xE5 JUMPI DUP1 PUSH4 0x48EA0C03 EQ PUSH2 0x102 JUMPI DUP1 PUSH4 0x4FD66EAE EQ PUSH2 0x10A JUMPI DUP1 PUSH4 0x4FFA7D9F EQ PUSH2 0x151 JUMPI DUP1 PUSH4 0x52F070D1 EQ PUSH2 0x168 JUMPI JUMPDEST PUSH0 DUP1 REVERT JUMPDEST PUSH2 0xC8 PUSH2 0xC3 CALLDATASIZE PUSH1 0x4 PUSH2 0xB26 JUMP JUMPDEST PUSH2 0x29C JUMP JUMPDEST PUSH1 0x40 MLOAD PUSH1 0x1 PUSH1 0x1 PUSH1 0xA0 SHL SUB SWAP1 SWAP2 AND DUP2 MSTORE PUSH1 0x20 ADD JUMPDEST PUSH1 0x40 MLOAD DUP1 SWAP2 SUB SWAP1 RETURN JUMPDEST PUSH2 0xED PUSH1 0x64 DUP2 JUMP JUMPDEST PUSH1 0x40 MLOAD PUSH4 0xFFFFFFFF SWAP1 SWAP2 AND DUP2 MSTORE PUSH1 0x20 ADD PUSH2 0xDC JUMP JUMPDEST PUSH2 0xED PUSH1 0x1 DUP2 JUMP JUMPDEST PUSH2 0x11D PUSH2 0x118 CALLDATASIZE PUSH1 0x4 PUSH2 0xB3D JUMP JUMPDEST PUSH2 0x2C4 JUMP JUMPDEST PUSH1 0x40 DUP1 MLOAD SWAP6 DUP7 MSTORE PUSH1 0x1 PUSH1 0x1 PUSH1 0x40 SHL SUB SWAP5 DUP6 AND PUSH1 0x20 DUP8 ADD MSTORE SWAP3 SWAP1 SWAP4 AND SWAP2 DUP5 ADD SWAP2 SWAP1 SWAP2 MSTORE PUSH1 0x60 DUP4 ADD MSTORE PUSH1 0x80 DUP3 ADD MSTORE PUSH1 0xA0 ADD PUSH2 0xDC JUMP JUMPDEST PUSH2 0x15A PUSH1 0x2 SLOAD DUP2 JUMP JUMPDEST PUSH1 0x40 MLOAD SWAP1 DUP2 MSTORE PUSH1 0x20 ADD PUSH2 0xDC JUMP JUMPDEST PUSH2 0x17B PUSH2 0x176 CALLDATASIZE PUSH1 0x4 PUSH2 0xB3D JUMP JUMPDEST PUSH2 0x34D JUMP JUMPDEST PUSH1 0x40 DUP1 MLOAD SWAP3 ISZERO ISZERO DUP4 MSTORE PUSH1 0x20 DUP4 ADD SWAP2 SWAP1 SWAP2 MSTORE ADD PUSH2 0xDC JUMP JUMPDEST PUSH1 0x1 SLOAD PUSH1 0x2 SLOAD PUSH1 0x3 SLOAD PUSH1 0x40 DUP1 MLOAD SWAP4 DUP5 MSTORE PUSH1 0x20 DUP5 ADD SWAP3 SWAP1 SWAP3 MSTORE PUSH1 0x1 PUSH1 0x1 PUSH1 0x40 SHL SUB AND SWAP1 DUP3 ADD MSTORE PUSH1 0x60 ADD PUSH2 0xDC JUMP JUMPDEST PUSH2 0x15A PUSH1 0x3C DUP2 JUMP JUMPDEST PUSH2 0x1DA PUSH2 0x1D5 CALLDATASIZE PUSH1 0x4 PUSH2 0xB26 JUMP JUMPDEST PUSH2 0x3BD JUMP JUMPDEST PUSH1 0x40 MLOAD PUSH2 0xDC SWAP3 SWAP2 SWAP1 PUSH2 0xB6A JUMP JUMPDEST PUSH2 0x15A PUSH2 0x855 JUMP JUMPDEST PUSH2 0x23B PUSH2 0x1FE CALLDATASIZE PUSH1 0x4 PUSH2 0xB3D JUMP JUMPDEST PUSH0 PUSH1 0x20 DUP2 SWAP1 MSTORE SWAP1 DUP2 MSTORE PUSH1 0x40 SWAP1 KECCAK256 DUP1 SLOAD PUSH1 0x1 DUP3 ADD SLOAD PUSH1 0x2 DUP4 ADD SLOAD PUSH1 0x3 SWAP1 SWAP4 ADD SLOAD SWAP2 SWAP3 PUSH1 0x1 PUSH1 0x1 PUSH1 0x40 SHL SUB DUP1 DUP4 AND SWAP4 PUSH1 0x1 PUSH1 0x40 SHL SWAP1 SWAP4 DIV AND SWAP2 PUSH1 0xFF AND DUP6 JUMP JUMPDEST PUSH1 0x40 DUP1 MLOAD SWAP6 DUP7 MSTORE PUSH1 0x1 PUSH1 0x1 PUSH1 0x40 SHL SUB SWAP5 DUP6 AND PUSH1 0x20 DUP8 ADD MSTORE SWAP3 SWAP1 SWAP4 AND SWAP2 DUP5 ADD SWAP2 SWAP1 SWAP2 MSTORE PUSH1 0x60 DUP4 ADD MSTORE ISZERO ISZERO PUSH1 0x80 DUP3 ADD MSTORE PUSH1 0xA0 ADD PUSH2 0xDC JUMP JUMPDEST PUSH1 0x3 SLOAD PUSH2 0x284 SWAP1 PUSH1 0x1 PUSH1 0x1 PUSH1 0x40 SHL SUB AND DUP2 JUMP JUMPDEST PUSH1 0x40 MLOAD PUSH1 0x1 PUSH1 0x1 PUSH1 0x40 SHL SUB SWAP1 SWAP2 AND DUP2 MSTORE PUSH1 0x20 ADD PUSH2 0xDC JUMP JUMPDEST PUSH1 0x1 DUP2 DUP2 SLOAD DUP2 LT PUSH2 0x2AB JUMPI PUSH0 DUP1 REVERT JUMPDEST PUSH0 SWAP2 DUP3 MSTORE PUSH1 0x20 SWAP1 SWAP2 KECCAK256 ADD SLOAD PUSH1 0x1 PUSH1 0x1 PUSH1 0xA0 SHL SUB AND SWAP1 POP DUP2 JUMP JUMPDEST PUSH1 0x1 PUSH1 0x1 PUSH1 0xA0 SHL SUB DUP2 AND PUSH0 SWAP1 DUP2 MSTORE PUSH1 0x20 DUP2 SWAP1 MSTORE PUSH1 0x40 DUP2 KECCAK256 PUSH1 0x2 DUP2 ADD SLOAD DUP3 SWAP2 DUP3 SWAP2 DUP3 SWAP2 DUP3 SWAP2 DUP3 SWAP1 ISZERO PUSH2 0x31B JUMPI PUSH0 DUP3 PUSH1 0x2 ADD SLOAD TIMESTAMP PUSH2 0x300 SWAP2 SWAP1 PUSH2 0xC09 JUMP JUMPDEST SWAP1 POP PUSH1 0x3C DUP2 LT ISZERO PUSH2 0x319 JUMPI PUSH2 0x316 DUP2 PUSH1 0x3C PUSH2 0xC09 JUMP JUMPDEST SWAP2 POP JUMPDEST POP JUMPDEST DUP2 SLOAD PUSH1 0x1 DUP4 ADD SLOAD PUSH1 0x2 SWAP1 SWAP4 ADD SLOAD SWAP1 SWAP10 PUSH1 0x1 PUSH1 0x1 PUSH1 0x40 SHL SUB DUP1 DUP6 AND SWAP11 POP PUSH1 0x1 PUSH1 0x40 SHL SWAP1 SWAP5 DIV SWAP1 SWAP4 AND SWAP8 POP SWAP6 POP SWAP4 POP SWAP2 POP POP JUMP JUMPDEST PUSH1 0x1 PUSH1 0x1 PUSH1 0xA0 SHL SUB DUP2 AND PUSH0 SWAP1 DUP2 MSTORE PUSH1 0x20 DUP2 SWAP1 MSTORE PUSH1 0x40 DUP2 KECCAK256 PUSH1 0x2 DUP2 ADD SLOAD DUP3 SWAP2 SWAP1 DUP3 SUB PUSH2 0x37E JUMPI POP PUSH1 0x1 SWAP4 PUSH0 SWAP4 POP SWAP2 POP POP JUMP JUMPDEST PUSH0 DUP2 PUSH1 0x2 ADD SLOAD TIMESTAMP PUSH2 0x38F SWAP2 SWAP1 PUSH2 0xC09 JUMP JUMPDEST SWAP1 POP PUSH1 0x3C DUP2 LT PUSH2 0x3A6 JUMPI POP PUSH1 0x1 SWAP5 PUSH0 SWAP5 POP SWAP3 POP POP POP JUMP JUMPDEST PUSH0 PUSH2 0x3B2 DUP3 PUSH1 0x3C PUSH2 0xC09 JUMP JUMPDEST SWAP4 POP SWAP4 POP POP POP SWAP2 POP SWAP2 JUMP JUMPDEST PUSH1 0x1 SLOAD PUSH1 0x60 SWAP1 DUP2 SWAP1 DUP1 DUP5 GT ISZERO PUSH2 0x3D1 JUMPI DUP1 SWAP4 POP JUMPDEST DUP4 PUSH0 SUB PUSH2 0x3F7 JUMPI POP POP PUSH1 0x40 DUP1 MLOAD PUSH0 DUP1 DUP3 MSTORE PUSH1 0x20 DUP3 ADD SWAP1 DUP2 MSTORE DUP2 DUP4 ADD SWAP1 SWAP3 MSTORE SWAP4 SWAP1 SWAP3 POP SWAP1 POP JUMP JUMPDEST PUSH0 DUP2 PUSH1 0x1 PUSH1 0x1 PUSH1 0x40 SHL SUB DUP2 GT ISZERO PUSH2 0x410 JUMPI PUSH2 0x410 PUSH2 0xC22 JUMP JUMPDEST PUSH1 0x40 MLOAD SWAP1 DUP1 DUP3 MSTORE DUP1 PUSH1 0x20 MUL PUSH1 0x20 ADD DUP3 ADD PUSH1 0x40 MSTORE DUP1 ISZERO PUSH2 0x439 JUMPI DUP2 PUSH1 0x20 ADD PUSH1 0x20 DUP3 MUL DUP1 CALLDATASIZE DUP4 CALLDATACOPY ADD SWAP1 POP JUMPDEST POP SWAP1 POP PUSH0 DUP3 PUSH1 0x1 PUSH1 0x1 PUSH1 0x40 SHL SUB DUP2 GT ISZERO PUSH2 0x455 JUMPI PUSH2 0x455 PUSH2 0xC22 JUMP JUMPDEST PUSH1 0x40 MLOAD SWAP1 DUP1 DUP3 MSTORE DUP1 PUSH1 0x20 MUL PUSH1 0x20 ADD DUP3 ADD PUSH1 0x40 MSTORE DUP1 ISZERO PUSH2 0x47E JUMPI DUP2 PUSH1 0x20 ADD PUSH1 0x20 DUP3 MUL DUP1 CALLDATASIZE DUP4 CALLDATACOPY ADD SWAP1 POP JUMPDEST POP SWAP1 POP PUSH0 JUMPDEST DUP4 DUP2 LT ISZERO PUSH2 0x567 JUMPI PUSH1 0x1 DUP2 DUP2 SLOAD DUP2 LT PUSH2 0x49E JUMPI PUSH2 0x49E PUSH2 0xC36 JUMP JUMPDEST SWAP1 PUSH0 MSTORE PUSH1 0x20 PUSH0 KECCAK256 ADD PUSH0 SWAP1 SLOAD SWAP1 PUSH2 0x100 EXP SWAP1 DIV PUSH1 0x1 PUSH1 0x1 PUSH1 0xA0 SHL SUB AND DUP4 DUP3 DUP2 MLOAD DUP2 LT PUSH2 0x4CB JUMPI PUSH2 0x4CB PUSH2 0xC36 JUMP JUMPDEST PUSH1 0x20 MUL PUSH1 0x20 ADD ADD SWAP1 PUSH1 0x1 PUSH1 0x1 PUSH1 0xA0 SHL SUB AND SWAP1 DUP2 PUSH1 0x1 PUSH1 0x1 PUSH1 0xA0 SHL SUB AND DUP2 MSTORE POP POP PUSH0 DUP1 PUSH1 0x1 DUP4 DUP2 SLOAD DUP2 LT PUSH2 0x500 JUMPI PUSH2 0x500 PUSH2 0xC36 JUMP JUMPDEST PUSH0 SWAP2 DUP3 MSTORE PUSH1 0x20 DUP1 DUP4 KECCAK256 SWAP1 SWAP2 ADD SLOAD PUSH1 0x1 PUSH1 0x1 PUSH1 0xA0 SHL SUB AND DUP4 MSTORE DUP3 ADD SWAP3 SWAP1 SWAP3 MSTORE PUSH1 0x40 ADD SWAP1 KECCAK256 PUSH1 0x1 ADD SLOAD DUP3 MLOAD PUSH1 0x1 PUSH1 0x1 PUSH1 0x40 SHL SUB SWAP1 SWAP2 AND SWAP1 DUP4 SWAP1 DUP4 SWAP1 DUP2 LT PUSH2 0x547 JUMPI PUSH2 0x547 PUSH2 0xC36 JUMP JUMPDEST PUSH1 0x1 PUSH1 0x1 PUSH1 0x40 SHL SUB SWAP1 SWAP3 AND PUSH1 0x20 SWAP3 DUP4 MUL SWAP2 SWAP1 SWAP2 ADD SWAP1 SWAP2 ADD MSTORE PUSH1 0x1 ADD PUSH2 0x483 JUMP JUMPDEST POP PUSH0 JUMPDEST DUP4 DUP2 LT ISZERO PUSH2 0x721 JUMPI PUSH0 PUSH2 0x57E DUP3 PUSH1 0x1 PUSH2 0xC4A JUMP JUMPDEST SWAP1 POP JUMPDEST DUP5 DUP2 LT ISZERO PUSH2 0x718 JUMPI DUP3 DUP3 DUP2 MLOAD DUP2 LT PUSH2 0x59B JUMPI PUSH2 0x59B PUSH2 0xC36 JUMP JUMPDEST PUSH1 0x20 MUL PUSH1 0x20 ADD ADD MLOAD PUSH1 0x1 PUSH1 0x1 PUSH1 0x40 SHL SUB AND DUP4 DUP3 DUP2 MLOAD DUP2 LT PUSH2 0x5BE JUMPI PUSH2 0x5BE PUSH2 0xC36 JUMP JUMPDEST PUSH1 0x20 MUL PUSH1 0x20 ADD ADD MLOAD PUSH1 0x1 PUSH1 0x1 PUSH1 0x40 SHL SUB AND GT ISZERO PUSH2 0x710 JUMPI PUSH0 DUP4 DUP4 DUP2 MLOAD DUP2 LT PUSH2 0x5E8 JUMPI PUSH2 0x5E8 PUSH2 0xC36 JUMP JUMPDEST PUSH1 0x20 MUL PUSH1 0x20 ADD ADD MLOAD SWAP1 POP DUP4 DUP3 DUP2 MLOAD DUP2 LT PUSH2 0x604 JUMPI PUSH2 0x604 PUSH2 0xC36 JUMP JUMPDEST PUSH1 0x20 MUL PUSH1 0x20 ADD ADD MLOAD DUP5 DUP5 DUP2 MLOAD DUP2 LT PUSH2 0x61E JUMPI PUSH2 0x61E PUSH2 0xC36 JUMP JUMPDEST PUSH1 0x20 MUL PUSH1 0x20 ADD ADD SWAP1 PUSH1 0x1 PUSH1 0x1 PUSH1 0x40 SHL SUB AND SWAP1 DUP2 PUSH1 0x1 PUSH1 0x1 PUSH1 0x40 SHL SUB AND DUP2 MSTORE POP POP DUP1 DUP5 DUP4 DUP2 MLOAD DUP2 LT PUSH2 0x651 JUMPI PUSH2 0x651 PUSH2 0xC36 JUMP JUMPDEST PUSH1 0x20 MUL PUSH1 0x20 ADD ADD SWAP1 PUSH1 0x1 PUSH1 0x1 PUSH1 0x40 SHL SUB AND SWAP1 DUP2 PUSH1 0x1 PUSH1 0x1 PUSH1 0x40 SHL SUB AND DUP2 MSTORE POP POP PUSH0 DUP6 DUP5 DUP2 MLOAD DUP2 LT PUSH2 0x684 JUMPI PUSH2 0x684 PUSH2 0xC36 JUMP JUMPDEST PUSH1 0x20 MUL PUSH1 0x20 ADD ADD MLOAD SWAP1 POP DUP6 DUP4 DUP2 MLOAD DUP2 LT PUSH2 0x6A0 JUMPI PUSH2 0x6A0 PUSH2 0xC36 JUMP JUMPDEST PUSH1 0x20 MUL PUSH1 0x20 ADD ADD MLOAD DUP7 DUP6 DUP2 MLOAD DUP2 LT PUSH2 0x6BA JUMPI PUSH2 0x6BA PUSH2 0xC36 JUMP JUMPDEST PUSH1 0x20 MUL PUSH1 0x20 ADD ADD SWAP1 PUSH1 0x1 PUSH1 0x1 PUSH1 0xA0 SHL SUB AND SWAP1 DUP2 PUSH1 0x1 PUSH1 0x1 PUSH1 0xA0 SHL SUB AND DUP2 MSTORE POP POP DUP1 DUP7 DUP5 DUP2 MLOAD DUP2 LT PUSH2 0x6ED JUMPI PUSH2 0x6ED PUSH2 0xC36 JUMP JUMPDEST PUSH1 0x20 MUL PUSH1 0x20 ADD ADD SWAP1 PUSH1 0x1 PUSH1 0x1 PUSH1 0xA0 SHL SUB AND SWAP1 DUP2 PUSH1 0x1 PUSH1 0x1 PUSH1 0xA0 SHL SUB AND DUP2 MSTORE POP POP POP POP JUMPDEST PUSH1 0x1 ADD PUSH2 0x581 JUMP JUMPDEST POP PUSH1 0x1 ADD PUSH2 0x56A JUMP JUMPDEST POP DUP6 PUSH1 0x1 PUSH1 0x1 PUSH1 0x40 SHL SUB DUP2 GT ISZERO PUSH2 0x73A JUMPI PUSH2 0x73A PUSH2 0xC22 JUMP JUMPDEST PUSH1 0x40 MLOAD SWAP1 DUP1 DUP3 MSTORE DUP1 PUSH1 0x20 MUL PUSH1 0x20 ADD DUP3 ADD PUSH1 0x40 MSTORE DUP1 ISZERO PUSH2 0x763 JUMPI DUP2 PUSH1 0x20 ADD PUSH1 0x20 DUP3 MUL DUP1 CALLDATASIZE DUP4 CALLDATACOPY ADD SWAP1 POP JUMPDEST POP SWAP5 POP DUP6 PUSH1 0x1 PUSH1 0x1 PUSH1 0x40 SHL SUB DUP2 GT ISZERO PUSH2 0x77E JUMPI PUSH2 0x77E PUSH2 0xC22 JUMP JUMPDEST PUSH1 0x40 MLOAD SWAP1 DUP1 DUP3 MSTORE DUP1 PUSH1 0x20 MUL PUSH1 0x20 ADD DUP3 ADD PUSH1 0x40 MSTORE DUP1 ISZERO PUSH2 0x7A7 JUMPI DUP2 PUSH1 0x20 ADD PUSH1 0x20 DUP3 MUL DUP1 CALLDATASIZE DUP4 CALLDATACOPY ADD SWAP1 POP JUMPDEST POP SWAP4 POP PUSH0 JUMPDEST DUP7 DUP2 LT ISZERO PUSH2 0x84C JUMPI DUP3 DUP2 DUP2 MLOAD DUP2 LT PUSH2 0x7C6 JUMPI PUSH2 0x7C6 PUSH2 0xC36 JUMP JUMPDEST PUSH1 0x20 MUL PUSH1 0x20 ADD ADD MLOAD DUP7 DUP3 DUP2 MLOAD DUP2 LT PUSH2 0x7E0 JUMPI PUSH2 0x7E0 PUSH2 0xC36 JUMP JUMPDEST PUSH1 0x20 MUL PUSH1 0x20 ADD ADD SWAP1 PUSH1 0x1 PUSH1 0x1 PUSH1 0xA0 SHL SUB AND SWAP1 DUP2 PUSH1 0x1 PUSH1 0x1 PUSH1 0xA0 SHL SUB AND DUP2 MSTORE POP POP DUP2 DUP2 DUP2 MLOAD DUP2 LT PUSH2 0x812 JUMPI PUSH2 0x812 PUSH2 0xC36 JUMP JUMPDEST PUSH1 0x20 MUL PUSH1 0x20 ADD ADD MLOAD DUP6 DUP3 DUP2 MLOAD DUP2 LT PUSH2 0x82C JUMPI PUSH2 0x82C PUSH2 0xC36 JUMP JUMPDEST PUSH1 0x1 PUSH1 0x1 PUSH1 0x40 SHL SUB SWAP1 SWAP3 AND PUSH1 0x20 SWAP3 DUP4 MUL SWAP2 SWAP1 SWAP2 ADD SWAP1 SWAP2 ADD MSTORE PUSH1 0x1 ADD PUSH2 0x7AC JUMP JUMPDEST POP POP POP POP SWAP2 POP SWAP2 JUMP JUMPDEST CALLER PUSH0 SWAP1 DUP2 MSTORE PUSH1 0x20 DUP2 SWAP1 MSTORE PUSH1 0x40 DUP2 KECCAK256 PUSH1 0x2 DUP2 ADD SLOAD ISZERO PUSH2 0x8BB JUMPI PUSH0 DUP2 PUSH1 0x2 ADD SLOAD TIMESTAMP PUSH2 0x87E SWAP2 SWAP1 PUSH2 0xC09 JUMP JUMPDEST SWAP1 POP PUSH1 0x3C DUP2 LT ISZERO PUSH2 0x8B9 JUMPI PUSH2 0x894 DUP2 PUSH1 0x3C PUSH2 0xC09 JUMP JUMPDEST PUSH1 0x40 MLOAD PUSH4 0xC1AB61A1 PUSH1 0xE0 SHL DUP2 MSTORE PUSH1 0x4 ADD PUSH2 0x8B0 SWAP2 DUP2 MSTORE PUSH1 0x20 ADD SWAP1 JUMP JUMPDEST PUSH1 0x40 MLOAD DUP1 SWAP2 SUB SWAP1 REVERT JUMPDEST POP JUMPDEST PUSH1 0x3 DUP2 ADD SLOAD PUSH1 0xFF AND PUSH2 0x916 JUMPI PUSH1 0x1 DUP1 SLOAD DUP1 DUP3 ADD DUP3 SSTORE PUSH0 DUP3 SWAP1 MSTORE PUSH32 0xB10E2D527612073B26EECDFD717E6A320CF44B4AFAC2B0732D9FCBE2B7FA0CF6 ADD DUP1 SLOAD PUSH1 0x1 PUSH1 0x1 PUSH1 0xA0 SHL SUB NOT AND CALLER OR SWAP1 SSTORE PUSH1 0x3 DUP3 ADD DUP1 SLOAD PUSH1 0xFF NOT AND SWAP1 SWAP2 OR SWAP1 SSTORE JUMPDEST PUSH0 TIMESTAMP PREVRANDAO CALLER PUSH1 0x4 PUSH0 DUP2 SLOAD DUP1 SWAP3 SWAP2 SWAP1 PUSH2 0x92C SWAP1 PUSH2 0xC5D JUMP JUMPDEST SWAP1 SWAP2 SSTORE POP PUSH1 0x40 DUP1 MLOAD PUSH1 0x20 DUP2 ADD SWAP6 SWAP1 SWAP6 MSTORE DUP5 ADD SWAP3 SWAP1 SWAP3 MSTORE PUSH12 0xFFFFFFFFFFFFFFFFFFFFFFFF NOT PUSH1 0x60 SWAP2 DUP3 SHL AND SWAP1 DUP4 ADD MSTORE PUSH1 0x74 DUP3 ADD MSTORE PUSH1 0x94 ADD PUSH1 0x40 DUP1 MLOAD PUSH1 0x1F NOT DUP2 DUP5 SUB ADD DUP2 MSTORE SWAP2 SWAP1 MSTORE DUP1 MLOAD PUSH1 0x20 SWAP1 SWAP2 ADD KECCAK256 SWAP1 POP PUSH0 PUSH1 0x1 PUSH2 0x98A DUP2 PUSH1 0x64 PUSH2 0xC75 JUMP JUMPDEST PUSH2 0x995 SWAP1 PUSH1 0x1 PUSH2 0xC99 JUMP JUMPDEST PUSH2 0x9A5 SWAP1 PUSH4 0xFFFFFFFF AND DUP5 PUSH2 0xCB6 JUMP JUMPDEST PUSH2 0x9AF SWAP2 SWAP1 PUSH2 0xC4A JUMP JUMPDEST DUP4 SLOAD SWAP1 SWAP2 POP DUP4 PUSH0 PUSH2 0x9BF DUP4 PUSH2 0xC5D JUMP JUMPDEST SWAP1 SWAP2 SSTORE POP POP PUSH1 0x1 DUP4 ADD DUP1 SLOAD DUP3 SWAP2 SWAP1 PUSH0 SWAP1 PUSH2 0x9E3 SWAP1 DUP5 SWAP1 PUSH1 0x1 PUSH1 0x1 PUSH1 0x40 SHL SUB AND PUSH2 0xCD5 JUMP JUMPDEST SWAP3 POP PUSH2 0x100 EXP DUP2 SLOAD DUP2 PUSH1 0x1 PUSH1 0x1 PUSH1 0x40 SHL SUB MUL NOT AND SWAP1 DUP4 PUSH1 0x1 PUSH1 0x1 PUSH1 0x40 SHL SUB AND MUL OR SWAP1 SSTORE POP DUP1 DUP4 PUSH1 0x1 ADD PUSH1 0x8 PUSH2 0x100 EXP DUP2 SLOAD DUP2 PUSH1 0x1 PUSH1 0x1 PUSH1 0x40 SHL SUB MUL NOT AND SWAP1 DUP4 PUSH1 0x1 PUSH1 0x1 PUSH1 0x40 SHL SUB AND MUL OR SWAP1 SSTORE POP TIMESTAMP DUP4 PUSH1 0x2 ADD DUP2 SWAP1 SSTORE POP PUSH1 0x2 PUSH0 DUP2 SLOAD DUP1 SWAP3 SWAP2 SWAP1 PUSH2 0xA4B SWAP1 PUSH2 0xC5D JUMP JUMPDEST SWAP1 SWAP2 SSTORE POP POP PUSH1 0x3 DUP1 SLOAD DUP3 SWAP2 SWAP1 PUSH0 SWAP1 PUSH2 0xA6D SWAP1 DUP5 SWAP1 PUSH1 0x1 PUSH1 0x1 PUSH1 0x40 SHL SUB AND PUSH2 0xCD5 JUMP JUMPDEST SWAP3 POP PUSH2 0x100 EXP DUP2 SLOAD DUP2 PUSH1 0x1 PUSH1 0x1 PUSH1 0x40 SHL SUB MUL NOT AND SWAP1 DUP4 PUSH1 0x1 PUSH1 0x1 PUSH1 0x40 SHL SUB AND MUL OR SWAP1 SSTORE POP PUSH0 PUSH1 0x2 SLOAD SWAP1 POP CALLER PUSH1 0x1 PUSH1 0x1 PUSH1 0xA0 SHL SUB AND PUSH32 0xB73D415D4554D9BC64F3FADEA1D75CAAEB0F4DB5B74538B5E5DCBCE2660E6240 DUP3 PUSH1 0x40 MLOAD PUSH2 0xAD2 SWAP2 DUP2 MSTORE PUSH1 0x20 ADD SWAP1 JUMP JUMPDEST PUSH1 0x40 MLOAD DUP1 SWAP2 SUB SWAP1 LOG2 PUSH1 0x40 DUP1 MLOAD PUSH1 0x1 PUSH1 0x1 PUSH1 0x40 SHL SUB DUP5 AND DUP2 MSTORE PUSH1 0x20 DUP2 ADD DUP4 SWAP1 MSTORE CALLER SWAP2 PUSH32 0xB632FD4C363C3902D29B9C46CB62FE17ABC1D6330CA7E88683EBF7608C54784D SWAP2 ADD PUSH1 0x40 MLOAD DUP1 SWAP2 SUB SWAP1 LOG2 SWAP5 SWAP4 POP POP POP POP JUMP JUMPDEST PUSH0 PUSH1 0x20 DUP3 DUP5 SUB SLT ISZERO PUSH2 0xB36 JUMPI PUSH0 DUP1 REVERT JUMPDEST POP CALLDATALOAD SWAP2 SWAP1 POP JUMP JUMPDEST PUSH0 PUSH1 0x20 DUP3 DUP5 SUB SLT ISZERO PUSH2 0xB4D JUMPI PUSH0 DUP1 REVERT JUMPDEST DUP2 CALLDATALOAD PUSH1 0x1 PUSH1 0x1 PUSH1 0xA0 SHL SUB DUP2 AND DUP2 EQ PUSH2 0xB63 JUMPI PUSH0 DUP1 REVERT JUMPDEST SWAP4 SWAP3 POP POP POP JUMP JUMPDEST PUSH1 0x40 DUP1 DUP3 MSTORE DUP4 MLOAD SWAP1 DUP3 ADD DUP2 SWAP1 MSTORE PUSH0 SWAP1 PUSH1 0x20 SWAP1 PUSH1 0x60 DUP5 ADD SWAP1 DUP3 DUP8 ADD DUP5 JUMPDEST DUP3 DUP2 LT ISZERO PUSH2 0xBAB JUMPI DUP2 MLOAD PUSH1 0x1 PUSH1 0x1 PUSH1 0xA0 SHL SUB AND DUP5 MSTORE SWAP3 DUP5 ADD SWAP3 SWAP1 DUP5 ADD SWAP1 PUSH1 0x1 ADD PUSH2 0xB86 JUMP JUMPDEST POP POP POP DUP4 DUP2 SUB DUP3 DUP6 ADD MSTORE DUP5 MLOAD DUP1 DUP3 MSTORE DUP6 DUP4 ADD SWAP2 DUP4 ADD SWAP1 PUSH0 JUMPDEST DUP2 DUP2 LT ISZERO PUSH2 0xBE8 JUMPI DUP4 MLOAD PUSH1 0x1 PUSH1 0x1 PUSH1 0x40 SHL SUB AND DUP4 MSTORE SWAP3 DUP5 ADD SWAP3 SWAP2 DUP5 ADD SWAP2 PUSH1 0x1 ADD PUSH2 0xBC3 JUMP JUMPDEST POP SWAP1 SWAP8 SWAP7 POP POP POP POP POP POP POP JUMP JUMPDEST PUSH4 0x4E487B71 PUSH1 0xE0 SHL PUSH0 MSTORE PUSH1 0x11 PUSH1 0x4 MSTORE PUSH1 0x24 PUSH0 REVERT JUMPDEST DUP2 DUP2 SUB DUP2 DUP2 GT ISZERO PUSH2 0xC1C JUMPI PUSH2 0xC1C PUSH2 0xBF5 JUMP JUMPDEST SWAP3 SWAP2 POP POP JUMP JUMPDEST PUSH4 0x4E487B71 PUSH1 0xE0 SHL PUSH0 MSTORE PUSH1 0x41 PUSH1 0x4 MSTORE PUSH1 0x24 PUSH0 REVERT JUMPDEST PUSH4 0x4E487B71 PUSH1 0xE0 SHL PUSH0 MSTORE PUSH1 0x32 PUSH1 0x4 MSTORE PUSH1 0x24 PUSH0 REVERT JUMPDEST DUP1 DUP3 ADD DUP1 DUP3 GT ISZERO PUSH2 0xC1C JUMPI PUSH2 0xC1C PUSH2 0xBF5 JUMP JUMPDEST PUSH0 PUSH1 0x1 DUP3 ADD PUSH2 0xC6E JUMPI PUSH2 0xC6E PUSH2 0xBF5 JUMP JUMPDEST POP PUSH1 0x1 ADD SWAP1 JUMP JUMPDEST PUSH4 0xFFFFFFFF DUP3 DUP2 AND DUP3 DUP3 AND SUB SWAP1 DUP1 DUP3 GT ISZERO PUSH2 0xC92 JUMPI PUSH2 0xC92 PUSH2 0xBF5 JUMP JUMPDEST POP SWAP3 SWAP2 POP POP JUMP JUMPDEST PUSH4 0xFFFFFFFF DUP2 DUP2 AND DUP4 DUP3 AND ADD SWAP1 DUP1 DUP3 GT ISZERO PUSH2 0xC92 JUMPI PUSH2 0xC92 PUSH2 0xBF5 JUMP JUMPDEST PUSH0 DUP3 PUSH2 0xCD0 JUMPI PUSH4 0x4E487B71 PUSH1 0xE0 SHL PUSH0 MSTORE PUSH1 0x12 PUSH1 0x4 MSTORE PUSH1 0x24 PUSH0 REVERT JUMPDEST POP MOD SWAP1 JUMP JUMPDEST PUSH1 0x1 PUSH1 0x1 PUSH1 0x40 SHL SUB DUP2 DUP2 AND DUP4 DUP3 AND ADD SWAP1 DUP1 DUP3 GT ISZERO PUSH2 0xC92 JUMPI PUSH2 0xC92 PUSH2 0xBF5 JUMP INVALID LOG2 PUSH5 0x6970667358 0x22 SLT KECCAK256 LOG3 0xBB 0xB0 0x29 SWAP8 SWAP11 0xC7 PUSH7 0xAA2C54267D1C14 ORIGIN 0x2F PUSH23 0x14A4DE0625EBA4E3B838CC8C956D64736F6C6343000818 STOP CALLER "},"methodIdentifiers":{"COOLDOWN_TIME()":"7d263245","MAX_REWARD()":"0e1505e0","MIN_REWARD()":"48ea0c03","allPlayers(uint256)":"0544ce5e","canOpenBox(address)":"52f070d1","getGlobalStats()":"6b4169c3","getPlayerStats(address)":"4fd66eae","getTopPlayers(uint256)":"ba3c0067","openBox()":"c2e952c7","players(address)":"e2eb41ff","totalBoxesOpened()":"4ffa7d9f","totalRewardsDistributed()":"ee172546"}}}}}