{"contracts/SimplifiedQuestionBox.sol":{"SimplifiedQuestionBox":{"abi":[{"inputs":[],"stateMutability":"nonpayable","type":"constructor"},{"inputs":[{"internalType":"uint256","name":"questionId","type":"uint256"}],"name":"AlreadySolved","type":"error"},{"inputs":[{"internalType":"uint8","name":"attemptsUsed","type":"uint8"},{"internalType":"uint256","name":"resetsIn","type":"uint256"}],"name":"DailyLimitReached","type":"error"},{"inputs":[],"name":"InvalidQuestionId","type":"error"},{"inputs":[{"internalType":"uint256","name":"questionId","type":"uint256"}],"name":"QuestionNotActive","type":"error"},{"anonymous":false,"inputs":[{"indexed":true,"internalType":"address","name":"player","type":"address"},{"indexed":false,"internalType":"uint256","name":"newDay","type":"uint256"}],"name":"DailyLimitReset","type":"event"},{"anonymous":false,"inputs":[{"indexed":true,"internalType":"address","name":"player","type":"address"},{"indexed":true,"internalType":"uint256","name":"questionId","type":"uint256"},{"indexed":false,"internalType":"bool","name":"success","type":"bool"}],"name":"QuestionAttempted","type":"event"},{"anonymous":false,"inputs":[{"indexed":true,"internalType":"uint256","name":"questionId","type":"uint256"},{"indexed":false,"internalType":"string","name":"questionText","type":"string"},{"indexed":false,"internalType":"uint64","name":"reward","type":"uint64"}],"name":"QuestionCreated","type":"event"},{"anonymous":false,"inputs":[{"indexed":true,"internalType":"address","name":"player","type":"address"},{"indexed":true,"internalType":"uint256","name":"questionId","type":"uint256"},{"indexed":false,"internalType":"uint64","name":"reward","type":"uint64"}],"name":"TreasureUnlocked","type":"event"},{"inputs":[],"name":"BASE_REWARD","outputs":[{"internalType":"uint64","name":"","type":"uint64"}],"stateMutability":"view","type":"function"},{"inputs":[],"name":"MAX_DAILY_ATTEMPTS","outputs":[{"internalType":"uint8","name":"","type":"uint8"}],"stateMutability":"view","type":"function"},{"inputs":[{"internalType":"uint256","name":"questionId","type":"uint256"},{"internalType":"uint32","name":"answer","type":"uint32"}],"name":"answerQuestion","outputs":[{"internalType":"bool","name":"success","type":"bool"}],"stateMutability":"nonpayable","type":"function"},{"inputs":[{"internalType":"string","name":"questionText","type":"string"},{"internalType":"uint32","name":"answer","type":"uint32"},{"internalType":"uint64","name":"reward","type":"uint64"}],"name":"createQuestion","outputs":[{"internalType":"uint256","name":"","type":"uint256"}],"stateMutability":"nonpayable","type":"function"},{"inputs":[],"name":"getActiveQuestionsCount","outputs":[{"internalType":"uint256","name":"count","type":"uint256"}],"stateMutability":"view","type":"function"},{"inputs":[{"internalType":"address","name":"player","type":"address"}],"name":"getPlayerProgress","outputs":[{"internalType":"uint8","name":"attemptsToday","type":"uint8"},{"internalType":"uint8","name":"remainingAttempts","type":"uint8"},{"internalType":"uint256","name":"totalSolved","type":"uint256"},{"internalType":"uint64","name":"totalRewards","type":"uint64"},{"internalType":"uint256","name":"timeUntilReset","type":"uint256"}],"stateMutability":"view","type":"function"},{"inputs":[{"internalType":"uint256","name":"questionId","type":"uint256"}],"name":"getQuestion","outputs":[{"internalType":"string","name":"questionText","type":"string"},{"internalType":"uint64","name":"reward","type":"uint64"},{"internalType":"bool","name":"isActive","type":"bool"},{"internalType":"bool","name":"playerSolved","type":"bool"}],"stateMutability":"view","type":"function"},{"inputs":[{"internalType":"address","name":"player","type":"address"}],"name":"getRandomQuestion","outputs":[{"internalType":"uint256","name":"","type":"uint256"}],"stateMutability":"view","type":"function"},{"inputs":[{"internalType":"address","name":"","type":"address"},{"internalType":"uint256","name":"","type":"uint256"}],"name":"hasSolved","outputs":[{"internalType":"bool","name":"","type":"bool"}],"stateMutability":"view","type":"function"},{"inputs":[{"internalType":"address","name":"","type":"address"}],"name":"playerProgress","outputs":[{"internalType":"uint256","name":"lastResetDay","type":"uint256"},{"internalType":"uint8","name":"attemptsToday","type":"uint8"},{"internalType":"uint256","name":"totalSolved","type":"uint256"},{"internalType":"uint64","name":"totalRewards","type":"uint64"}],"stateMutability":"view","type":"function"},{"inputs":[],"name":"questionCount","outputs":[{"internalType":"uint256","name":"","type":"uint256"}],"stateMutability":"view","type":"function"},{"inputs":[{"internalType":"uint256","name":"","type":"uint256"}],"name":"questions","outputs":[{"internalType":"string","name":"questionText","type":"string"},{"internalType":"uint32","name":"correctAnswer","type":"uint32"},{"internalType":"uint64","name":"reward","type":"uint64"},{"internalType":"bool","name":"isActive","type":"bool"},{"internalType":"uint256","name":"createdAt","type":"uint256"}],"stateMutability":"view","type":"function"}],"evm":{"bytecode":{"linkReferences":{},"object":"608060405234801562000010575f80fd5b506200001b62000021565b62000533565b60408051808201909152600e81526d576861742069732035202b20373f60901b60208201526200005590600c6064620001ea565b60408051808201909152600f81526e57686174206973203135202d20383f60881b60208201526200008a9060076064620001ea565b60408051808201909152600e81526d576861742069732036202a20343f60901b6020820152620000be9060186064620001ea565b60408051808201909152601881527f486f77206d616e79206461797320696e2061207765656b3f00000000000000006020820152620001019060076064620001ea565b60408051808201909152601a81527f486f77206d616e79206d6f6e74687320696e206120796561723f00000000000060208201526200014490600c6064620001ea565b6200016c6040518060600160405280602381526020016200155e6023913960066064620001ea565b60408051808201909152601a81527f576861742069732031302073717561726564202831305e32293f0000000000006020820152620001ba906064620001b481600262000321565b620001ea565b620001e86040518060600160405280603581526020016200158160359139602a620001b46064600362000321565b565b600180545f9182620001fc836200034f565b909155506040805160a08101825286815263ffffffff86166020808301919091526001600160401b03861682840152600160608301524260808301525f848152908190529190912081519293509091819062000259908262000408565b506020820151600182018054604080860151606087015115156c010000000000000000000000000260ff60601b196001600160401b03909216640100000000026001600160601b031990941663ffffffff9096169590951792909217919091169290921790556080909201516002909101555181907fa298a7d6af5ba26fcde1da1533981c37fdb996ecc58211bac468dc21f4de6f7890620002ff9087908690620004d4565b60405180910390a250505050565b634e487b7160e01b5f52601160045260245ffd5b6001600160401b038181168382160280821691908281146200034757620003476200030d565b505092915050565b5f600182016200036357620003636200030d565b5060010190565b634e487b7160e01b5f52604160045260245ffd5b600181811c908216806200039357607f821691505b602082108103620003b257634e487b7160e01b5f52602260045260245ffd5b50919050565b601f8211156200040357805f5260205f20601f840160051c81016020851015620003df5750805b601f840160051c820191505b8181101562000400575f8155600101620003eb565b50505b505050565b81516001600160401b038111156200042457620004246200036a565b6200043c816200043584546200037e565b84620003b8565b602080601f83116001811462000472575f84156200045a5750858301515b5f19600386901b1c1916600185901b178555620004cc565b5f85815260208120601f198616915b82811015620004a25788860151825594840194600190910190840162000481565b5085821015620004c057878501515f19600388901b60f8161c191681555b505060018460011b0185555b505050505050565b604081525f83518060408401525f5b81811015620005025760208187018101516060868401015201620004e3565b505f60608285018101919091526001600160401b03949094166020840152601f01601f191690910190910192915050565b61101d80620005415f395ff3fe608060405234801561000f575f80fd5b50600436106100b1575f3560e01c8063a14686401161006e578063a146864014610155578063c5bb344914610178578063db88176f14610180578063ead109c4146101a3578063ec7eba05146101d0578063f635c69b1461023d575f80fd5b80631468aa2c146100b557806322009af6146100d157806331b1b978146100f15780634e6e0f8b14610115578063529c963514610128578063997559981461013b575b5f80fd5b6100be60015481565b6040519081526020015b60405180910390f35b6100d9606481565b6040516001600160401b0390911681526020016100c8565b6101046100ff366004610afa565b610286565b6040516100c8959493929190610b54565b6100be610123366004610bdb565b610352565b6100be610136366004610cbb565b610470565b610143600381565b60405160ff90911681526020016100c8565b610168610163366004610cdb565b6105db565b60405190151581526020016100c8565b6100be610864565b61019361018e366004610afa565b6108ab565b6040516100c89493929190610d05565b6101686101b1366004610d3e565b600360209081525f928352604080842090915290825290205460ff1681565b6102126101de366004610cbb565b600260208190525f91825260409091208054600182015492820154600390920154909260ff1691906001600160401b031684565b6040805194855260ff9093166020850152918301526001600160401b031660608201526080016100c8565b61025061024b366004610cbb565b6109b7565b6040805160ff9687168152959094166020860152928401919091526001600160401b03166060830152608082015260a0016100c8565b5f602081905290815260409020805481906102a090610d66565b80601f01602080910402602001604051908101604052809291908181526020018280546102cc90610d66565b80156103175780601f106102ee57610100808354040283529160200191610317565b820191905f5260205f20905b8154815290600101906020018083116102fa57829003601f168201915b505050506001830154600290930154919263ffffffff81169264010000000082046001600160401b03169250600160601b90910460ff169085565b600180545f918291908261036583610db2565b909155506040805160a08101825287815263ffffffff87166020808301919091526001600160401b03871682840152600160608301524260808301525f84815290819052919091208151929350909181906103c09082610e15565b50602082015160018201805460408086015160608701511515600160601b0260ff60601b196001600160401b03909216640100000000026bffffffffffffffffffffffff1990941663ffffffff9096169590951792909217919091169290921790556080909201516002909101555181907fa298a7d6af5ba26fcde1da1533981c37fdb996ecc58211bac468dc21f4de6f78906104609088908790610ed4565b60405180910390a2949350505050565b5f806001546001600160401b0381111561048c5761048c610b99565b6040519080825280602002602001820160405280156104b5578160200160208202803683370190505b5090505f805b600154811015610548575f81815260208190526040902060010154600160601b900460ff16801561050f57506001600160a01b0385165f90815260036020908152604080832084845290915290205460ff16155b15610540578083838151811061052757610527610efe565b60209081029190910101528161053c81610db2565b9250505b6001016104bb565b50805f0361055957505f9392505050565b5f8142448760405160200161059393929190928352602083019190915260601b6bffffffffffffffffffffffff1916604082015260540190565b604051602081830303815290604052805190602001205f1c6105b59190610f26565b90508281815181106105c9576105c9610efe565b60200260200101519350505050919050565b5f60015483106105fe57604051633fa9e8b960e11b815260040160405180910390fd5b5f8381526020819052604090206001810154600160601b900460ff1661063f5760405163318ddc5b60e21b8152600481018590526024015b60405180910390fd5b335f90815260036020908152604080832087845290915290205460ff161561067d57604051632905f90960e21b815260048101859052602401610636565b61068633610a75565b335f9081526002602052604090206001810154600360ff90911610610709575f6106b36201518042610f39565b90505f6106c1826001610f4c565b6106ce9062015180610f5f565b90505f6106db4283610f76565b6001850154604051632e8dd65d60e11b815260ff909116600482015260248101829052909150604401610636565b60018101805460ff16905f61071d83610f89565b825460ff9182166101009390930a928302919092021990911617905550600182015460405163ffffffff8681169216919091148082529350859033907fd4f86dae1cde85d0378f4f83cb85b55a7b9106609bb788295ef6928e9aa9aff09060200160405180910390a3821561085b57600281018054905f61079d83610db2565b909155505060018201546003820180546001600160401b036401000000009093048316925f916107cf91859116610fa7565b82546101009290920a6001600160401b03818102199093169183160217909155335f8181526003602090815260408083208b8452825291829020805460ff191660019081179091558701549151640100000000909204909316815288935090917f6c9c61b14224ccaf917717a764a2298feb33fd104cf4b1f42ea1c72fadfe70fb910160405180910390a35b50505b92915050565b5f805b6001548110156108a7575f81815260208190526040902060010154600160601b900460ff161561089f578161089b81610db2565b9250505b600101610867565b5090565b60605f805f60015485106108d257604051633fa9e8b960e11b815260040160405180910390fd5b5f858152602081815260408083206001810154338552600384528285208a8652909352922054825483926001600160401b036401000000008204169260ff600160601b909204821692911690849061092990610d66565b80601f016020809104026020016040519081016040528092919081815260200182805461095590610d66565b80156109a05780601f10610977576101008083540402835291602001916109a0565b820191905f5260205f20905b81548152906001019060200180831161098357829003601f168201915b505050505093509450945094509450509193509193565b6001600160a01b0381165f9081526002602052604081208190819081908190816109e46201518042610f39565b90505f81835f0154106109fe57600183015460ff16610a00565b5f5b90505f600360ff83161015610a1f57610a1a826003610fce565b610a21565b5f5b90505f610a2f846001610f4c565b610a3c9062015180610f5f565b90505f610a494283610f76565b6002870154600390970154949d939c50959a50506001600160401b039092169750929550919350505050565b6001600160a01b0381165f90815260026020526040812090610a9a6201518042610f39565b905080825f01541015610af55780825560018201805460ff191690556040518181526001600160a01b038416907fe08bf5ec0359ff00ff7306d2a54240f6b4970e8ed71e637f2117ab9b246896f99060200160405180910390a25b505050565b5f60208284031215610b0a575f80fd5b5035919050565b5f81518084525f5b81811015610b3557602081850181015186830182015201610b19565b505f602082860101526020601f19601f83011685010191505092915050565b60a081525f610b6660a0830188610b11565b63ffffffff969096166020830152506001600160401b039390931660408401529015156060830152608090910152919050565b634e487b7160e01b5f52604160045260245ffd5b803563ffffffff81168114610bc0575f80fd5b919050565b80356001600160401b0381168114610bc0575f80fd5b5f805f60608486031215610bed575f80fd5b83356001600160401b0380821115610c03575f80fd5b818601915086601f830112610c16575f80fd5b813581811115610c2857610c28610b99565b604051601f8201601f19908116603f01168101908382118183101715610c5057610c50610b99565b81604052828152896020848701011115610c68575f80fd5b826020860160208301375f602084830101528097505050505050610c8e60208501610bad565b9150610c9c60408501610bc5565b90509250925092565b80356001600160a01b0381168114610bc0575f80fd5b5f60208284031215610ccb575f80fd5b610cd482610ca5565b9392505050565b5f8060408385031215610cec575f80fd5b82359150610cfc60208401610bad565b90509250929050565b608081525f610d176080830187610b11565b6001600160401b039590951660208301525091151560408301521515606090910152919050565b5f8060408385031215610d4f575f80fd5b610d5883610ca5565b946020939093013593505050565b600181811c90821680610d7a57607f821691505b602082108103610d9857634e487b7160e01b5f52602260045260245ffd5b50919050565b634e487b7160e01b5f52601160045260245ffd5b5f60018201610dc357610dc3610d9e565b5060010190565b601f821115610af557805f5260205f20601f840160051c81016020851015610def5750805b601f840160051c820191505b81811015610e0e575f8155600101610dfb565b5050505050565b81516001600160401b03811115610e2e57610e2e610b99565b610e4281610e3c8454610d66565b84610dca565b602080601f831160018114610e75575f8415610e5e5750858301515b5f19600386901b1c1916600185901b178555610ecc565b5f85815260208120601f198616915b82811015610ea357888601518255948401946001909101908401610e84565b5085821015610ec057878501515f19600388901b60f8161c191681555b505060018460011b0185555b505050505050565b604081525f610ee66040830185610b11565b90506001600160401b03831660208301529392505050565b634e487b7160e01b5f52603260045260245ffd5b634e487b7160e01b5f52601260045260245ffd5b5f82610f3457610f34610f12565b500690565b5f82610f4757610f47610f12565b500490565b8082018082111561085e5761085e610d9e565b808202811582820484141761085e5761085e610d9e565b8181038181111561085e5761085e610d9e565b5f60ff821660ff8103610f9e57610f9e610d9e565b60010192915050565b6001600160401b03818116838216019080821115610fc757610fc7610d9e565b5092915050565b60ff828116828216039081111561085e5761085e610d9e56fea2646970667358221220a4442a13ff882100c0ca94d26fc209a83f5bf9c385caec99165d8c6c644c7cb764736f6c63430008180033486f77206d616e7920736964657320646f657320612068657861676f6e20686176653f576861742069732074686520616e7377657220746f206c6966652c20756e6976657273652c20616e642065766572797468696e673f","opcodes":"PUSH1 0x80 PUSH1 0x40 MSTORE CALLVALUE DUP1 ISZERO PUSH3 0x10 JUMPI PUSH0 DUP1 REVERT JUMPDEST POP PUSH3 0x1B PUSH3 0x21 JUMP JUMPDEST PUSH3 0x533 JUMP JUMPDEST PUSH1 0x40 DUP1 MLOAD DUP1 DUP3 ADD SWAP1 SWAP2 MSTORE PUSH1 0xE DUP2 MSTORE PUSH14 0x576861742069732035202B20373F PUSH1 0x90 SHL PUSH1 0x20 DUP3 ADD MSTORE PUSH3 0x55 SWAP1 PUSH1 0xC PUSH1 0x64 PUSH3 0x1EA JUMP JUMPDEST PUSH1 0x40 DUP1 MLOAD DUP1 DUP3 ADD SWAP1 SWAP2 MSTORE PUSH1 0xF DUP2 MSTORE PUSH15 0x57686174206973203135202D20383F PUSH1 0x88 SHL PUSH1 0x20 DUP3 ADD MSTORE PUSH3 0x8A SWAP1 PUSH1 0x7 PUSH1 0x64 PUSH3 0x1EA JUMP JUMPDEST PUSH1 0x40 DUP1 MLOAD DUP1 DUP3 ADD SWAP1 SWAP2 MSTORE PUSH1 0xE DUP2 MSTORE PUSH14 0x576861742069732036202A20343F PUSH1 0x90 SHL PUSH1 0x20 DUP3 ADD MSTORE PUSH3 0xBE SWAP1 PUSH1 0x18 PUSH1 0x64 PUSH3 0x1EA JUMP JUMPDEST PUSH1 0x40 DUP1 MLOAD DUP1 DUP3 ADD SWAP1 SWAP2 MSTORE PUSH1 0x18 DUP2 MSTORE PUSH32 0x486F77206D616E79206461797320696E2061207765656B3F0000000000000000 PUSH1 0x20 DUP3 ADD MSTORE PUSH3 0x101 SWAP1 PUSH1 0x7 PUSH1 0x64 PUSH3 0x1EA JUMP JUMPDEST PUSH1 0x40 DUP1 MLOAD DUP1 DUP3 ADD SWAP1 SWAP2 MSTORE PUSH1 0x1A DUP2 MSTORE PUSH32 0x486F77206D616E79206D6F6E74687320696E206120796561723F000000000000 PUSH1 0x20 DUP3 ADD MSTORE PUSH3 0x144 SWAP1 PUSH1 0xC PUSH1 0x64 PUSH3 0x1EA JUMP JUMPDEST PUSH3 0x16C PUSH1 0x40 MLOAD DUP1 PUSH1 0x60 ADD PUSH1 0x40 MSTORE DUP1 PUSH1 0x23 DUP2 MSTORE PUSH1 0x20 ADD PUSH3 0x155E PUSH1 0x23 SWAP2 CODECOPY PUSH1 0x6 PUSH1 0x64 PUSH3 0x1EA JUMP JUMPDEST PUSH1 0x40 DUP1 MLOAD DUP1 DUP3 ADD SWAP1 SWAP2 MSTORE PUSH1 0x1A DUP2 MSTORE PUSH32 0x576861742069732031302073717561726564202831305E32293F000000000000 PUSH1 0x20 DUP3 ADD MSTORE PUSH3 0x1BA SWAP1 PUSH1 0x64 PUSH3 0x1B4 DUP2 PUSH1 0x2 PUSH3 0x321 JUMP JUMPDEST PUSH3 0x1EA JUMP JUMPDEST PUSH3 0x1E8 PUSH1 0x40 MLOAD DUP1 PUSH1 0x60 ADD PUSH1 0x40 MSTORE DUP1 PUSH1 0x35 DUP2 MSTORE PUSH1 0x20 ADD PUSH3 0x1581 PUSH1 0x35 SWAP2 CODECOPY PUSH1 0x2A PUSH3 0x1B4 PUSH1 0x64 PUSH1 0x3 PUSH3 0x321 JUMP JUMPDEST JUMP JUMPDEST PUSH1 0x1 DUP1 SLOAD PUSH0 SWAP2 DUP3 PUSH3 0x1FC DUP4 PUSH3 0x34F JUMP JUMPDEST SWAP1 SWAP2 SSTORE POP PUSH1 0x40 DUP1 MLOAD PUSH1 0xA0 DUP2 ADD DUP3 MSTORE DUP7 DUP2 MSTORE PUSH4 0xFFFFFFFF DUP7 AND PUSH1 0x20 DUP1 DUP4 ADD SWAP2 SWAP1 SWAP2 MSTORE PUSH1 0x1 PUSH1 0x1 PUSH1 0x40 SHL SUB DUP7 AND DUP3 DUP5 ADD MSTORE PUSH1 0x1 PUSH1 0x60 DUP4 ADD MSTORE TIMESTAMP PUSH1 0x80 DUP4 ADD MSTORE PUSH0 DUP5 DUP2 MSTORE SWAP1 DUP2 SWAP1 MSTORE SWAP2 SWAP1 SWAP2 KECCAK256 DUP2 MLOAD SWAP3 SWAP4 POP SWAP1 SWAP2 DUP2 SWAP1 PUSH3 0x259 SWAP1 DUP3 PUSH3 0x408 JUMP JUMPDEST POP PUSH1 0x20 DUP3 ADD MLOAD PUSH1 0x1 DUP3 ADD DUP1 SLOAD PUSH1 0x40 DUP1 DUP7 ADD MLOAD PUSH1 0x60 DUP8 ADD MLOAD ISZERO ISZERO PUSH13 0x1000000000000000000000000 MUL PUSH1 0xFF PUSH1 0x60 SHL NOT PUSH1 0x1 PUSH1 0x1 PUSH1 0x40 SHL SUB SWAP1 SWAP3 AND PUSH5 0x100000000 MUL PUSH1 0x1 PUSH1 0x1 PUSH1 0x60 SHL SUB NOT SWAP1 SWAP5 AND PUSH4 0xFFFFFFFF SWAP1 SWAP7 AND SWAP6 SWAP1 SWAP6 OR SWAP3 SWAP1 SWAP3 OR SWAP2 SWAP1 SWAP2 AND SWAP3 SWAP1 SWAP3 OR SWAP1 SSTORE PUSH1 0x80 SWAP1 SWAP3 ADD MLOAD PUSH1 0x2 SWAP1 SWAP2 ADD SSTORE MLOAD DUP2 SWAP1 PUSH32 0xA298A7D6AF5BA26FCDE1DA1533981C37FDB996ECC58211BAC468DC21F4DE6F78 SWAP1 PUSH3 0x2FF SWAP1 DUP8 SWAP1 DUP7 SWAP1 PUSH3 0x4D4 JUMP JUMPDEST PUSH1 0x40 MLOAD DUP1 SWAP2 SUB SWAP1 LOG2 POP POP POP POP JUMP JUMPDEST PUSH4 0x4E487B71 PUSH1 0xE0 SHL PUSH0 MSTORE PUSH1 0x11 PUSH1 0x4 MSTORE PUSH1 0x24 PUSH0 REVERT JUMPDEST PUSH1 0x1 PUSH1 0x1 PUSH1 0x40 SHL SUB DUP2 DUP2 AND DUP4 DUP3 AND MUL DUP1 DUP3 AND SWAP2 SWAP1 DUP3 DUP2 EQ PUSH3 0x347 JUMPI PUSH3 0x347 PUSH3 0x30D JUMP JUMPDEST POP POP SWAP3 SWAP2 POP POP JUMP JUMPDEST PUSH0 PUSH1 0x1 DUP3 ADD PUSH3 0x363 JUMPI PUSH3 0x363 PUSH3 0x30D JUMP JUMPDEST POP PUSH1 0x1 ADD SWAP1 JUMP JUMPDEST PUSH4 0x4E487B71 PUSH1 0xE0 SHL PUSH0 MSTORE PUSH1 0x41 PUSH1 0x4 MSTORE PUSH1 0x24 PUSH0 REVERT JUMPDEST PUSH1 0x1 DUP2 DUP2 SHR SWAP1 DUP3 AND DUP1 PUSH3 0x393 JUMPI PUSH1 0x7F DUP3 AND SWAP2 POP JUMPDEST PUSH1 0x20 DUP3 LT DUP2 SUB PUSH3 0x3B2 JUMPI PUSH4 0x4E487B71 PUSH1 0xE0 SHL PUSH0 MSTORE PUSH1 0x22 PUSH1 0x4 MSTORE PUSH1 0x24 PUSH0 REVERT JUMPDEST POP SWAP2 SWAP1 POP JUMP JUMPDEST PUSH1 0x1F DUP3 GT ISZERO PUSH3 0x403 JUMPI DUP1 PUSH0 MSTORE PUSH1 0x20 PUSH0 KECCAK256 PUSH1 0x1F DUP5 ADD PUSH1 0x5 SHR DUP2 ADD PUSH1 0x20 DUP6 LT ISZERO PUSH3 0x3DF JUMPI POP DUP1 JUMPDEST PUSH1 0x1F DUP5 ADD PUSH1 0x5 SHR DUP3 ADD SWAP2 POP JUMPDEST DUP2 DUP2 LT ISZERO PUSH3 0x400 JUMPI PUSH0 DUP2 SSTORE PUSH1 0x1 ADD PUSH3 0x3EB JUMP JUMPDEST POP POP JUMPDEST POP POP POP JUMP JUMPDEST DUP2 MLOAD PUSH1 0x1 PUSH1 0x1 PUSH1 0x40 SHL SUB DUP2 GT ISZERO PUSH3 0x424 JUMPI PUSH3 0x424 PUSH3 0x36A JUMP JUMPDEST PUSH3 0x43C DUP2 PUSH3 0x435 DUP5 SLOAD PUSH3 0x37E JUMP JUMPDEST DUP5 PUSH3 0x3B8 JUMP JUMPDEST PUSH1 0x20 DUP1 PUSH1 0x1F DUP4 GT PUSH1 0x1 DUP2 EQ PUSH3 0x472 JUMPI PUSH0 DUP5 ISZERO PUSH3 0x45A JUMPI POP DUP6 DUP4 ADD MLOAD JUMPDEST PUSH0 NOT PUSH1 0x3 DUP7 SWAP1 SHL SHR NOT AND PUSH1 0x1 DUP6 SWAP1 SHL OR DUP6 SSTORE PUSH3 0x4CC JUMP JUMPDEST PUSH0 DUP6 DUP2 MSTORE PUSH1 0x20 DUP2 KECCAK256 PUSH1 0x1F NOT DUP7 AND SWAP2 JUMPDEST DUP3 DUP2 LT ISZERO PUSH3 0x4A2 JUMPI DUP9 DUP7 ADD MLOAD DUP3 SSTORE SWAP5 DUP5 ADD SWAP5 PUSH1 0x1 SWAP1 SWAP2 ADD SWAP1 DUP5 ADD PUSH3 0x481 JUMP JUMPDEST POP DUP6 DUP3 LT ISZERO PUSH3 0x4C0 JUMPI DUP8 DUP6 ADD MLOAD PUSH0 NOT PUSH1 0x3 DUP9 SWAP1 SHL PUSH1 0xF8 AND SHR NOT AND DUP2 SSTORE JUMPDEST POP POP PUSH1 0x1 DUP5 PUSH1 0x1 SHL ADD DUP6 SSTORE JUMPDEST POP POP POP POP POP POP JUMP JUMPDEST PUSH1 0x40 DUP2 MSTORE PUSH0 DUP4 MLOAD DUP1 PUSH1 0x40 DUP5 ADD MSTORE PUSH0 JUMPDEST DUP2 DUP2 LT ISZERO PUSH3 0x502 JUMPI PUSH1 0x20 DUP2 DUP8 ADD DUP2 ADD MLOAD PUSH1 0x60 DUP7 DUP5 ADD ADD MSTORE ADD PUSH3 0x4E3 JUMP JUMPDEST POP PUSH0 PUSH1 0x60 DUP3 DUP6 ADD DUP2 ADD SWAP2 SWAP1 SWAP2 MSTORE PUSH1 0x1 PUSH1 0x1 PUSH1 0x40 SHL SUB SWAP5 SWAP1 SWAP5 AND PUSH1 0x20 DUP5 ADD MSTORE PUSH1 0x1F ADD PUSH1 0x1F NOT AND SWAP1 SWAP2 ADD SWAP1 SWAP2 ADD SWAP3 SWAP2 POP POP JUMP JUMPDEST PUSH2 0x101D DUP1 PUSH3 0x541 PUSH0 CODECOPY PUSH0 RETURN INVALID PUSH1 0x80 PUSH1 0x40 MSTORE CALLVALUE DUP1 ISZERO PUSH2 0xF JUMPI PUSH0 DUP1 REVERT JUMPDEST POP PUSH1 0x4 CALLDATASIZE LT PUSH2 0xB1 JUMPI PUSH0 CALLDATALOAD PUSH1 0xE0 SHR DUP1 PUSH4 0xA1468640 GT PUSH2 0x6E JUMPI DUP1 PUSH4 0xA1468640 EQ PUSH2 0x155 JUMPI DUP1 PUSH4 0xC5BB3449 EQ PUSH2 0x178 JUMPI DUP1 PUSH4 0xDB88176F EQ PUSH2 0x180 JUMPI DUP1 PUSH4 0xEAD109C4 EQ PUSH2 0x1A3 JUMPI DUP1 PUSH4 0xEC7EBA05 EQ PUSH2 0x1D0 JUMPI DUP1 PUSH4 0xF635C69B EQ PUSH2 0x23D JUMPI PUSH0 DUP1 REVERT JUMPDEST DUP1 PUSH4 0x1468AA2C EQ PUSH2 0xB5 JUMPI DUP1 PUSH4 0x22009AF6 EQ PUSH2 0xD1 JUMPI DUP1 PUSH4 0x31B1B978 EQ PUSH2 0xF1 JUMPI DUP1 PUSH4 0x4E6E0F8B EQ PUSH2 0x115 JUMPI DUP1 PUSH4 0x529C9635 EQ PUSH2 0x128 JUMPI DUP1 PUSH4 0x99755998 EQ PUSH2 0x13B JUMPI JUMPDEST PUSH0 DUP1 REVERT JUMPDEST PUSH2 0xBE PUSH1 0x1 SLOAD DUP2 JUMP JUMPDEST PUSH1 0x40 MLOAD SWAP1 DUP2 MSTORE PUSH1 0x20 ADD JUMPDEST PUSH1 0x40 MLOAD DUP1 SWAP2 SUB SWAP1 RETURN JUMPDEST PUSH2 0xD9 PUSH1 0x64 DUP2 JUMP JUMPDEST PUSH1 0x40 MLOAD PUSH1 0x1 PUSH1 0x1 PUSH1 0x40 SHL SUB SWAP1 SWAP2 AND DUP2 MSTORE PUSH1 0x20 ADD PUSH2 0xC8 JUMP JUMPDEST PUSH2 0x104 PUSH2 0xFF CALLDATASIZE PUSH1 0x4 PUSH2 0xAFA JUMP JUMPDEST PUSH2 0x286 JUMP JUMPDEST PUSH1 0x40 MLOAD PUSH2 0xC8 SWAP6 SWAP5 SWAP4 SWAP3 SWAP2 SWAP1 PUSH2 0xB54 JUMP JUMPDEST PUSH2 0xBE PUSH2 0x123 CALLDATASIZE PUSH1 0x4 PUSH2 0xBDB JUMP JUMPDEST PUSH2 0x352 JUMP JUMPDEST PUSH2 0xBE PUSH2 0x136 CALLDATASIZE PUSH1 0x4 PUSH2 0xCBB JUMP JUMPDEST PUSH2 0x470 JUMP JUMPDEST PUSH2 0x143 PUSH1 0x3 DUP2 JUMP JUMPDEST PUSH1 0x40 MLOAD PUSH1 0xFF SWAP1 SWAP2 AND DUP2 MSTORE PUSH1 0x20 ADD PUSH2 0xC8 JUMP JUMPDEST PUSH2 0x168 PUSH2 0x163 CALLDATASIZE PUSH1 0x4 PUSH2 0xCDB JUMP JUMPDEST PUSH2 0x5DB JUMP JUMPDEST PUSH1 0x40 MLOAD SWAP1 ISZERO ISZERO DUP2 MSTORE PUSH1 0x20 ADD PUSH2 0xC8 JUMP JUMPDEST PUSH2 0xBE PUSH2 0x864 JUMP JUMPDEST PUSH2 0x193 PUSH2 0x18E CALLDATASIZE PUSH1 0x4 PUSH2 0xAFA JUMP JUMPDEST PUSH2 0x8AB JUMP JUMPDEST PUSH1 0x40 MLOAD PUSH2 0xC8 SWAP5 SWAP4 SWAP3 SWAP2 SWAP1 PUSH2 0xD05 JUMP JUMPDEST PUSH2 0x168 PUSH2 0x1B1 CALLDATASIZE PUSH1 0x4 PUSH2 0xD3E JUMP JUMPDEST PUSH1 0x3 PUSH1 0x20 SWAP1 DUP2 MSTORE PUSH0 SWAP3 DUP4 MSTORE PUSH1 0x40 DUP1 DUP5 KECCAK256 SWAP1 SWAP2 MSTORE SWAP1 DUP3 MSTORE SWAP1 KECCAK256 SLOAD PUSH1 0xFF AND DUP2 JUMP JUMPDEST PUSH2 0x212 PUSH2 0x1DE CALLDATASIZE PUSH1 0x4 PUSH2 0xCBB JUMP JUMPDEST PUSH1 0x2 PUSH1 0x20 DUP2 SWAP1 MSTORE PUSH0 SWAP2 DUP3 MSTORE PUSH1 0x40 SWAP1 SWAP2 KECCAK256 DUP1 SLOAD PUSH1 0x1 DUP3 ADD SLOAD SWAP3 DUP3 ADD SLOAD PUSH1 0x3 SWAP1 SWAP3 ADD SLOAD SWAP1 SWAP3 PUSH1 0xFF AND SWAP2 SWAP1 PUSH1 0x1 PUSH1 0x1 PUSH1 0x40 SHL SUB AND DUP5 JUMP JUMPDEST PUSH1 0x40 DUP1 MLOAD SWAP5 DUP6 MSTORE PUSH1 0xFF SWAP1 SWAP4 AND PUSH1 0x20 DUP6 ADD MSTORE SWAP2 DUP4 ADD MSTORE PUSH1 0x1 PUSH1 0x1 PUSH1 0x40 SHL SUB AND PUSH1 0x60 DUP3 ADD MSTORE PUSH1 0x80 ADD PUSH2 0xC8 JUMP JUMPDEST PUSH2 0x250 PUSH2 0x24B CALLDATASIZE PUSH1 0x4 PUSH2 0xCBB JUMP JUMPDEST PUSH2 0x9B7 JUMP JUMPDEST PUSH1 0x40 DUP1 MLOAD PUSH1 0xFF SWAP7 DUP8 AND DUP2 MSTORE SWAP6 SWAP1 SWAP5 AND PUSH1 0x20 DUP7 ADD MSTORE SWAP3 DUP5 ADD SWAP2 SWAP1 SWAP2 MSTORE PUSH1 0x1 PUSH1 0x1 PUSH1 0x40 SHL SUB AND PUSH1 0x60 DUP4 ADD MSTORE PUSH1 0x80 DUP3 ADD MSTORE PUSH1 0xA0 ADD PUSH2 0xC8 JUMP JUMPDEST PUSH0 PUSH1 0x20 DUP2 SWAP1 MSTORE SWAP1 DUP2 MSTORE PUSH1 0x40 SWAP1 KECCAK256 DUP1 SLOAD DUP2 SWAP1 PUSH2 0x2A0 SWAP1 PUSH2 0xD66 JUMP JUMPDEST DUP1 PUSH1 0x1F ADD PUSH1 0x20 DUP1 SWAP2 DIV MUL PUSH1 0x20 ADD PUSH1 0x40 MLOAD SWAP1 DUP2 ADD PUSH1 0x40 MSTORE DUP1 SWAP3 SWAP2 SWAP1 DUP2 DUP2 MSTORE PUSH1 0x20 ADD DUP3 DUP1 SLOAD PUSH2 0x2CC SWAP1 PUSH2 0xD66 JUMP JUMPDEST DUP1 ISZERO PUSH2 0x317 JUMPI DUP1 PUSH1 0x1F LT PUSH2 0x2EE JUMPI PUSH2 0x100 DUP1 DUP4 SLOAD DIV MUL DUP4 MSTORE SWAP2 PUSH1 0x20 ADD SWAP2 PUSH2 0x317 JUMP JUMPDEST DUP3 ADD SWAP2 SWAP1 PUSH0 MSTORE PUSH1 0x20 PUSH0 KECCAK256 SWAP1 JUMPDEST DUP2 SLOAD DUP2 MSTORE SWAP1 PUSH1 0x1 ADD SWAP1 PUSH1 0x20 ADD DUP1 DUP4 GT PUSH2 0x2FA JUMPI DUP3 SWAP1 SUB PUSH1 0x1F AND DUP3 ADD SWAP2 JUMPDEST POP POP POP POP PUSH1 0x1 DUP4 ADD SLOAD PUSH1 0x2 SWAP1 SWAP4 ADD SLOAD SWAP2 SWAP3 PUSH4 0xFFFFFFFF DUP2 AND SWAP3 PUSH5 0x100000000 DUP3 DIV PUSH1 0x1 PUSH1 0x1 PUSH1 0x40 SHL SUB AND SWAP3 POP PUSH1 0x1 PUSH1 0x60 SHL SWAP1 SWAP2 DIV PUSH1 0xFF AND SWAP1 DUP6 JUMP JUMPDEST PUSH1 0x1 DUP1 SLOAD PUSH0 SWAP2 DUP3 SWAP2 SWAP1 DUP3 PUSH2 0x365 DUP4 PUSH2 0xDB2 JUMP JUMPDEST SWAP1 SWAP2 SSTORE POP PUSH1 0x40 DUP1 MLOAD PUSH1 0xA0 DUP2 ADD DUP3 MSTORE DUP8 DUP2 MSTORE PUSH4 0xFFFFFFFF DUP8 AND PUSH1 0x20 DUP1 DUP4 ADD SWAP2 SWAP1 SWAP2 MSTORE PUSH1 0x1 PUSH1 0x1 PUSH1 0x40 SHL SUB DUP8 AND DUP3 DUP5 ADD MSTORE PUSH1 0x1 PUSH1 0x60 DUP4 ADD MSTORE TIMESTAMP PUSH1 0x80 DUP4 ADD MSTORE PUSH0 DUP5 DUP2 MSTORE SWAP1 DUP2 SWAP1 MSTORE SWAP2 SWAP1 SWAP2 KECCAK256 DUP2 MLOAD SWAP3 SWAP4 POP SWAP1 SWAP2 DUP2 SWAP1 PUSH2 0x3C0 SWAP1 DUP3 PUSH2 0xE15 JUMP JUMPDEST POP PUSH1 0x20 DUP3 ADD MLOAD PUSH1 0x1 DUP3 ADD DUP1 SLOAD PUSH1 0x40 DUP1 DUP7 ADD MLOAD PUSH1 0x60 DUP8 ADD MLOAD ISZERO ISZERO PUSH1 0x1 PUSH1 0x60 SHL MUL PUSH1 0xFF PUSH1 0x60 SHL NOT PUSH1 0x1 PUSH1 0x1 PUSH1 0x40 SHL SUB SWAP1 SWAP3 AND PUSH5 0x100000000 MUL PUSH12 0xFFFFFFFFFFFFFFFFFFFFFFFF NOT SWAP1 SWAP5 AND PUSH4 0xFFFFFFFF SWAP1 SWAP7 AND SWAP6 SWAP1 SWAP6 OR SWAP3 SWAP1 SWAP3 OR SWAP2 SWAP1 SWAP2 AND SWAP3 SWAP1 SWAP3 OR SWAP1 SSTORE PUSH1 0x80 SWAP1 SWAP3 ADD MLOAD PUSH1 0x2 SWAP1 SWAP2 ADD SSTORE MLOAD DUP2 SWAP1 PUSH32 0xA298A7D6AF5BA26FCDE1DA1533981C37FDB996ECC58211BAC468DC21F4DE6F78 SWAP1 PUSH2 0x460 SWAP1 DUP9 SWAP1 DUP8 SWAP1 PUSH2 0xED4 JUMP JUMPDEST PUSH1 0x40 MLOAD DUP1 SWAP2 SUB SWAP1 LOG2 SWAP5 SWAP4 POP POP POP POP JUMP JUMPDEST PUSH0 DUP1 PUSH1 0x1 SLOAD PUSH1 0x1 PUSH1 0x1 PUSH1 0x40 SHL SUB DUP2 GT ISZERO PUSH2 0x48C JUMPI PUSH2 0x48C PUSH2 0xB99 JUMP JUMPDEST PUSH1 0x40 MLOAD SWAP1 DUP1 DUP3 MSTORE DUP1 PUSH1 0x20 MUL PUSH1 0x20 ADD DUP3 ADD PUSH1 0x40 MSTORE DUP1 ISZERO PUSH2 0x4B5 JUMPI DUP2 PUSH1 0x20 ADD PUSH1 0x20 DUP3 MUL DUP1 CALLDATASIZE DUP4 CALLDATACOPY ADD SWAP1 POP JUMPDEST POP SWAP1 POP PUSH0 DUP1 JUMPDEST PUSH1 0x1 SLOAD DUP2 LT ISZERO PUSH2 0x548 JUMPI PUSH0 DUP2 DUP2 MSTORE PUSH1 0x20 DUP2 SWAP1 MSTORE PUSH1 0x40 SWAP1 KECCAK256 PUSH1 0x1 ADD SLOAD PUSH1 0x1 PUSH1 0x60 SHL SWAP1 DIV PUSH1 0xFF AND DUP1 ISZERO PUSH2 0x50F JUMPI POP PUSH1 0x1 PUSH1 0x1 PUSH1 0xA0 SHL SUB DUP6 AND PUSH0 SWAP1 DUP2 MSTORE PUSH1 0x3 PUSH1 0x20 SWAP1 DUP2 MSTORE PUSH1 0x40 DUP1 DUP4 KECCAK256 DUP5 DUP5 MSTORE SWAP1 SWAP2 MSTORE SWAP1 KECCAK256 SLOAD PUSH1 0xFF AND ISZERO JUMPDEST ISZERO PUSH2 0x540 JUMPI DUP1 DUP4 DUP4 DUP2 MLOAD DUP2 LT PUSH2 0x527 JUMPI PUSH2 0x527 PUSH2 0xEFE JUMP JUMPDEST PUSH1 0x20 SWAP1 DUP2 MUL SWAP2 SWAP1 SWAP2 ADD ADD MSTORE DUP2 PUSH2 0x53C DUP2 PUSH2 0xDB2 JUMP JUMPDEST SWAP3 POP POP JUMPDEST PUSH1 0x1 ADD PUSH2 0x4BB JUMP JUMPDEST POP DUP1 PUSH0 SUB PUSH2 0x559 JUMPI POP PUSH0 SWAP4 SWAP3 POP POP POP JUMP JUMPDEST PUSH0 DUP2 TIMESTAMP PREVRANDAO DUP8 PUSH1 0x40 MLOAD PUSH1 0x20 ADD PUSH2 0x593 SWAP4 SWAP3 SWAP2 SWAP1 SWAP3 DUP4 MSTORE PUSH1 0x20 DUP4 ADD SWAP2 SWAP1 SWAP2 MSTORE PUSH1 0x60 SHL PUSH12 0xFFFFFFFFFFFFFFFFFFFFFFFF NOT AND PUSH1 0x40 DUP3 ADD MSTORE PUSH1 0x54 ADD SWAP1 JUMP JUMPDEST PUSH1 0x40 MLOAD PUSH1 0x20 DUP2 DUP4 SUB SUB DUP2 MSTORE SWAP1 PUSH1 0x40 MSTORE DUP1 MLOAD SWAP1 PUSH1 0x20 ADD KECCAK256 PUSH0 SHR PUSH2 0x5B5 SWAP2 SWAP1 PUSH2 0xF26 JUMP JUMPDEST SWAP1 POP DUP3 DUP2 DUP2 MLOAD DUP2 LT PUSH2 0x5C9 JUMPI PUSH2 0x5C9 PUSH2 0xEFE JUMP JUMPDEST PUSH1 0x20 MUL PUSH1 0x20 ADD ADD MLOAD SWAP4 POP POP POP POP SWAP2 SWAP1 POP JUMP JUMPDEST PUSH0 PUSH1 0x1 SLOAD DUP4 LT PUSH2 0x5FE JUMPI PUSH1 0x40 MLOAD PUSH4 0x3FA9E8B9 PUSH1 0xE1 SHL DUP2 MSTORE PUSH1 0x4 ADD PUSH1 0x40 MLOAD DUP1 SWAP2 SUB SWAP1 REVERT JUMPDEST PUSH0 DUP4 DUP2 MSTORE PUSH1 0x20 DUP2 SWAP1 MSTORE PUSH1 0x40 SWAP1 KECCAK256 PUSH1 0x1 DUP2 ADD SLOAD PUSH1 0x1 PUSH1 0x60 SHL SWAP1 DIV PUSH1 0xFF AND PUSH2 0x63F JUMPI PUSH1 0x40 MLOAD PUSH4 0x318DDC5B PUSH1 0xE2 SHL DUP2 MSTORE PUSH1 0x4 DUP2 ADD DUP6 SWAP1 MSTORE PUSH1 0x24 ADD JUMPDEST PUSH1 0x40 MLOAD DUP1 SWAP2 SUB SWAP1 REVERT JUMPDEST CALLER PUSH0 SWAP1 DUP2 MSTORE PUSH1 0x3 PUSH1 0x20 SWAP1 DUP2 MSTORE PUSH1 0x40 DUP1 DUP4 KECCAK256 DUP8 DUP5 MSTORE SWAP1 SWAP2 MSTORE SWAP1 KECCAK256 SLOAD PUSH1 0xFF AND ISZERO PUSH2 0x67D JUMPI PUSH1 0x40 MLOAD PUSH4 0x2905F909 PUSH1 0xE2 SHL DUP2 MSTORE PUSH1 0x4 DUP2 ADD DUP6 SWAP1 MSTORE PUSH1 0x24 ADD PUSH2 0x636 JUMP JUMPDEST PUSH2 0x686 CALLER PUSH2 0xA75 JUMP JUMPDEST CALLER PUSH0 SWAP1 DUP2 MSTORE PUSH1 0x2 PUSH1 0x20 MSTORE PUSH1 0x40 SWAP1 KECCAK256 PUSH1 0x1 DUP2 ADD SLOAD PUSH1 0x3 PUSH1 0xFF SWAP1 SWAP2 AND LT PUSH2 0x709 JUMPI PUSH0 PUSH2 0x6B3 PUSH3 0x15180 TIMESTAMP PUSH2 0xF39 JUMP JUMPDEST SWAP1 POP PUSH0 PUSH2 0x6C1 DUP3 PUSH1 0x1 PUSH2 0xF4C JUMP JUMPDEST PUSH2 0x6CE SWAP1 PUSH3 0x15180 PUSH2 0xF5F JUMP JUMPDEST SWAP1 POP PUSH0 PUSH2 0x6DB TIMESTAMP DUP4 PUSH2 0xF76 JUMP JUMPDEST PUSH1 0x1 DUP6 ADD SLOAD PUSH1 0x40 MLOAD PUSH4 0x2E8DD65D PUSH1 0xE1 SHL DUP2 MSTORE PUSH1 0xFF SWAP1 SWAP2 AND PUSH1 0x4 DUP3 ADD MSTORE PUSH1 0x24 DUP2 ADD DUP3 SWAP1 MSTORE SWAP1 SWAP2 POP PUSH1 0x44 ADD PUSH2 0x636 JUMP JUMPDEST PUSH1 0x1 DUP2 ADD DUP1 SLOAD PUSH1 0xFF AND SWAP1 PUSH0 PUSH2 0x71D DUP4 PUSH2 0xF89 JUMP JUMPDEST DUP3 SLOAD PUSH1 0xFF SWAP2 DUP3 AND PUSH2 0x100 SWAP4 SWAP1 SWAP4 EXP SWAP3 DUP4 MUL SWAP2 SWAP1 SWAP3 MUL NOT SWAP1 SWAP2 AND OR SWAP1 SSTORE POP PUSH1 0x1 DUP3 ADD SLOAD PUSH1 0x40 MLOAD PUSH4 0xFFFFFFFF DUP7 DUP2 AND SWAP3 AND SWAP2 SWAP1 SWAP2 EQ DUP1 DUP3 MSTORE SWAP4 POP DUP6 SWAP1 CALLER SWAP1 PUSH32 0xD4F86DAE1CDE85D0378F4F83CB85B55A7B9106609BB788295EF6928E9AA9AFF0 SWAP1 PUSH1 0x20 ADD PUSH1 0x40 MLOAD DUP1 SWAP2 SUB SWAP1 LOG3 DUP3 ISZERO PUSH2 0x85B JUMPI PUSH1 0x2 DUP2 ADD DUP1 SLOAD SWAP1 PUSH0 PUSH2 0x79D DUP4 PUSH2 0xDB2 JUMP JUMPDEST SWAP1 SWAP2 SSTORE POP POP PUSH1 0x1 DUP3 ADD SLOAD PUSH1 0x3 DUP3 ADD DUP1 SLOAD PUSH1 0x1 PUSH1 0x1 PUSH1 0x40 SHL SUB PUSH5 0x100000000 SWAP1 SWAP4 DIV DUP4 AND SWAP3 PUSH0 SWAP2 PUSH2 0x7CF SWAP2 DUP6 SWAP2 AND PUSH2 0xFA7 JUMP JUMPDEST DUP3 SLOAD PUSH2 0x100 SWAP3 SWAP1 SWAP3 EXP PUSH1 0x1 PUSH1 0x1 PUSH1 0x40 SHL SUB DUP2 DUP2 MUL NOT SWAP1 SWAP4 AND SWAP2 DUP4 AND MUL OR SWAP1 SWAP2 SSTORE CALLER PUSH0 DUP2 DUP2 MSTORE PUSH1 0x3 PUSH1 0x20 SWAP1 DUP2 MSTORE PUSH1 0x40 DUP1 DUP4 KECCAK256 DUP12 DUP5 MSTORE DUP3 MSTORE SWAP2 DUP3 SWAP1 KECCAK256 DUP1 SLOAD PUSH1 0xFF NOT AND PUSH1 0x1 SWAP1 DUP2 OR SWAP1 SWAP2 SSTORE DUP8 ADD SLOAD SWAP2 MLOAD PUSH5 0x100000000 SWAP1 SWAP3 DIV SWAP1 SWAP4 AND DUP2 MSTORE DUP9 SWAP4 POP SWAP1 SWAP2 PUSH32 0x6C9C61B14224CCAF917717A764A2298FEB33FD104CF4B1F42EA1C72FADFE70FB SWAP2 ADD PUSH1 0x40 MLOAD DUP1 SWAP2 SUB SWAP1 LOG3 JUMPDEST POP POP JUMPDEST SWAP3 SWAP2 POP POP JUMP JUMPDEST PUSH0 DUP1 JUMPDEST PUSH1 0x1 SLOAD DUP2 LT ISZERO PUSH2 0x8A7 JUMPI PUSH0 DUP2 DUP2 MSTORE PUSH1 0x20 DUP2 SWAP1 MSTORE PUSH1 0x40 SWAP1 KECCAK256 PUSH1 0x1 ADD SLOAD PUSH1 0x1 PUSH1 0x60 SHL SWAP1 DIV PUSH1 0xFF AND ISZERO PUSH2 0x89F JUMPI DUP2 PUSH2 0x89B DUP2 PUSH2 0xDB2 JUMP JUMPDEST SWAP3 POP POP JUMPDEST PUSH1 0x1 ADD PUSH2 0x867 JUMP JUMPDEST POP SWAP1 JUMP JUMPDEST PUSH1 0x60 PUSH0 DUP1 PUSH0 PUSH1 0x1 SLOAD DUP6 LT PUSH2 0x8D2 JUMPI PUSH1 0x40 MLOAD PUSH4 0x3FA9E8B9 PUSH1 0xE1 SHL DUP2 MSTORE PUSH1 0x4 ADD PUSH1 0x40 MLOAD DUP1 SWAP2 SUB SWAP1 REVERT JUMPDEST PUSH0 DUP6 DUP2 MSTORE PUSH1 0x20 DUP2 DUP2 MSTORE PUSH1 0x40 DUP1 DUP4 KECCAK256 PUSH1 0x1 DUP2 ADD SLOAD CALLER DUP6 MSTORE PUSH1 0x3 DUP5 MSTORE DUP3 DUP6 KECCAK256 DUP11 DUP7 MSTORE SWAP1 SWAP4 MSTORE SWAP3 KECCAK256 SLOAD DUP3 SLOAD DUP4 SWAP3 PUSH1 0x1 PUSH1 0x1 PUSH1 0x40 SHL SUB PUSH5 0x100000000 DUP3 DIV AND SWAP3 PUSH1 0xFF PUSH1 0x1 PUSH1 0x60 SHL SWAP1 SWAP3 DIV DUP3 AND SWAP3 SWAP2 AND SWAP1 DUP5 SWAP1 PUSH2 0x929 SWAP1 PUSH2 0xD66 JUMP JUMPDEST DUP1 PUSH1 0x1F ADD PUSH1 0x20 DUP1 SWAP2 DIV MUL PUSH1 0x20 ADD PUSH1 0x40 MLOAD SWAP1 DUP2 ADD PUSH1 0x40 MSTORE DUP1 SWAP3 SWAP2 SWAP1 DUP2 DUP2 MSTORE PUSH1 0x20 ADD DUP3 DUP1 SLOAD PUSH2 0x955 SWAP1 PUSH2 0xD66 JUMP JUMPDEST DUP1 ISZERO PUSH2 0x9A0 JUMPI DUP1 PUSH1 0x1F LT PUSH2 0x977 JUMPI PUSH2 0x100 DUP1 DUP4 SLOAD DIV MUL DUP4 MSTORE SWAP2 PUSH1 0x20 ADD SWAP2 PUSH2 0x9A0 JUMP JUMPDEST DUP3 ADD SWAP2 SWAP1 PUSH0 MSTORE PUSH1 0x20 PUSH0 KECCAK256 SWAP1 JUMPDEST DUP2 SLOAD DUP2 MSTORE SWAP1 PUSH1 0x1 ADD SWAP1 PUSH1 0x20 ADD DUP1 DUP4 GT PUSH2 0x983 JUMPI DUP3 SWAP1 SUB PUSH1 0x1F AND DUP3 ADD SWAP2 JUMPDEST POP POP POP POP POP SWAP4 POP SWAP5 POP SWAP5 POP SWAP5 POP SWAP5 POP POP SWAP2 SWAP4 POP SWAP2 SWAP4 JUMP JUMPDEST PUSH1 0x1 PUSH1 0x1 PUSH1 0xA0 SHL SUB DUP2 AND PUSH0 SWAP1 DUP2 MSTORE PUSH1 0x2 PUSH1 0x20 MSTORE PUSH1 0x40 DUP2 KECCAK256 DUP2 SWAP1 DUP2 SWAP1 DUP2 SWAP1 DUP2 SWAP1 DUP2 PUSH2 0x9E4 PUSH3 0x15180 TIMESTAMP PUSH2 0xF39 JUMP JUMPDEST SWAP1 POP PUSH0 DUP2 DUP4 PUSH0 ADD SLOAD LT PUSH2 0x9FE JUMPI PUSH1 0x1 DUP4 ADD SLOAD PUSH1 0xFF AND PUSH2 0xA00 JUMP JUMPDEST PUSH0 JUMPDEST SWAP1 POP PUSH0 PUSH1 0x3 PUSH1 0xFF DUP4 AND LT ISZERO PUSH2 0xA1F JUMPI PUSH2 0xA1A DUP3 PUSH1 0x3 PUSH2 0xFCE JUMP JUMPDEST PUSH2 0xA21 JUMP JUMPDEST PUSH0 JUMPDEST SWAP1 POP PUSH0 PUSH2 0xA2F DUP5 PUSH1 0x1 PUSH2 0xF4C JUMP JUMPDEST PUSH2 0xA3C SWAP1 PUSH3 0x15180 PUSH2 0xF5F JUMP JUMPDEST SWAP1 POP PUSH0 PUSH2 0xA49 TIMESTAMP DUP4 PUSH2 0xF76 JUMP JUMPDEST PUSH1 0x2 DUP8 ADD SLOAD PUSH1 0x3 SWAP1 SWAP8 ADD SLOAD SWAP5 SWAP14 SWAP4 SWAP13 POP SWAP6 SWAP11 POP POP PUSH1 0x1 PUSH1 0x1 PUSH1 0x40 SHL SUB SWAP1 SWAP3 AND SWAP8 POP SWAP3 SWAP6 POP SWAP2 SWAP4 POP POP POP POP JUMP JUMPDEST PUSH1 0x1 PUSH1 0x1 PUSH1 0xA0 SHL SUB DUP2 AND PUSH0 SWAP1 DUP2 MSTORE PUSH1 0x2 PUSH1 0x20 MSTORE PUSH1 0x40 DUP2 KECCAK256 SWAP1 PUSH2 0xA9A PUSH3 0x15180 TIMESTAMP PUSH2 0xF39 JUMP JUMPDEST SWAP1 POP DUP1 DUP3 PUSH0 ADD SLOAD LT ISZERO PUSH2 0xAF5 JUMPI DUP1 DUP3 SSTORE PUSH1 0x1 DUP3 ADD DUP1 SLOAD PUSH1 0xFF NOT AND SWAP1 SSTORE PUSH1 0x40 MLOAD DUP2 DUP2 MSTORE PUSH1 0x1 PUSH1 0x1 PUSH1 0xA0 SHL SUB DUP5 AND SWAP1 PUSH32 0xE08BF5EC0359FF00FF7306D2A54240F6B4970E8ED71E637F2117AB9B246896F9 SWAP1 PUSH1 0x20 ADD PUSH1 0x40 MLOAD DUP1 SWAP2 SUB SWAP1 LOG2 JUMPDEST POP POP POP JUMP JUMPDEST PUSH0 PUSH1 0x20 DUP3 DUP5 SUB SLT ISZERO PUSH2 0xB0A JUMPI PUSH0 DUP1 REVERT JUMPDEST POP CALLDATALOAD SWAP2 SWAP1 POP JUMP JUMPDEST PUSH0 DUP2 MLOAD DUP1 DUP5 MSTORE PUSH0 JUMPDEST DUP2 DUP2 LT ISZERO PUSH2 0xB35 JUMPI PUSH1 0x20 DUP2 DUP6 ADD DUP2 ADD MLOAD DUP7 DUP4 ADD DUP3 ADD MSTORE ADD PUSH2 0xB19 JUMP JUMPDEST POP PUSH0 PUSH1 0x20 DUP3 DUP7 ADD ADD MSTORE PUSH1 0x20 PUSH1 0x1F NOT PUSH1 0x1F DUP4 ADD AND DUP6 ADD ADD SWAP2 POP POP SWAP3 SWAP2 POP POP JUMP JUMPDEST PUSH1 0xA0 DUP2 MSTORE PUSH0 PUSH2 0xB66 PUSH1 0xA0 DUP4 ADD DUP9 PUSH2 0xB11 JUMP JUMPDEST PUSH4 0xFFFFFFFF SWAP7 SWAP1 SWAP7 AND PUSH1 0x20 DUP4 ADD MSTORE POP PUSH1 0x1 PUSH1 0x1 PUSH1 0x40 SHL SUB SWAP4 SWAP1 SWAP4 AND PUSH1 0x40 DUP5 ADD MSTORE SWAP1 ISZERO ISZERO PUSH1 0x60 DUP4 ADD MSTORE PUSH1 0x80 SWAP1 SWAP2 ADD MSTORE SWAP2 SWAP1 POP JUMP JUMPDEST PUSH4 0x4E487B71 PUSH1 0xE0 SHL PUSH0 MSTORE PUSH1 0x41 PUSH1 0x4 MSTORE PUSH1 0x24 PUSH0 REVERT JUMPDEST DUP1 CALLDATALOAD PUSH4 0xFFFFFFFF DUP2 AND DUP2 EQ PUSH2 0xBC0 JUMPI PUSH0 DUP1 REVERT JUMPDEST SWAP2 SWAP1 POP JUMP JUMPDEST DUP1 CALLDATALOAD PUSH1 0x1 PUSH1 0x1 PUSH1 0x40 SHL SUB DUP2 AND DUP2 EQ PUSH2 0xBC0 JUMPI PUSH0 DUP1 REVERT JUMPDEST PUSH0 DUP1 PUSH0 PUSH1 0x60 DUP5 DUP7 SUB SLT ISZERO PUSH2 0xBED JUMPI PUSH0 DUP1 REVERT JUMPDEST DUP4 CALLDATALOAD PUSH1 0x1 PUSH1 0x1 PUSH1 0x40 SHL SUB DUP1 DUP3 GT ISZERO PUSH2 0xC03 JUMPI PUSH0 DUP1 REVERT JUMPDEST DUP2 DUP7 ADD SWAP2 POP DUP7 PUSH1 0x1F DUP4 ADD SLT PUSH2 0xC16 JUMPI PUSH0 DUP1 REVERT JUMPDEST DUP2 CALLDATALOAD DUP2 DUP2 GT ISZERO PUSH2 0xC28 JUMPI PUSH2 0xC28 PUSH2 0xB99 JUMP JUMPDEST PUSH1 0x40 MLOAD PUSH1 0x1F DUP3 ADD PUSH1 0x1F NOT SWAP1 DUP2 AND PUSH1 0x3F ADD AND DUP2 ADD SWAP1 DUP4 DUP3 GT DUP2 DUP4 LT OR ISZERO PUSH2 0xC50 JUMPI PUSH2 0xC50 PUSH2 0xB99 JUMP JUMPDEST DUP2 PUSH1 0x40 MSTORE DUP3 DUP2 MSTORE DUP10 PUSH1 0x20 DUP5 DUP8 ADD ADD GT ISZERO PUSH2 0xC68 JUMPI PUSH0 DUP1 REVERT JUMPDEST DUP3 PUSH1 0x20 DUP7 ADD PUSH1 0x20 DUP4 ADD CALLDATACOPY PUSH0 PUSH1 0x20 DUP5 DUP4 ADD ADD MSTORE DUP1 SWAP8 POP POP POP POP POP POP PUSH2 0xC8E PUSH1 0x20 DUP6 ADD PUSH2 0xBAD JUMP JUMPDEST SWAP2 POP PUSH2 0xC9C PUSH1 0x40 DUP6 ADD PUSH2 0xBC5 JUMP JUMPDEST SWAP1 POP SWAP3 POP SWAP3 POP SWAP3 JUMP JUMPDEST DUP1 CALLDATALOAD PUSH1 0x1 PUSH1 0x1 PUSH1 0xA0 SHL SUB DUP2 AND DUP2 EQ PUSH2 0xBC0 JUMPI PUSH0 DUP1 REVERT JUMPDEST PUSH0 PUSH1 0x20 DUP3 DUP5 SUB SLT ISZERO PUSH2 0xCCB JUMPI PUSH0 DUP1 REVERT JUMPDEST PUSH2 0xCD4 DUP3 PUSH2 0xCA5 JUMP JUMPDEST SWAP4 SWAP3 POP POP POP JUMP JUMPDEST PUSH0 DUP1 PUSH1 0x40 DUP4 DUP6 SUB SLT ISZERO PUSH2 0xCEC JUMPI PUSH0 DUP1 REVERT JUMPDEST DUP3 CALLDATALOAD SWAP2 POP PUSH2 0xCFC PUSH1 0x20 DUP5 ADD PUSH2 0xBAD JUMP JUMPDEST SWAP1 POP SWAP3 POP SWAP3 SWAP1 POP JUMP JUMPDEST PUSH1 0x80 DUP2 MSTORE PUSH0 PUSH2 0xD17 PUSH1 0x80 DUP4 ADD DUP8 PUSH2 0xB11 JUMP JUMPDEST PUSH1 0x1 PUSH1 0x1 PUSH1 0x40 SHL SUB SWAP6 SWAP1 SWAP6 AND PUSH1 0x20 DUP4 ADD MSTORE POP SWAP2 ISZERO ISZERO PUSH1 0x40 DUP4 ADD MSTORE ISZERO ISZERO PUSH1 0x60 SWAP1 SWAP2 ADD MSTORE SWAP2 SWAP1 POP JUMP JUMPDEST PUSH0 DUP1 PUSH1 0x40 DUP4 DUP6 SUB SLT ISZERO PUSH2 0xD4F JUMPI PUSH0 DUP1 REVERT JUMPDEST PUSH2 0xD58 DUP4 PUSH2 0xCA5 JUMP JUMPDEST SWAP5 PUSH1 0x20 SWAP4 SWAP1 SWAP4 ADD CALLDATALOAD SWAP4 POP POP POP JUMP JUMPDEST PUSH1 0x1 DUP2 DUP2 SHR SWAP1 DUP3 AND DUP1 PUSH2 0xD7A JUMPI PUSH1 0x7F DUP3 AND SWAP2 POP JUMPDEST PUSH1 0x20 DUP3 LT DUP2 SUB PUSH2 0xD98 JUMPI PUSH4 0x4E487B71 PUSH1 0xE0 SHL PUSH0 MSTORE PUSH1 0x22 PUSH1 0x4 MSTORE PUSH1 0x24 PUSH0 REVERT JUMPDEST POP SWAP2 SWAP1 POP JUMP JUMPDEST PUSH4 0x4E487B71 PUSH1 0xE0 SHL PUSH0 MSTORE PUSH1 0x11 PUSH1 0x4 MSTORE PUSH1 0x24 PUSH0 REVERT JUMPDEST PUSH0 PUSH1 0x1 DUP3 ADD PUSH2 0xDC3 JUMPI PUSH2 0xDC3 PUSH2 0xD9E JUMP JUMPDEST POP PUSH1 0x1 ADD SWAP1 JUMP JUMPDEST PUSH1 0x1F DUP3 GT ISZERO PUSH2 0xAF5 JUMPI DUP1 PUSH0 MSTORE PUSH1 0x20 PUSH0 KECCAK256 PUSH1 0x1F DUP5 ADD PUSH1 0x5 SHR DUP2 ADD PUSH1 0x20 DUP6 LT ISZERO PUSH2 0xDEF JUMPI POP DUP1 JUMPDEST PUSH1 0x1F DUP5 ADD PUSH1 0x5 SHR DUP3 ADD SWAP2 POP JUMPDEST DUP2 DUP2 LT ISZERO PUSH2 0xE0E JUMPI PUSH0 DUP2 SSTORE PUSH1 0x1 ADD PUSH2 0xDFB JUMP JUMPDEST POP POP POP POP POP JUMP JUMPDEST DUP2 MLOAD PUSH1 0x1 PUSH1 0x1 PUSH1 0x40 SHL SUB DUP2 GT ISZERO PUSH2 0xE2E JUMPI PUSH2 0xE2E PUSH2 0xB99 JUMP JUMPDEST PUSH2 0xE42 DUP2 PUSH2 0xE3C DUP5 SLOAD PUSH2 0xD66 JUMP JUMPDEST DUP5 PUSH2 0xDCA JUMP JUMPDEST PUSH1 0x20 DUP1 PUSH1 0x1F DUP4 GT PUSH1 0x1 DUP2 EQ PUSH2 0xE75 JUMPI PUSH0 DUP5 ISZERO PUSH2 0xE5E JUMPI POP DUP6 DUP4 ADD MLOAD JUMPDEST PUSH0 NOT PUSH1 0x3 DUP7 SWAP1 SHL SHR NOT AND PUSH1 0x1 DUP6 SWAP1 SHL OR DUP6 SSTORE PUSH2 0xECC JUMP JUMPDEST PUSH0 DUP6 DUP2 MSTORE PUSH1 0x20 DUP2 KECCAK256 PUSH1 0x1F NOT DUP7 AND SWAP2 JUMPDEST DUP3 DUP2 LT ISZERO PUSH2 0xEA3 JUMPI DUP9 DUP7 ADD MLOAD DUP3 SSTORE SWAP5 DUP5 ADD SWAP5 PUSH1 0x1 SWAP1 SWAP2 ADD SWAP1 DUP5 ADD PUSH2 0xE84 JUMP JUMPDEST POP DUP6 DUP3 LT ISZERO PUSH2 0xEC0 JUMPI DUP8 DUP6 ADD MLOAD PUSH0 NOT PUSH1 0x3 DUP9 SWAP1 SHL PUSH1 0xF8 AND SHR NOT AND DUP2 SSTORE JUMPDEST POP POP PUSH1 0x1 DUP5 PUSH1 0x1 SHL ADD DUP6 SSTORE JUMPDEST POP POP POP POP POP POP JUMP JUMPDEST PUSH1 0x40 DUP2 MSTORE PUSH0 PUSH2 0xEE6 PUSH1 0x40 DUP4 ADD DUP6 PUSH2 0xB11 JUMP JUMPDEST SWAP1 POP PUSH1 0x1 PUSH1 0x1 PUSH1 0x40 SHL SUB DUP4 AND PUSH1 0x20 DUP4 ADD MSTORE SWAP4 SWAP3 POP POP POP JUMP JUMPDEST PUSH4 0x4E487B71 PUSH1 0xE0 SHL PUSH0 MSTORE PUSH1 0x32 PUSH1 0x4 MSTORE PUSH1 0x24 PUSH0 REVERT JUMPDEST PUSH4 0x4E487B71 PUSH1 0xE0 SHL PUSH0 MSTORE PUSH1 0x12 PUSH1 0x4 MSTORE PUSH1 0x24 PUSH0 REVERT JUMPDEST PUSH0 DUP3 PUSH2 0xF34 JUMPI PUSH2 0xF34 PUSH2 0xF12 JUMP JUMPDEST POP MOD SWAP1 JUMP JUMPDEST PUSH0 DUP3 PUSH2 0xF47 JUMPI PUSH2 0xF47 PUSH2 0xF12 JUMP JUMPDEST POP DIV SWAP1 JUMP JUMPDEST DUP1 DUP3 ADD DUP1 DUP3 GT ISZERO PUSH2 0x85E JUMPI PUSH2 0x85E PUSH2 0xD9E JUMP JUMPDEST DUP1 DUP3 MUL DUP2 ISZERO DUP3 DUP3 DIV DUP5 EQ OR PUSH2 0x85E JUMPI PUSH2 0x85E PUSH2 0xD9E JUMP JUMPDEST DUP2 DUP2 SUB DUP2 DUP2 GT ISZERO PUSH2 0x85E JUMPI PUSH2 0x85E PUSH2 0xD9E JUMP JUMPDEST PUSH0 PUSH1 0xFF DUP3 AND PUSH1 0xFF DUP2 SUB PUSH2 0xF9E JUMPI PUSH2 0xF9E PUSH2 0xD9E JUMP JUMPDEST PUSH1 0x1 ADD SWAP3 SWAP2 POP POP JUMP JUMPDEST PUSH1 0x1 PUSH1 0x1 PUSH1 0x40 SHL SUB DUP2 DUP2 AND DUP4 DUP3 AND ADD SWAP1 DUP1 DUP3 GT ISZERO PUSH2 0xFC7 JUMPI PUSH2 0xFC7 PUSH2 0xD9E JUMP JUMPDEST POP SWAP3 SWAP2 POP POP JUMP JUMPDEST PUSH1 0xFF DUP3 DUP2 AND DUP3 DUP3 AND SUB SWAP1 DUP2 GT ISZERO PUSH2 0x85E JUMPI PUSH2 0x85E PUSH2 0xD9E JUMP INVALID LOG2 PUSH5 0x6970667358 0x22 SLT KECCAK256 LOG4 PREVRANDAO 0x2A SGT SELFDESTRUCT DUP9 0x21 STOP 0xC0 0xCA SWAP5 0xD2 PUSH16 0xC209A83F5BF9C385CAEC99165D8C6C64 0x4C PUSH29 0xB764736F6C63430008180033486F77206D616E7920736964657320646F PUSH6 0x732061206865 PUSH25 0x61676F6E20686176653F576861742069732074686520616E73 PUSH24 0x657220746F206C6966652C20756E6976657273652C20616E PUSH5 0x2065766572 PUSH26 0x7468696E673F0000000000000000000000000000000000000000 "},"methodIdentifiers":{"BASE_REWARD()":"22009af6","MAX_DAILY_ATTEMPTS()":"99755998","answerQuestion(uint256,uint32)":"a1468640","createQuestion(string,uint32,uint64)":"4e6e0f8b","getActiveQuestionsCount()":"c5bb3449","getPlayerProgress(address)":"f635c69b","getQuestion(uint256)":"db88176f","getRandomQuestion(address)":"529c9635","hasSolved(address,uint256)":"ead109c4","playerProgress(address)":"ec7eba05","questionCount()":"1468aa2c","questions(uint256)":"31b1b978"}}}}}