{"contracts/QuestionTreasureBoxTest.sol":{"QuestionTreasureBoxTest":{"abi":[{"inputs":[],"stateMutability":"nonpayable","type":"constructor"},{"inputs":[{"internalType":"uint256","name":"questionId","type":"uint256"}],"name":"AlreadySolved","type":"error"},{"inputs":[{"internalType":"uint8","name":"attemptsUsed","type":"uint8"},{"internalType":"uint256","name":"resetsIn","type":"uint256"}],"name":"DailyLimitReached","type":"error"},{"inputs":[],"name":"InvalidQuestionId","type":"error"},{"inputs":[{"internalType":"uint256","name":"questionId","type":"uint256"}],"name":"QuestionNotActive","type":"error"},{"anonymous":false,"inputs":[{"indexed":true,"internalType":"address","name":"player","type":"address"},{"indexed":false,"internalType":"uint256","name":"newDay","type":"uint256"}],"name":"DailyLimitReset","type":"event"},{"anonymous":false,"inputs":[{"indexed":true,"internalType":"address","name":"player","type":"address"},{"indexed":true,"internalType":"uint256","name":"questionId","type":"uint256"},{"indexed":false,"internalType":"bool","name":"success","type":"bool"}],"name":"QuestionAttempted","type":"event"},{"anonymous":false,"inputs":[{"indexed":true,"internalType":"uint256","name":"questionId","type":"uint256"},{"indexed":false,"internalType":"string","name":"questionText","type":"string"},{"indexed":false,"internalType":"uint64","name":"reward","type":"uint64"}],"name":"QuestionCreated","type":"event"},{"anonymous":false,"inputs":[{"indexed":true,"internalType":"address","name":"player","type":"address"},{"indexed":true,"internalType":"uint256","name":"questionId","type":"uint256"},{"indexed":false,"internalType":"uint64","name":"reward","type":"uint64"}],"name":"TreasureUnlocked","type":"event"},{"inputs":[],"name":"BASE_REWARD","outputs":[{"internalType":"uint64","name":"","type":"uint64"}],"stateMutability":"view","type":"function"},{"inputs":[],"name":"MAX_DAILY_ATTEMPTS","outputs":[{"internalType":"uint8","name":"","type":"uint8"}],"stateMutability":"view","type":"function"},{"inputs":[{"internalType":"uint256","name":"questionId","type":"uint256"},{"internalType":"uint32","name":"answer","type":"uint32"}],"name":"answerQuestion","outputs":[],"stateMutability":"nonpayable","type":"function"},{"inputs":[{"internalType":"string","name":"questionText","type":"string"},{"internalType":"uint32","name":"answer","type":"uint32"},{"internalType":"uint64","name":"reward","type":"uint64"}],"name":"createQuestion","outputs":[{"internalType":"uint256","name":"","type":"uint256"}],"stateMutability":"nonpayable","type":"function"},{"inputs":[],"name":"getActiveQuestionsCount","outputs":[{"internalType":"uint256","name":"count","type":"uint256"}],"stateMutability":"view","type":"function"},{"inputs":[{"internalType":"address","name":"player","type":"address"}],"name":"getPlayerProgress","outputs":[{"internalType":"uint8","name":"attemptsToday","type":"uint8"},{"internalType":"uint8","name":"remainingAttempts","type":"uint8"},{"internalType":"uint256","name":"totalSolved","type":"uint256"},{"internalType":"uint64","name":"totalRewards","type":"uint64"},{"internalType":"uint256","name":"timeUntilReset","type":"uint256"}],"stateMutability":"view","type":"function"},{"inputs":[{"internalType":"uint256","name":"questionId","type":"uint256"}],"name":"getQuestion","outputs":[{"internalType":"string","name":"questionText","type":"string"},{"internalType":"uint64","name":"reward","type":"uint64"},{"internalType":"bool","name":"isActive","type":"bool"},{"internalType":"bool","name":"playerSolved","type":"bool"}],"stateMutability":"view","type":"function"},{"inputs":[{"internalType":"address","name":"player","type":"address"}],"name":"getRandomQuestion","outputs":[{"internalType":"uint256","name":"","type":"uint256"}],"stateMutability":"view","type":"function"},{"inputs":[{"internalType":"address","name":"","type":"address"},{"internalType":"uint256","name":"","type":"uint256"}],"name":"hasSolved","outputs":[{"internalType":"bool","name":"","type":"bool"}],"stateMutability":"view","type":"function"},{"inputs":[{"internalType":"address","name":"","type":"address"}],"name":"playerProgress","outputs":[{"internalType":"uint256","name":"lastResetDay","type":"uint256"},{"internalType":"uint8","name":"attemptsToday","type":"uint8"},{"internalType":"uint256","name":"totalSolved","type":"uint256"},{"internalType":"uint64","name":"totalRewards","type":"uint64"}],"stateMutability":"view","type":"function"},{"inputs":[],"name":"questionCount","outputs":[{"internalType":"uint256","name":"","type":"uint256"}],"stateMutability":"view","type":"function"},{"inputs":[{"internalType":"uint256","name":"","type":"uint256"}],"name":"questions","outputs":[{"internalType":"string","name":"questionText","type":"string"},{"internalType":"uint32","name":"answer","type":"uint32"},{"internalType":"uint64","name":"reward","type":"uint64"},{"internalType":"bool","name":"isActive","type":"bool"},{"internalType":"uint256","name":"createdAt","type":"uint256"}],"stateMutability":"view","type":"function"}],"evm":{"bytecode":{"linkReferences":{},"object":"608060405234801562000010575f80fd5b506200001b62000021565b62000533565b60408051808201909152600e81526d576861742069732035202b20373f60901b60208201526200005590600c6064620001ea565b60408051808201909152600f81526e57686174206973203135202d20383f60881b60208201526200008a9060076064620001ea565b60408051808201909152600e81526d576861742069732036202a20343f60901b6020820152620000be9060186064620001ea565b60408051808201909152601881527f486f77206d616e79206461797320696e2061207765656b3f00000000000000006020820152620001019060076064620001ea565b60408051808201909152601a81527f486f77206d616e79206d6f6e74687320696e206120796561723f00000000000060208201526200014490600c6064620001ea565b6200016c6040518060600160405280602381526020016200155b6023913960066064620001ea565b60408051808201909152601a81527f576861742069732031302073717561726564202831305e32293f0000000000006020820152620001ba906064620001b481600262000321565b620001ea565b620001e86040518060600160405280603581526020016200157e60359139602a620001b46064600362000321565b565b600180545f9182620001fc836200034f565b909155506040805160a08101825286815263ffffffff86166020808301919091526001600160401b03861682840152600160608301524260808301525f848152908190529190912081519293509091819062000259908262000408565b506020820151600182018054604080860151606087015115156c010000000000000000000000000260ff60601b196001600160401b03909216640100000000026001600160601b031990941663ffffffff9096169590951792909217919091169290921790556080909201516002909101555181907fa298a7d6af5ba26fcde1da1533981c37fdb996ecc58211bac468dc21f4de6f7890620002ff9087908690620004d4565b60405180910390a250505050565b634e487b7160e01b5f52601160045260245ffd5b6001600160401b038181168382160280821691908281146200034757620003476200030d565b505092915050565b5f600182016200036357620003636200030d565b5060010190565b634e487b7160e01b5f52604160045260245ffd5b600181811c908216806200039357607f821691505b602082108103620003b257634e487b7160e01b5f52602260045260245ffd5b50919050565b601f8211156200040357805f5260205f20601f840160051c81016020851015620003df5750805b601f840160051c820191505b8181101562000400575f8155600101620003eb565b50505b505050565b81516001600160401b038111156200042457620004246200036a565b6200043c816200043584546200037e565b84620003b8565b602080601f83116001811462000472575f84156200045a5750858301515b5f19600386901b1c1916600185901b178555620004cc565b5f85815260208120601f198616915b82811015620004a25788860151825594840194600190910190840162000481565b5085821015620004c057878501515f19600388901b60f8161c191681555b505060018460011b0185555b505050505050565b604081525f83518060408401525f5b81811015620005025760208187018101516060868401015201620004e3565b505f60608285018101919091526001600160401b03949094166020840152601f01601f191690910190910192915050565b61101a80620005415f395ff3fe608060405234801561000f575f80fd5b50600436106100b1575f3560e01c8063a14686401161006e578063a146864014610155578063c5bb34491461016a578063db88176f14610172578063ead109c414610195578063ec7eba05146101d2578063f635c69b1461023f575f80fd5b80631468aa2c146100b557806322009af6146100d157806331b1b978146100f15780634e6e0f8b14610115578063529c963514610128578063997559981461013b575b5f80fd5b6100be60015481565b6040519081526020015b60405180910390f35b6100d9606481565b6040516001600160401b0390911681526020016100c8565b6101046100ff366004610af8565b610288565b6040516100c8959493929190610b52565b6100be610123366004610bd9565b610354565b6100be610136366004610cb9565b610472565b610143600381565b60405160ff90911681526020016100c8565b610168610163366004610cd9565b6105dd565b005b6100be610862565b610185610180366004610af8565b6108a9565b6040516100c89493929190610d03565b6101c26101a3366004610d3c565b600360209081525f928352604080842090915290825290205460ff1681565b60405190151581526020016100c8565b6102146101e0366004610cb9565b600260208190525f91825260409091208054600182015492820154600390920154909260ff1691906001600160401b031684565b6040805194855260ff9093166020850152918301526001600160401b031660608201526080016100c8565b61025261024d366004610cb9565b6109b5565b6040805160ff9687168152959094166020860152928401919091526001600160401b03166060830152608082015260a0016100c8565b5f602081905290815260409020805481906102a290610d64565b80601f01602080910402602001604051908101604052809291908181526020018280546102ce90610d64565b80156103195780601f106102f057610100808354040283529160200191610319565b820191905f5260205f20905b8154815290600101906020018083116102fc57829003601f168201915b505050506001830154600290930154919263ffffffff81169264010000000082046001600160401b03169250600160601b90910460ff169085565b600180545f918291908261036783610db0565b909155506040805160a08101825287815263ffffffff87166020808301919091526001600160401b03871682840152600160608301524260808301525f84815290819052919091208151929350909181906103c29082610e0c565b50602082015160018201805460408086015160608701511515600160601b0260ff60601b196001600160401b03909216640100000000026bffffffffffffffffffffffff1990941663ffffffff9096169590951792909217919091169290921790556080909201516002909101555181907fa298a7d6af5ba26fcde1da1533981c37fdb996ecc58211bac468dc21f4de6f78906104629088908790610ecb565b60405180910390a2949350505050565b5f806001546001600160401b0381111561048e5761048e610b97565b6040519080825280602002602001820160405280156104b7578160200160208202803683370190505b5090505f805b60015481101561054a575f81815260208190526040902060010154600160601b900460ff16801561051157506001600160a01b0385165f90815260036020908152604080832084845290915290205460ff16155b15610542578083838151811061052957610529610ef5565b60209081029190910101528161053e81610db0565b9250505b6001016104bd565b50805f0361055b57505f9392505050565b5f8142448760405160200161059593929190928352602083019190915260601b6bffffffffffffffffffffffff1916604082015260540190565b604051602081830303815290604052805190602001205f1c6105b79190610f1d565b90508281815181106105cb576105cb610ef5565b60200260200101519350505050919050565b60015482106105ff57604051633fa9e8b960e11b815260040160405180910390fd5b5f8281526020819052604090206001810154600160601b900460ff166106405760405163318ddc5b60e21b8152600481018490526024015b60405180910390fd5b335f90815260036020908152604080832086845290915290205460ff161561067e57604051632905f90960e21b815260048101849052602401610637565b61068733610a73565b335f9081526002602052604090206001810154600360ff9091161061070a575f6106b46201518042610f30565b90505f6106c2826001610f43565b6106cf9062015180610f5c565b90505f6106dc4283610f73565b6001850154604051632e8dd65d60e11b815260ff909116600482015260248101829052909150604401610637565b60018101805460ff16905f61071e83610f86565b825460ff9182166101009390930a928302919092021990911617905550600182015460405163ffffffff85811692169190911480825290859033907fd4f86dae1cde85d0378f4f83cb85b55a7b9106609bb788295ef6928e9aa9aff09060200160405180910390a3801561085b57600282018054905f61079d83610db0565b909155505060018301546003830180546001600160401b036401000000009093048316925f916107cf91859116610fa4565b82546101009290920a6001600160401b03818102199093169183160217909155335f8181526003602090815260408083208b8452825291829020805460ff191660019081179091558801549151640100000000909204909316815288935090917f6c9c61b14224ccaf917717a764a2298feb33fd104cf4b1f42ea1c72fadfe70fb910160405180910390a35b5050505050565b5f805b6001548110156108a5575f81815260208190526040902060010154600160601b900460ff161561089d578161089981610db0565b9250505b600101610865565b5090565b60605f805f60015485106108d057604051633fa9e8b960e11b815260040160405180910390fd5b5f858152602081815260408083206001810154338552600384528285208a8652909352922054825483926001600160401b036401000000008204169260ff600160601b909204821692911690849061092790610d64565b80601f016020809104026020016040519081016040528092919081815260200182805461095390610d64565b801561099e5780601f106109755761010080835404028352916020019161099e565b820191905f5260205f20905b81548152906001019060200180831161098157829003601f168201915b505050505093509450945094509450509193509193565b6001600160a01b0381165f9081526002602052604081208190819081908190816109e26201518042610f30565b90505f81835f0154106109fc57600183015460ff166109fe565b5f5b90505f600360ff83161015610a1d57610a18826003610fcb565b610a1f565b5f5b90505f610a2d846001610f43565b610a3a9062015180610f5c565b90505f610a474283610f73565b6002870154600390970154949d939c50959a50506001600160401b039092169750929550919350505050565b6001600160a01b0381165f90815260026020526040812090610a986201518042610f30565b905080825f01541015610af35780825560018201805460ff191690556040518181526001600160a01b038416907fe08bf5ec0359ff00ff7306d2a54240f6b4970e8ed71e637f2117ab9b246896f99060200160405180910390a25b505050565b5f60208284031215610b08575f80fd5b5035919050565b5f81518084525f5b81811015610b3357602081850181015186830182015201610b17565b505f602082860101526020601f19601f83011685010191505092915050565b60a081525f610b6460a0830188610b0f565b63ffffffff969096166020830152506001600160401b039390931660408401529015156060830152608090910152919050565b634e487b7160e01b5f52604160045260245ffd5b803563ffffffff81168114610bbe575f80fd5b919050565b80356001600160401b0381168114610bbe575f80fd5b5f805f60608486031215610beb575f80fd5b83356001600160401b0380821115610c01575f80fd5b818601915086601f830112610c14575f80fd5b813581811115610c2657610c26610b97565b604051601f8201601f19908116603f01168101908382118183101715610c4e57610c4e610b97565b81604052828152896020848701011115610c66575f80fd5b826020860160208301375f602084830101528097505050505050610c8c60208501610bab565b9150610c9a60408501610bc3565b90509250925092565b80356001600160a01b0381168114610bbe575f80fd5b5f60208284031215610cc9575f80fd5b610cd282610ca3565b9392505050565b5f8060408385031215610cea575f80fd5b82359150610cfa60208401610bab565b90509250929050565b608081525f610d156080830187610b0f565b6001600160401b039590951660208301525091151560408301521515606090910152919050565b5f8060408385031215610d4d575f80fd5b610d5683610ca3565b946020939093013593505050565b600181811c90821680610d7857607f821691505b602082108103610d9657634e487b7160e01b5f52602260045260245ffd5b50919050565b634e487b7160e01b5f52601160045260245ffd5b5f60018201610dc157610dc1610d9c565b5060010190565b601f821115610af357805f5260205f20601f840160051c81016020851015610ded5750805b601f840160051c820191505b8181101561085b575f8155600101610df9565b81516001600160401b03811115610e2557610e25610b97565b610e3981610e338454610d64565b84610dc8565b602080601f831160018114610e6c575f8415610e555750858301515b5f19600386901b1c1916600185901b178555610ec3565b5f85815260208120601f198616915b82811015610e9a57888601518255948401946001909101908401610e7b565b5085821015610eb757878501515f19600388901b60f8161c191681555b505060018460011b0185555b505050505050565b604081525f610edd6040830185610b0f565b90506001600160401b03831660208301529392505050565b634e487b7160e01b5f52603260045260245ffd5b634e487b7160e01b5f52601260045260245ffd5b5f82610f2b57610f2b610f09565b500690565b5f82610f3e57610f3e610f09565b500490565b80820180821115610f5657610f56610d9c565b92915050565b8082028115828204841417610f5657610f56610d9c565b81810381811115610f5657610f56610d9c565b5f60ff821660ff8103610f9b57610f9b610d9c565b60010192915050565b6001600160401b03818116838216019080821115610fc457610fc4610d9c565b5092915050565b60ff8281168282160390811115610f5657610f56610d9c56fea264697066735822122083b94c0c179522777540c5064fcc98b1b41295cdbda3033c96d6710eeb553e0164736f6c63430008180033486f77206d616e7920736964657320646f657320612068657861676f6e20686176653f576861742069732074686520616e7377657220746f206c6966652c20756e6976657273652c20616e642065766572797468696e673f","opcodes":"PUSH1 0x80 PUSH1 0x40 MSTORE CALLVALUE DUP1 ISZERO PUSH3 0x10 JUMPI PUSH0 DUP1 REVERT JUMPDEST POP PUSH3 0x1B PUSH3 0x21 JUMP JUMPDEST PUSH3 0x533 JUMP JUMPDEST PUSH1 0x40 DUP1 MLOAD DUP1 DUP3 ADD SWAP1 SWAP2 MSTORE PUSH1 0xE DUP2 MSTORE PUSH14 0x576861742069732035202B20373F PUSH1 0x90 SHL PUSH1 0x20 DUP3 ADD MSTORE PUSH3 0x55 SWAP1 PUSH1 0xC PUSH1 0x64 PUSH3 0x1EA JUMP JUMPDEST PUSH1 0x40 DUP1 MLOAD DUP1 DUP3 ADD SWAP1 SWAP2 MSTORE PUSH1 0xF DUP2 MSTORE PUSH15 0x57686174206973203135202D20383F PUSH1 0x88 SHL PUSH1 0x20 DUP3 ADD MSTORE PUSH3 0x8A SWAP1 PUSH1 0x7 PUSH1 0x64 PUSH3 0x1EA JUMP JUMPDEST PUSH1 0x40 DUP1 MLOAD DUP1 DUP3 ADD SWAP1 SWAP2 MSTORE PUSH1 0xE DUP2 MSTORE PUSH14 0x576861742069732036202A20343F PUSH1 0x90 SHL PUSH1 0x20 DUP3 ADD MSTORE PUSH3 0xBE SWAP1 PUSH1 0x18 PUSH1 0x64 PUSH3 0x1EA JUMP JUMPDEST PUSH1 0x40 DUP1 MLOAD DUP1 DUP3 ADD SWAP1 SWAP2 MSTORE PUSH1 0x18 DUP2 MSTORE PUSH32 0x486F77206D616E79206461797320696E2061207765656B3F0000000000000000 PUSH1 0x20 DUP3 ADD MSTORE PUSH3 0x101 SWAP1 PUSH1 0x7 PUSH1 0x64 PUSH3 0x1EA JUMP JUMPDEST PUSH1 0x40 DUP1 MLOAD DUP1 DUP3 ADD SWAP1 SWAP2 MSTORE PUSH1 0x1A DUP2 MSTORE PUSH32 0x486F77206D616E79206D6F6E74687320696E206120796561723F000000000000 PUSH1 0x20 DUP3 ADD MSTORE PUSH3 0x144 SWAP1 PUSH1 0xC PUSH1 0x64 PUSH3 0x1EA JUMP JUMPDEST PUSH3 0x16C PUSH1 0x40 MLOAD DUP1 PUSH1 0x60 ADD PUSH1 0x40 MSTORE DUP1 PUSH1 0x23 DUP2 MSTORE PUSH1 0x20 ADD PUSH3 0x155B PUSH1 0x23 SWAP2 CODECOPY PUSH1 0x6 PUSH1 0x64 PUSH3 0x1EA JUMP JUMPDEST PUSH1 0x40 DUP1 MLOAD DUP1 DUP3 ADD SWAP1 SWAP2 MSTORE PUSH1 0x1A DUP2 MSTORE PUSH32 0x576861742069732031302073717561726564202831305E32293F000000000000 PUSH1 0x20 DUP3 ADD MSTORE PUSH3 0x1BA SWAP1 PUSH1 0x64 PUSH3 0x1B4 DUP2 PUSH1 0x2 PUSH3 0x321 JUMP JUMPDEST PUSH3 0x1EA JUMP JUMPDEST PUSH3 0x1E8 PUSH1 0x40 MLOAD DUP1 PUSH1 0x60 ADD PUSH1 0x40 MSTORE DUP1 PUSH1 0x35 DUP2 MSTORE PUSH1 0x20 ADD PUSH3 0x157E PUSH1 0x35 SWAP2 CODECOPY PUSH1 0x2A PUSH3 0x1B4 PUSH1 0x64 PUSH1 0x3 PUSH3 0x321 JUMP JUMPDEST JUMP JUMPDEST PUSH1 0x1 DUP1 SLOAD PUSH0 SWAP2 DUP3 PUSH3 0x1FC DUP4 PUSH3 0x34F JUMP JUMPDEST SWAP1 SWAP2 SSTORE POP PUSH1 0x40 DUP1 MLOAD PUSH1 0xA0 DUP2 ADD DUP3 MSTORE DUP7 DUP2 MSTORE PUSH4 0xFFFFFFFF DUP7 AND PUSH1 0x20 DUP1 DUP4 ADD SWAP2 SWAP1 SWAP2 MSTORE PUSH1 0x1 PUSH1 0x1 PUSH1 0x40 SHL SUB DUP7 AND DUP3 DUP5 ADD MSTORE PUSH1 0x1 PUSH1 0x60 DUP4 ADD MSTORE TIMESTAMP PUSH1 0x80 DUP4 ADD MSTORE PUSH0 DUP5 DUP2 MSTORE SWAP1 DUP2 SWAP1 MSTORE SWAP2 SWAP1 SWAP2 KECCAK256 DUP2 MLOAD SWAP3 SWAP4 POP SWAP1 SWAP2 DUP2 SWAP1 PUSH3 0x259 SWAP1 DUP3 PUSH3 0x408 JUMP JUMPDEST POP PUSH1 0x20 DUP3 ADD MLOAD PUSH1 0x1 DUP3 ADD DUP1 SLOAD PUSH1 0x40 DUP1 DUP7 ADD MLOAD PUSH1 0x60 DUP8 ADD MLOAD ISZERO ISZERO PUSH13 0x1000000000000000000000000 MUL PUSH1 0xFF PUSH1 0x60 SHL NOT PUSH1 0x1 PUSH1 0x1 PUSH1 0x40 SHL SUB SWAP1 SWAP3 AND PUSH5 0x100000000 MUL PUSH1 0x1 PUSH1 0x1 PUSH1 0x60 SHL SUB NOT SWAP1 SWAP5 AND PUSH4 0xFFFFFFFF SWAP1 SWAP7 AND SWAP6 SWAP1 SWAP6 OR SWAP3 SWAP1 SWAP3 OR SWAP2 SWAP1 SWAP2 AND SWAP3 SWAP1 SWAP3 OR SWAP1 SSTORE PUSH1 0x80 SWAP1 SWAP3 ADD MLOAD PUSH1 0x2 SWAP1 SWAP2 ADD SSTORE MLOAD DUP2 SWAP1 PUSH32 0xA298A7D6AF5BA26FCDE1DA1533981C37FDB996ECC58211BAC468DC21F4DE6F78 SWAP1 PUSH3 0x2FF SWAP1 DUP8 SWAP1 DUP7 SWAP1 PUSH3 0x4D4 JUMP JUMPDEST PUSH1 0x40 MLOAD DUP1 SWAP2 SUB SWAP1 LOG2 POP POP POP POP JUMP JUMPDEST PUSH4 0x4E487B71 PUSH1 0xE0 SHL PUSH0 MSTORE PUSH1 0x11 PUSH1 0x4 MSTORE PUSH1 0x24 PUSH0 REVERT JUMPDEST PUSH1 0x1 PUSH1 0x1 PUSH1 0x40 SHL SUB DUP2 DUP2 AND DUP4 DUP3 AND MUL DUP1 DUP3 AND SWAP2 SWAP1 DUP3 DUP2 EQ PUSH3 0x347 JUMPI PUSH3 0x347 PUSH3 0x30D JUMP JUMPDEST POP POP SWAP3 SWAP2 POP POP JUMP JUMPDEST PUSH0 PUSH1 0x1 DUP3 ADD PUSH3 0x363 JUMPI PUSH3 0x363 PUSH3 0x30D JUMP JUMPDEST POP PUSH1 0x1 ADD SWAP1 JUMP JUMPDEST PUSH4 0x4E487B71 PUSH1 0xE0 SHL PUSH0 MSTORE PUSH1 0x41 PUSH1 0x4 MSTORE PUSH1 0x24 PUSH0 REVERT JUMPDEST PUSH1 0x1 DUP2 DUP2 SHR SWAP1 DUP3 AND DUP1 PUSH3 0x393 JUMPI PUSH1 0x7F DUP3 AND SWAP2 POP JUMPDEST PUSH1 0x20 DUP3 LT DUP2 SUB PUSH3 0x3B2 JUMPI PUSH4 0x4E487B71 PUSH1 0xE0 SHL PUSH0 MSTORE PUSH1 0x22 PUSH1 0x4 MSTORE PUSH1 0x24 PUSH0 REVERT JUMPDEST POP SWAP2 SWAP1 POP JUMP JUMPDEST PUSH1 0x1F DUP3 GT ISZERO PUSH3 0x403 JUMPI DUP1 PUSH0 MSTORE PUSH1 0x20 PUSH0 KECCAK256 PUSH1 0x1F DUP5 ADD PUSH1 0x5 SHR DUP2 ADD PUSH1 0x20 DUP6 LT ISZERO PUSH3 0x3DF JUMPI POP DUP1 JUMPDEST PUSH1 0x1F DUP5 ADD PUSH1 0x5 SHR DUP3 ADD SWAP2 POP JUMPDEST DUP2 DUP2 LT ISZERO PUSH3 0x400 JUMPI PUSH0 DUP2 SSTORE PUSH1 0x1 ADD PUSH3 0x3EB JUMP JUMPDEST POP POP JUMPDEST POP POP POP JUMP JUMPDEST DUP2 MLOAD PUSH1 0x1 PUSH1 0x1 PUSH1 0x40 SHL SUB DUP2 GT ISZERO PUSH3 0x424 JUMPI PUSH3 0x424 PUSH3 0x36A JUMP JUMPDEST PUSH3 0x43C DUP2 PUSH3 0x435 DUP5 SLOAD PUSH3 0x37E JUMP JUMPDEST DUP5 PUSH3 0x3B8 JUMP JUMPDEST PUSH1 0x20 DUP1 PUSH1 0x1F DUP4 GT PUSH1 0x1 DUP2 EQ PUSH3 0x472 JUMPI PUSH0 DUP5 ISZERO PUSH3 0x45A JUMPI POP DUP6 DUP4 ADD MLOAD JUMPDEST PUSH0 NOT PUSH1 0x3 DUP7 SWAP1 SHL SHR NOT AND PUSH1 0x1 DUP6 SWAP1 SHL OR DUP6 SSTORE PUSH3 0x4CC JUMP JUMPDEST PUSH0 DUP6 DUP2 MSTORE PUSH1 0x20 DUP2 KECCAK256 PUSH1 0x1F NOT DUP7 AND SWAP2 JUMPDEST DUP3 DUP2 LT ISZERO PUSH3 0x4A2 JUMPI DUP9 DUP7 ADD MLOAD DUP3 SSTORE SWAP5 DUP5 ADD SWAP5 PUSH1 0x1 SWAP1 SWAP2 ADD SWAP1 DUP5 ADD PUSH3 0x481 JUMP JUMPDEST POP DUP6 DUP3 LT ISZERO PUSH3 0x4C0 JUMPI DUP8 DUP6 ADD MLOAD PUSH0 NOT PUSH1 0x3 DUP9 SWAP1 SHL PUSH1 0xF8 AND SHR NOT AND DUP2 SSTORE JUMPDEST POP POP PUSH1 0x1 DUP5 PUSH1 0x1 SHL ADD DUP6 SSTORE JUMPDEST POP POP POP POP POP POP JUMP JUMPDEST PUSH1 0x40 DUP2 MSTORE PUSH0 DUP4 MLOAD DUP1 PUSH1 0x40 DUP5 ADD MSTORE PUSH0 JUMPDEST DUP2 DUP2 LT ISZERO PUSH3 0x502 JUMPI PUSH1 0x20 DUP2 DUP8 ADD DUP2 ADD MLOAD PUSH1 0x60 DUP7 DUP5 ADD ADD MSTORE ADD PUSH3 0x4E3 JUMP JUMPDEST POP PUSH0 PUSH1 0x60 DUP3 DUP6 ADD DUP2 ADD SWAP2 SWAP1 SWAP2 MSTORE PUSH1 0x1 PUSH1 0x1 PUSH1 0x40 SHL SUB SWAP5 SWAP1 SWAP5 AND PUSH1 0x20 DUP5 ADD MSTORE PUSH1 0x1F ADD PUSH1 0x1F NOT AND SWAP1 SWAP2 ADD SWAP1 SWAP2 ADD SWAP3 SWAP2 POP POP JUMP JUMPDEST PUSH2 0x101A DUP1 PUSH3 0x541 PUSH0 CODECOPY PUSH0 RETURN INVALID PUSH1 0x80 PUSH1 0x40 MSTORE CALLVALUE DUP1 ISZERO PUSH2 0xF JUMPI PUSH0 DUP1 REVERT JUMPDEST POP PUSH1 0x4 CALLDATASIZE LT PUSH2 0xB1 JUMPI PUSH0 CALLDATALOAD PUSH1 0xE0 SHR DUP1 PUSH4 0xA1468640 GT PUSH2 0x6E JUMPI DUP1 PUSH4 0xA1468640 EQ PUSH2 0x155 JUMPI DUP1 PUSH4 0xC5BB3449 EQ PUSH2 0x16A JUMPI DUP1 PUSH4 0xDB88176F EQ PUSH2 0x172 JUMPI DUP1 PUSH4 0xEAD109C4 EQ PUSH2 0x195 JUMPI DUP1 PUSH4 0xEC7EBA05 EQ PUSH2 0x1D2 JUMPI DUP1 PUSH4 0xF635C69B EQ PUSH2 0x23F JUMPI PUSH0 DUP1 REVERT JUMPDEST DUP1 PUSH4 0x1468AA2C EQ PUSH2 0xB5 JUMPI DUP1 PUSH4 0x22009AF6 EQ PUSH2 0xD1 JUMPI DUP1 PUSH4 0x31B1B978 EQ PUSH2 0xF1 JUMPI DUP1 PUSH4 0x4E6E0F8B EQ PUSH2 0x115 JUMPI DUP1 PUSH4 0x529C9635 EQ PUSH2 0x128 JUMPI DUP1 PUSH4 0x99755998 EQ PUSH2 0x13B JUMPI JUMPDEST PUSH0 DUP1 REVERT JUMPDEST PUSH2 0xBE PUSH1 0x1 SLOAD DUP2 JUMP JUMPDEST PUSH1 0x40 MLOAD SWAP1 DUP2 MSTORE PUSH1 0x20 ADD JUMPDEST PUSH1 0x40 MLOAD DUP1 SWAP2 SUB SWAP1 RETURN JUMPDEST PUSH2 0xD9 PUSH1 0x64 DUP2 JUMP JUMPDEST PUSH1 0x40 MLOAD PUSH1 0x1 PUSH1 0x1 PUSH1 0x40 SHL SUB SWAP1 SWAP2 AND DUP2 MSTORE PUSH1 0x20 ADD PUSH2 0xC8 JUMP JUMPDEST PUSH2 0x104 PUSH2 0xFF CALLDATASIZE PUSH1 0x4 PUSH2 0xAF8 JUMP JUMPDEST PUSH2 0x288 JUMP JUMPDEST PUSH1 0x40 MLOAD PUSH2 0xC8 SWAP6 SWAP5 SWAP4 SWAP3 SWAP2 SWAP1 PUSH2 0xB52 JUMP JUMPDEST PUSH2 0xBE PUSH2 0x123 CALLDATASIZE PUSH1 0x4 PUSH2 0xBD9 JUMP JUMPDEST PUSH2 0x354 JUMP JUMPDEST PUSH2 0xBE PUSH2 0x136 CALLDATASIZE PUSH1 0x4 PUSH2 0xCB9 JUMP JUMPDEST PUSH2 0x472 JUMP JUMPDEST PUSH2 0x143 PUSH1 0x3 DUP2 JUMP JUMPDEST PUSH1 0x40 MLOAD PUSH1 0xFF SWAP1 SWAP2 AND DUP2 MSTORE PUSH1 0x20 ADD PUSH2 0xC8 JUMP JUMPDEST PUSH2 0x168 PUSH2 0x163 CALLDATASIZE PUSH1 0x4 PUSH2 0xCD9 JUMP JUMPDEST PUSH2 0x5DD JUMP JUMPDEST STOP JUMPDEST PUSH2 0xBE PUSH2 0x862 JUMP JUMPDEST PUSH2 0x185 PUSH2 0x180 CALLDATASIZE PUSH1 0x4 PUSH2 0xAF8 JUMP JUMPDEST PUSH2 0x8A9 JUMP JUMPDEST PUSH1 0x40 MLOAD PUSH2 0xC8 SWAP5 SWAP4 SWAP3 SWAP2 SWAP1 PUSH2 0xD03 JUMP JUMPDEST PUSH2 0x1C2 PUSH2 0x1A3 CALLDATASIZE PUSH1 0x4 PUSH2 0xD3C JUMP JUMPDEST PUSH1 0x3 PUSH1 0x20 SWAP1 DUP2 MSTORE PUSH0 SWAP3 DUP4 MSTORE PUSH1 0x40 DUP1 DUP5 KECCAK256 SWAP1 SWAP2 MSTORE SWAP1 DUP3 MSTORE SWAP1 KECCAK256 SLOAD PUSH1 0xFF AND DUP2 JUMP JUMPDEST PUSH1 0x40 MLOAD SWAP1 ISZERO ISZERO DUP2 MSTORE PUSH1 0x20 ADD PUSH2 0xC8 JUMP JUMPDEST PUSH2 0x214 PUSH2 0x1E0 CALLDATASIZE PUSH1 0x4 PUSH2 0xCB9 JUMP JUMPDEST PUSH1 0x2 PUSH1 0x20 DUP2 SWAP1 MSTORE PUSH0 SWAP2 DUP3 MSTORE PUSH1 0x40 SWAP1 SWAP2 KECCAK256 DUP1 SLOAD PUSH1 0x1 DUP3 ADD SLOAD SWAP3 DUP3 ADD SLOAD PUSH1 0x3 SWAP1 SWAP3 ADD SLOAD SWAP1 SWAP3 PUSH1 0xFF AND SWAP2 SWAP1 PUSH1 0x1 PUSH1 0x1 PUSH1 0x40 SHL SUB AND DUP5 JUMP JUMPDEST PUSH1 0x40 DUP1 MLOAD SWAP5 DUP6 MSTORE PUSH1 0xFF SWAP1 SWAP4 AND PUSH1 0x20 DUP6 ADD MSTORE SWAP2 DUP4 ADD MSTORE PUSH1 0x1 PUSH1 0x1 PUSH1 0x40 SHL SUB AND PUSH1 0x60 DUP3 ADD MSTORE PUSH1 0x80 ADD PUSH2 0xC8 JUMP JUMPDEST PUSH2 0x252 PUSH2 0x24D CALLDATASIZE PUSH1 0x4 PUSH2 0xCB9 JUMP JUMPDEST PUSH2 0x9B5 JUMP JUMPDEST PUSH1 0x40 DUP1 MLOAD PUSH1 0xFF SWAP7 DUP8 AND DUP2 MSTORE SWAP6 SWAP1 SWAP5 AND PUSH1 0x20 DUP7 ADD MSTORE SWAP3 DUP5 ADD SWAP2 SWAP1 SWAP2 MSTORE PUSH1 0x1 PUSH1 0x1 PUSH1 0x40 SHL SUB AND PUSH1 0x60 DUP4 ADD MSTORE PUSH1 0x80 DUP3 ADD MSTORE PUSH1 0xA0 ADD PUSH2 0xC8 JUMP JUMPDEST PUSH0 PUSH1 0x20 DUP2 SWAP1 MSTORE SWAP1 DUP2 MSTORE PUSH1 0x40 SWAP1 KECCAK256 DUP1 SLOAD DUP2 SWAP1 PUSH2 0x2A2 SWAP1 PUSH2 0xD64 JUMP JUMPDEST DUP1 PUSH1 0x1F ADD PUSH1 0x20 DUP1 SWAP2 DIV MUL PUSH1 0x20 ADD PUSH1 0x40 MLOAD SWAP1 DUP2 ADD PUSH1 0x40 MSTORE DUP1 SWAP3 SWAP2 SWAP1 DUP2 DUP2 MSTORE PUSH1 0x20 ADD DUP3 DUP1 SLOAD PUSH2 0x2CE SWAP1 PUSH2 0xD64 JUMP JUMPDEST DUP1 ISZERO PUSH2 0x319 JUMPI DUP1 PUSH1 0x1F LT PUSH2 0x2F0 JUMPI PUSH2 0x100 DUP1 DUP4 SLOAD DIV MUL DUP4 MSTORE SWAP2 PUSH1 0x20 ADD SWAP2 PUSH2 0x319 JUMP JUMPDEST DUP3 ADD SWAP2 SWAP1 PUSH0 MSTORE PUSH1 0x20 PUSH0 KECCAK256 SWAP1 JUMPDEST DUP2 SLOAD DUP2 MSTORE SWAP1 PUSH1 0x1 ADD SWAP1 PUSH1 0x20 ADD DUP1 DUP4 GT PUSH2 0x2FC JUMPI DUP3 SWAP1 SUB PUSH1 0x1F AND DUP3 ADD SWAP2 JUMPDEST POP POP POP POP PUSH1 0x1 DUP4 ADD SLOAD PUSH1 0x2 SWAP1 SWAP4 ADD SLOAD SWAP2 SWAP3 PUSH4 0xFFFFFFFF DUP2 AND SWAP3 PUSH5 0x100000000 DUP3 DIV PUSH1 0x1 PUSH1 0x1 PUSH1 0x40 SHL SUB AND SWAP3 POP PUSH1 0x1 PUSH1 0x60 SHL SWAP1 SWAP2 DIV PUSH1 0xFF AND SWAP1 DUP6 JUMP JUMPDEST PUSH1 0x1 DUP1 SLOAD PUSH0 SWAP2 DUP3 SWAP2 SWAP1 DUP3 PUSH2 0x367 DUP4 PUSH2 0xDB0 JUMP JUMPDEST SWAP1 SWAP2 SSTORE POP PUSH1 0x40 DUP1 MLOAD PUSH1 0xA0 DUP2 ADD DUP3 MSTORE DUP8 DUP2 MSTORE PUSH4 0xFFFFFFFF DUP8 AND PUSH1 0x20 DUP1 DUP4 ADD SWAP2 SWAP1 SWAP2 MSTORE PUSH1 0x1 PUSH1 0x1 PUSH1 0x40 SHL SUB DUP8 AND DUP3 DUP5 ADD MSTORE PUSH1 0x1 PUSH1 0x60 DUP4 ADD MSTORE TIMESTAMP PUSH1 0x80 DUP4 ADD MSTORE PUSH0 DUP5 DUP2 MSTORE SWAP1 DUP2 SWAP1 MSTORE SWAP2 SWAP1 SWAP2 KECCAK256 DUP2 MLOAD SWAP3 SWAP4 POP SWAP1 SWAP2 DUP2 SWAP1 PUSH2 0x3C2 SWAP1 DUP3 PUSH2 0xE0C JUMP JUMPDEST POP PUSH1 0x20 DUP3 ADD MLOAD PUSH1 0x1 DUP3 ADD DUP1 SLOAD PUSH1 0x40 DUP1 DUP7 ADD MLOAD PUSH1 0x60 DUP8 ADD MLOAD ISZERO ISZERO PUSH1 0x1 PUSH1 0x60 SHL MUL PUSH1 0xFF PUSH1 0x60 SHL NOT PUSH1 0x1 PUSH1 0x1 PUSH1 0x40 SHL SUB SWAP1 SWAP3 AND PUSH5 0x100000000 MUL PUSH12 0xFFFFFFFFFFFFFFFFFFFFFFFF NOT SWAP1 SWAP5 AND PUSH4 0xFFFFFFFF SWAP1 SWAP7 AND SWAP6 SWAP1 SWAP6 OR SWAP3 SWAP1 SWAP3 OR SWAP2 SWAP1 SWAP2 AND SWAP3 SWAP1 SWAP3 OR SWAP1 SSTORE PUSH1 0x80 SWAP1 SWAP3 ADD MLOAD PUSH1 0x2 SWAP1 SWAP2 ADD SSTORE MLOAD DUP2 SWAP1 PUSH32 0xA298A7D6AF5BA26FCDE1DA1533981C37FDB996ECC58211BAC468DC21F4DE6F78 SWAP1 PUSH2 0x462 SWAP1 DUP9 SWAP1 DUP8 SWAP1 PUSH2 0xECB JUMP JUMPDEST PUSH1 0x40 MLOAD DUP1 SWAP2 SUB SWAP1 LOG2 SWAP5 SWAP4 POP POP POP POP JUMP JUMPDEST PUSH0 DUP1 PUSH1 0x1 SLOAD PUSH1 0x1 PUSH1 0x1 PUSH1 0x40 SHL SUB DUP2 GT ISZERO PUSH2 0x48E JUMPI PUSH2 0x48E PUSH2 0xB97 JUMP JUMPDEST PUSH1 0x40 MLOAD SWAP1 DUP1 DUP3 MSTORE DUP1 PUSH1 0x20 MUL PUSH1 0x20 ADD DUP3 ADD PUSH1 0x40 MSTORE DUP1 ISZERO PUSH2 0x4B7 JUMPI DUP2 PUSH1 0x20 ADD PUSH1 0x20 DUP3 MUL DUP1 CALLDATASIZE DUP4 CALLDATACOPY ADD SWAP1 POP JUMPDEST POP SWAP1 POP PUSH0 DUP1 JUMPDEST PUSH1 0x1 SLOAD DUP2 LT ISZERO PUSH2 0x54A JUMPI PUSH0 DUP2 DUP2 MSTORE PUSH1 0x20 DUP2 SWAP1 MSTORE PUSH1 0x40 SWAP1 KECCAK256 PUSH1 0x1 ADD SLOAD PUSH1 0x1 PUSH1 0x60 SHL SWAP1 DIV PUSH1 0xFF AND DUP1 ISZERO PUSH2 0x511 JUMPI POP PUSH1 0x1 PUSH1 0x1 PUSH1 0xA0 SHL SUB DUP6 AND PUSH0 SWAP1 DUP2 MSTORE PUSH1 0x3 PUSH1 0x20 SWAP1 DUP2 MSTORE PUSH1 0x40 DUP1 DUP4 KECCAK256 DUP5 DUP5 MSTORE SWAP1 SWAP2 MSTORE SWAP1 KECCAK256 SLOAD PUSH1 0xFF AND ISZERO JUMPDEST ISZERO PUSH2 0x542 JUMPI DUP1 DUP4 DUP4 DUP2 MLOAD DUP2 LT PUSH2 0x529 JUMPI PUSH2 0x529 PUSH2 0xEF5 JUMP JUMPDEST PUSH1 0x20 SWAP1 DUP2 MUL SWAP2 SWAP1 SWAP2 ADD ADD MSTORE DUP2 PUSH2 0x53E DUP2 PUSH2 0xDB0 JUMP JUMPDEST SWAP3 POP POP JUMPDEST PUSH1 0x1 ADD PUSH2 0x4BD JUMP JUMPDEST POP DUP1 PUSH0 SUB PUSH2 0x55B JUMPI POP PUSH0 SWAP4 SWAP3 POP POP POP JUMP JUMPDEST PUSH0 DUP2 TIMESTAMP PREVRANDAO DUP8 PUSH1 0x40 MLOAD PUSH1 0x20 ADD PUSH2 0x595 SWAP4 SWAP3 SWAP2 SWAP1 SWAP3 DUP4 MSTORE PUSH1 0x20 DUP4 ADD SWAP2 SWAP1 SWAP2 MSTORE PUSH1 0x60 SHL PUSH12 0xFFFFFFFFFFFFFFFFFFFFFFFF NOT AND PUSH1 0x40 DUP3 ADD MSTORE PUSH1 0x54 ADD SWAP1 JUMP JUMPDEST PUSH1 0x40 MLOAD PUSH1 0x20 DUP2 DUP4 SUB SUB DUP2 MSTORE SWAP1 PUSH1 0x40 MSTORE DUP1 MLOAD SWAP1 PUSH1 0x20 ADD KECCAK256 PUSH0 SHR PUSH2 0x5B7 SWAP2 SWAP1 PUSH2 0xF1D JUMP JUMPDEST SWAP1 POP DUP3 DUP2 DUP2 MLOAD DUP2 LT PUSH2 0x5CB JUMPI PUSH2 0x5CB PUSH2 0xEF5 JUMP JUMPDEST PUSH1 0x20 MUL PUSH1 0x20 ADD ADD MLOAD SWAP4 POP POP POP POP SWAP2 SWAP1 POP JUMP JUMPDEST PUSH1 0x1 SLOAD DUP3 LT PUSH2 0x5FF JUMPI PUSH1 0x40 MLOAD PUSH4 0x3FA9E8B9 PUSH1 0xE1 SHL DUP2 MSTORE PUSH1 0x4 ADD PUSH1 0x40 MLOAD DUP1 SWAP2 SUB SWAP1 REVERT JUMPDEST PUSH0 DUP3 DUP2 MSTORE PUSH1 0x20 DUP2 SWAP1 MSTORE PUSH1 0x40 SWAP1 KECCAK256 PUSH1 0x1 DUP2 ADD SLOAD PUSH1 0x1 PUSH1 0x60 SHL SWAP1 DIV PUSH1 0xFF AND PUSH2 0x640 JUMPI PUSH1 0x40 MLOAD PUSH4 0x318DDC5B PUSH1 0xE2 SHL DUP2 MSTORE PUSH1 0x4 DUP2 ADD DUP5 SWAP1 MSTORE PUSH1 0x24 ADD JUMPDEST PUSH1 0x40 MLOAD DUP1 SWAP2 SUB SWAP1 REVERT JUMPDEST CALLER PUSH0 SWAP1 DUP2 MSTORE PUSH1 0x3 PUSH1 0x20 SWAP1 DUP2 MSTORE PUSH1 0x40 DUP1 DUP4 KECCAK256 DUP7 DUP5 MSTORE SWAP1 SWAP2 MSTORE SWAP1 KECCAK256 SLOAD PUSH1 0xFF AND ISZERO PUSH2 0x67E JUMPI PUSH1 0x40 MLOAD PUSH4 0x2905F909 PUSH1 0xE2 SHL DUP2 MSTORE PUSH1 0x4 DUP2 ADD DUP5 SWAP1 MSTORE PUSH1 0x24 ADD PUSH2 0x637 JUMP JUMPDEST PUSH2 0x687 CALLER PUSH2 0xA73 JUMP JUMPDEST CALLER PUSH0 SWAP1 DUP2 MSTORE PUSH1 0x2 PUSH1 0x20 MSTORE PUSH1 0x40 SWAP1 KECCAK256 PUSH1 0x1 DUP2 ADD SLOAD PUSH1 0x3 PUSH1 0xFF SWAP1 SWAP2 AND LT PUSH2 0x70A JUMPI PUSH0 PUSH2 0x6B4 PUSH3 0x15180 TIMESTAMP PUSH2 0xF30 JUMP JUMPDEST SWAP1 POP PUSH0 PUSH2 0x6C2 DUP3 PUSH1 0x1 PUSH2 0xF43 JUMP JUMPDEST PUSH2 0x6CF SWAP1 PUSH3 0x15180 PUSH2 0xF5C JUMP JUMPDEST SWAP1 POP PUSH0 PUSH2 0x6DC TIMESTAMP DUP4 PUSH2 0xF73 JUMP JUMPDEST PUSH1 0x1 DUP6 ADD SLOAD PUSH1 0x40 MLOAD PUSH4 0x2E8DD65D PUSH1 0xE1 SHL DUP2 MSTORE PUSH1 0xFF SWAP1 SWAP2 AND PUSH1 0x4 DUP3 ADD MSTORE PUSH1 0x24 DUP2 ADD DUP3 SWAP1 MSTORE SWAP1 SWAP2 POP PUSH1 0x44 ADD PUSH2 0x637 JUMP JUMPDEST PUSH1 0x1 DUP2 ADD DUP1 SLOAD PUSH1 0xFF AND SWAP1 PUSH0 PUSH2 0x71E DUP4 PUSH2 0xF86 JUMP JUMPDEST DUP3 SLOAD PUSH1 0xFF SWAP2 DUP3 AND PUSH2 0x100 SWAP4 SWAP1 SWAP4 EXP SWAP3 DUP4 MUL SWAP2 SWAP1 SWAP3 MUL NOT SWAP1 SWAP2 AND OR SWAP1 SSTORE POP PUSH1 0x1 DUP3 ADD SLOAD PUSH1 0x40 MLOAD PUSH4 0xFFFFFFFF DUP6 DUP2 AND SWAP3 AND SWAP2 SWAP1 SWAP2 EQ DUP1 DUP3 MSTORE SWAP1 DUP6 SWAP1 CALLER SWAP1 PUSH32 0xD4F86DAE1CDE85D0378F4F83CB85B55A7B9106609BB788295EF6928E9AA9AFF0 SWAP1 PUSH1 0x20 ADD PUSH1 0x40 MLOAD DUP1 SWAP2 SUB SWAP1 LOG3 DUP1 ISZERO PUSH2 0x85B JUMPI PUSH1 0x2 DUP3 ADD DUP1 SLOAD SWAP1 PUSH0 PUSH2 0x79D DUP4 PUSH2 0xDB0 JUMP JUMPDEST SWAP1 SWAP2 SSTORE POP POP PUSH1 0x1 DUP4 ADD SLOAD PUSH1 0x3 DUP4 ADD DUP1 SLOAD PUSH1 0x1 PUSH1 0x1 PUSH1 0x40 SHL SUB PUSH5 0x100000000 SWAP1 SWAP4 DIV DUP4 AND SWAP3 PUSH0 SWAP2 PUSH2 0x7CF SWAP2 DUP6 SWAP2 AND PUSH2 0xFA4 JUMP JUMPDEST DUP3 SLOAD PUSH2 0x100 SWAP3 SWAP1 SWAP3 EXP PUSH1 0x1 PUSH1 0x1 PUSH1 0x40 SHL SUB DUP2 DUP2 MUL NOT SWAP1 SWAP4 AND SWAP2 DUP4 AND MUL OR SWAP1 SWAP2 SSTORE CALLER PUSH0 DUP2 DUP2 MSTORE PUSH1 0x3 PUSH1 0x20 SWAP1 DUP2 MSTORE PUSH1 0x40 DUP1 DUP4 KECCAK256 DUP12 DUP5 MSTORE DUP3 MSTORE SWAP2 DUP3 SWAP1 KECCAK256 DUP1 SLOAD PUSH1 0xFF NOT AND PUSH1 0x1 SWAP1 DUP2 OR SWAP1 SWAP2 SSTORE DUP9 ADD SLOAD SWAP2 MLOAD PUSH5 0x100000000 SWAP1 SWAP3 DIV SWAP1 SWAP4 AND DUP2 MSTORE DUP9 SWAP4 POP SWAP1 SWAP2 PUSH32 0x6C9C61B14224CCAF917717A764A2298FEB33FD104CF4B1F42EA1C72FADFE70FB SWAP2 ADD PUSH1 0x40 MLOAD DUP1 SWAP2 SUB SWAP1 LOG3 JUMPDEST POP POP POP POP POP JUMP JUMPDEST PUSH0 DUP1 JUMPDEST PUSH1 0x1 SLOAD DUP2 LT ISZERO PUSH2 0x8A5 JUMPI PUSH0 DUP2 DUP2 MSTORE PUSH1 0x20 DUP2 SWAP1 MSTORE PUSH1 0x40 SWAP1 KECCAK256 PUSH1 0x1 ADD SLOAD PUSH1 0x1 PUSH1 0x60 SHL SWAP1 DIV PUSH1 0xFF AND ISZERO PUSH2 0x89D JUMPI DUP2 PUSH2 0x899 DUP2 PUSH2 0xDB0 JUMP JUMPDEST SWAP3 POP POP JUMPDEST PUSH1 0x1 ADD PUSH2 0x865 JUMP JUMPDEST POP SWAP1 JUMP JUMPDEST PUSH1 0x60 PUSH0 DUP1 PUSH0 PUSH1 0x1 SLOAD DUP6 LT PUSH2 0x8D0 JUMPI PUSH1 0x40 MLOAD PUSH4 0x3FA9E8B9 PUSH1 0xE1 SHL DUP2 MSTORE PUSH1 0x4 ADD PUSH1 0x40 MLOAD DUP1 SWAP2 SUB SWAP1 REVERT JUMPDEST PUSH0 DUP6 DUP2 MSTORE PUSH1 0x20 DUP2 DUP2 MSTORE PUSH1 0x40 DUP1 DUP4 KECCAK256 PUSH1 0x1 DUP2 ADD SLOAD CALLER DUP6 MSTORE PUSH1 0x3 DUP5 MSTORE DUP3 DUP6 KECCAK256 DUP11 DUP7 MSTORE SWAP1 SWAP4 MSTORE SWAP3 KECCAK256 SLOAD DUP3 SLOAD DUP4 SWAP3 PUSH1 0x1 PUSH1 0x1 PUSH1 0x40 SHL SUB PUSH5 0x100000000 DUP3 DIV AND SWAP3 PUSH1 0xFF PUSH1 0x1 PUSH1 0x60 SHL SWAP1 SWAP3 DIV DUP3 AND SWAP3 SWAP2 AND SWAP1 DUP5 SWAP1 PUSH2 0x927 SWAP1 PUSH2 0xD64 JUMP JUMPDEST DUP1 PUSH1 0x1F ADD PUSH1 0x20 DUP1 SWAP2 DIV MUL PUSH1 0x20 ADD PUSH1 0x40 MLOAD SWAP1 DUP2 ADD PUSH1 0x40 MSTORE DUP1 SWAP3 SWAP2 SWAP1 DUP2 DUP2 MSTORE PUSH1 0x20 ADD DUP3 DUP1 SLOAD PUSH2 0x953 SWAP1 PUSH2 0xD64 JUMP JUMPDEST DUP1 ISZERO PUSH2 0x99E JUMPI DUP1 PUSH1 0x1F LT PUSH2 0x975 JUMPI PUSH2 0x100 DUP1 DUP4 SLOAD DIV MUL DUP4 MSTORE SWAP2 PUSH1 0x20 ADD SWAP2 PUSH2 0x99E JUMP JUMPDEST DUP3 ADD SWAP2 SWAP1 PUSH0 MSTORE PUSH1 0x20 PUSH0 KECCAK256 SWAP1 JUMPDEST DUP2 SLOAD DUP2 MSTORE SWAP1 PUSH1 0x1 ADD SWAP1 PUSH1 0x20 ADD DUP1 DUP4 GT PUSH2 0x981 JUMPI DUP3 SWAP1 SUB PUSH1 0x1F AND DUP3 ADD SWAP2 JUMPDEST POP POP POP POP POP SWAP4 POP SWAP5 POP SWAP5 POP SWAP5 POP SWAP5 POP POP SWAP2 SWAP4 POP SWAP2 SWAP4 JUMP JUMPDEST PUSH1 0x1 PUSH1 0x1 PUSH1 0xA0 SHL SUB DUP2 AND PUSH0 SWAP1 DUP2 MSTORE PUSH1 0x2 PUSH1 0x20 MSTORE PUSH1 0x40 DUP2 KECCAK256 DUP2 SWAP1 DUP2 SWAP1 DUP2 SWAP1 DUP2 SWAP1 DUP2 PUSH2 0x9E2 PUSH3 0x15180 TIMESTAMP PUSH2 0xF30 JUMP JUMPDEST SWAP1 POP PUSH0 DUP2 DUP4 PUSH0 ADD SLOAD LT PUSH2 0x9FC JUMPI PUSH1 0x1 DUP4 ADD SLOAD PUSH1 0xFF AND PUSH2 0x9FE JUMP JUMPDEST PUSH0 JUMPDEST SWAP1 POP PUSH0 PUSH1 0x3 PUSH1 0xFF DUP4 AND LT ISZERO PUSH2 0xA1D JUMPI PUSH2 0xA18 DUP3 PUSH1 0x3 PUSH2 0xFCB JUMP JUMPDEST PUSH2 0xA1F JUMP JUMPDEST PUSH0 JUMPDEST SWAP1 POP PUSH0 PUSH2 0xA2D DUP5 PUSH1 0x1 PUSH2 0xF43 JUMP JUMPDEST PUSH2 0xA3A SWAP1 PUSH3 0x15180 PUSH2 0xF5C JUMP JUMPDEST SWAP1 POP PUSH0 PUSH2 0xA47 TIMESTAMP DUP4 PUSH2 0xF73 JUMP JUMPDEST PUSH1 0x2 DUP8 ADD SLOAD PUSH1 0x3 SWAP1 SWAP8 ADD SLOAD SWAP5 SWAP14 SWAP4 SWAP13 POP SWAP6 SWAP11 POP POP PUSH1 0x1 PUSH1 0x1 PUSH1 0x40 SHL SUB SWAP1 SWAP3 AND SWAP8 POP SWAP3 SWAP6 POP SWAP2 SWAP4 POP POP POP POP JUMP JUMPDEST PUSH1 0x1 PUSH1 0x1 PUSH1 0xA0 SHL SUB DUP2 AND PUSH0 SWAP1 DUP2 MSTORE PUSH1 0x2 PUSH1 0x20 MSTORE PUSH1 0x40 DUP2 KECCAK256 SWAP1 PUSH2 0xA98 PUSH3 0x15180 TIMESTAMP PUSH2 0xF30 JUMP JUMPDEST SWAP1 POP DUP1 DUP3 PUSH0 ADD SLOAD LT ISZERO PUSH2 0xAF3 JUMPI DUP1 DUP3 SSTORE PUSH1 0x1 DUP3 ADD DUP1 SLOAD PUSH1 0xFF NOT AND SWAP1 SSTORE PUSH1 0x40 MLOAD DUP2 DUP2 MSTORE PUSH1 0x1 PUSH1 0x1 PUSH1 0xA0 SHL SUB DUP5 AND SWAP1 PUSH32 0xE08BF5EC0359FF00FF7306D2A54240F6B4970E8ED71E637F2117AB9B246896F9 SWAP1 PUSH1 0x20 ADD PUSH1 0x40 MLOAD DUP1 SWAP2 SUB SWAP1 LOG2 JUMPDEST POP POP POP JUMP JUMPDEST PUSH0 PUSH1 0x20 DUP3 DUP5 SUB SLT ISZERO PUSH2 0xB08 JUMPI PUSH0 DUP1 REVERT JUMPDEST POP CALLDATALOAD SWAP2 SWAP1 POP JUMP JUMPDEST PUSH0 DUP2 MLOAD DUP1 DUP5 MSTORE PUSH0 JUMPDEST DUP2 DUP2 LT ISZERO PUSH2 0xB33 JUMPI PUSH1 0x20 DUP2 DUP6 ADD DUP2 ADD MLOAD DUP7 DUP4 ADD DUP3 ADD MSTORE ADD PUSH2 0xB17 JUMP JUMPDEST POP PUSH0 PUSH1 0x20 DUP3 DUP7 ADD ADD MSTORE PUSH1 0x20 PUSH1 0x1F NOT PUSH1 0x1F DUP4 ADD AND DUP6 ADD ADD SWAP2 POP POP SWAP3 SWAP2 POP POP JUMP JUMPDEST PUSH1 0xA0 DUP2 MSTORE PUSH0 PUSH2 0xB64 PUSH1 0xA0 DUP4 ADD DUP9 PUSH2 0xB0F JUMP JUMPDEST PUSH4 0xFFFFFFFF SWAP7 SWAP1 SWAP7 AND PUSH1 0x20 DUP4 ADD MSTORE POP PUSH1 0x1 PUSH1 0x1 PUSH1 0x40 SHL SUB SWAP4 SWAP1 SWAP4 AND PUSH1 0x40 DUP5 ADD MSTORE SWAP1 ISZERO ISZERO PUSH1 0x60 DUP4 ADD MSTORE PUSH1 0x80 SWAP1 SWAP2 ADD MSTORE SWAP2 SWAP1 POP JUMP JUMPDEST PUSH4 0x4E487B71 PUSH1 0xE0 SHL PUSH0 MSTORE PUSH1 0x41 PUSH1 0x4 MSTORE PUSH1 0x24 PUSH0 REVERT JUMPDEST DUP1 CALLDATALOAD PUSH4 0xFFFFFFFF DUP2 AND DUP2 EQ PUSH2 0xBBE JUMPI PUSH0 DUP1 REVERT JUMPDEST SWAP2 SWAP1 POP JUMP JUMPDEST DUP1 CALLDATALOAD PUSH1 0x1 PUSH1 0x1 PUSH1 0x40 SHL SUB DUP2 AND DUP2 EQ PUSH2 0xBBE JUMPI PUSH0 DUP1 REVERT JUMPDEST PUSH0 DUP1 PUSH0 PUSH1 0x60 DUP5 DUP7 SUB SLT ISZERO PUSH2 0xBEB JUMPI PUSH0 DUP1 REVERT JUMPDEST DUP4 CALLDATALOAD PUSH1 0x1 PUSH1 0x1 PUSH1 0x40 SHL SUB DUP1 DUP3 GT ISZERO PUSH2 0xC01 JUMPI PUSH0 DUP1 REVERT JUMPDEST DUP2 DUP7 ADD SWAP2 POP DUP7 PUSH1 0x1F DUP4 ADD SLT PUSH2 0xC14 JUMPI PUSH0 DUP1 REVERT JUMPDEST DUP2 CALLDATALOAD DUP2 DUP2 GT ISZERO PUSH2 0xC26 JUMPI PUSH2 0xC26 PUSH2 0xB97 JUMP JUMPDEST PUSH1 0x40 MLOAD PUSH1 0x1F DUP3 ADD PUSH1 0x1F NOT SWAP1 DUP2 AND PUSH1 0x3F ADD AND DUP2 ADD SWAP1 DUP4 DUP3 GT DUP2 DUP4 LT OR ISZERO PUSH2 0xC4E JUMPI PUSH2 0xC4E PUSH2 0xB97 JUMP JUMPDEST DUP2 PUSH1 0x40 MSTORE DUP3 DUP2 MSTORE DUP10 PUSH1 0x20 DUP5 DUP8 ADD ADD GT ISZERO PUSH2 0xC66 JUMPI PUSH0 DUP1 REVERT JUMPDEST DUP3 PUSH1 0x20 DUP7 ADD PUSH1 0x20 DUP4 ADD CALLDATACOPY PUSH0 PUSH1 0x20 DUP5 DUP4 ADD ADD MSTORE DUP1 SWAP8 POP POP POP POP POP POP PUSH2 0xC8C PUSH1 0x20 DUP6 ADD PUSH2 0xBAB JUMP JUMPDEST SWAP2 POP PUSH2 0xC9A PUSH1 0x40 DUP6 ADD PUSH2 0xBC3 JUMP JUMPDEST SWAP1 POP SWAP3 POP SWAP3 POP SWAP3 JUMP JUMPDEST DUP1 CALLDATALOAD PUSH1 0x1 PUSH1 0x1 PUSH1 0xA0 SHL SUB DUP2 AND DUP2 EQ PUSH2 0xBBE JUMPI PUSH0 DUP1 REVERT JUMPDEST PUSH0 PUSH1 0x20 DUP3 DUP5 SUB SLT ISZERO PUSH2 0xCC9 JUMPI PUSH0 DUP1 REVERT JUMPDEST PUSH2 0xCD2 DUP3 PUSH2 0xCA3 JUMP JUMPDEST SWAP4 SWAP3 POP POP POP JUMP JUMPDEST PUSH0 DUP1 PUSH1 0x40 DUP4 DUP6 SUB SLT ISZERO PUSH2 0xCEA JUMPI PUSH0 DUP1 REVERT JUMPDEST DUP3 CALLDATALOAD SWAP2 POP PUSH2 0xCFA PUSH1 0x20 DUP5 ADD PUSH2 0xBAB JUMP JUMPDEST SWAP1 POP SWAP3 POP SWAP3 SWAP1 POP JUMP JUMPDEST PUSH1 0x80 DUP2 MSTORE PUSH0 PUSH2 0xD15 PUSH1 0x80 DUP4 ADD DUP8 PUSH2 0xB0F JUMP JUMPDEST PUSH1 0x1 PUSH1 0x1 PUSH1 0x40 SHL SUB SWAP6 SWAP1 SWAP6 AND PUSH1 0x20 DUP4 ADD MSTORE POP SWAP2 ISZERO ISZERO PUSH1 0x40 DUP4 ADD MSTORE ISZERO ISZERO PUSH1 0x60 SWAP1 SWAP2 ADD MSTORE SWAP2 SWAP1 POP JUMP JUMPDEST PUSH0 DUP1 PUSH1 0x40 DUP4 DUP6 SUB SLT ISZERO PUSH2 0xD4D JUMPI PUSH0 DUP1 REVERT JUMPDEST PUSH2 0xD56 DUP4 PUSH2 0xCA3 JUMP JUMPDEST SWAP5 PUSH1 0x20 SWAP4 SWAP1 SWAP4 ADD CALLDATALOAD SWAP4 POP POP POP JUMP JUMPDEST PUSH1 0x1 DUP2 DUP2 SHR SWAP1 DUP3 AND DUP1 PUSH2 0xD78 JUMPI PUSH1 0x7F DUP3 AND SWAP2 POP JUMPDEST PUSH1 0x20 DUP3 LT DUP2 SUB PUSH2 0xD96 JUMPI PUSH4 0x4E487B71 PUSH1 0xE0 SHL PUSH0 MSTORE PUSH1 0x22 PUSH1 0x4 MSTORE PUSH1 0x24 PUSH0 REVERT JUMPDEST POP SWAP2 SWAP1 POP JUMP JUMPDEST PUSH4 0x4E487B71 PUSH1 0xE0 SHL PUSH0 MSTORE PUSH1 0x11 PUSH1 0x4 MSTORE PUSH1 0x24 PUSH0 REVERT JUMPDEST PUSH0 PUSH1 0x1 DUP3 ADD PUSH2 0xDC1 JUMPI PUSH2 0xDC1 PUSH2 0xD9C JUMP JUMPDEST POP PUSH1 0x1 ADD SWAP1 JUMP JUMPDEST PUSH1 0x1F DUP3 GT ISZERO PUSH2 0xAF3 JUMPI DUP1 PUSH0 MSTORE PUSH1 0x20 PUSH0 KECCAK256 PUSH1 0x1F DUP5 ADD PUSH1 0x5 SHR DUP2 ADD PUSH1 0x20 DUP6 LT ISZERO PUSH2 0xDED JUMPI POP DUP1 JUMPDEST PUSH1 0x1F DUP5 ADD PUSH1 0x5 SHR DUP3 ADD SWAP2 POP JUMPDEST DUP2 DUP2 LT ISZERO PUSH2 0x85B JUMPI PUSH0 DUP2 SSTORE PUSH1 0x1 ADD PUSH2 0xDF9 JUMP JUMPDEST DUP2 MLOAD PUSH1 0x1 PUSH1 0x1 PUSH1 0x40 SHL SUB DUP2 GT ISZERO PUSH2 0xE25 JUMPI PUSH2 0xE25 PUSH2 0xB97 JUMP JUMPDEST PUSH2 0xE39 DUP2 PUSH2 0xE33 DUP5 SLOAD PUSH2 0xD64 JUMP JUMPDEST DUP5 PUSH2 0xDC8 JUMP JUMPDEST PUSH1 0x20 DUP1 PUSH1 0x1F DUP4 GT PUSH1 0x1 DUP2 EQ PUSH2 0xE6C JUMPI PUSH0 DUP5 ISZERO PUSH2 0xE55 JUMPI POP DUP6 DUP4 ADD MLOAD JUMPDEST PUSH0 NOT PUSH1 0x3 DUP7 SWAP1 SHL SHR NOT AND PUSH1 0x1 DUP6 SWAP1 SHL OR DUP6 SSTORE PUSH2 0xEC3 JUMP JUMPDEST PUSH0 DUP6 DUP2 MSTORE PUSH1 0x20 DUP2 KECCAK256 PUSH1 0x1F NOT DUP7 AND SWAP2 JUMPDEST DUP3 DUP2 LT ISZERO PUSH2 0xE9A JUMPI DUP9 DUP7 ADD MLOAD DUP3 SSTORE SWAP5 DUP5 ADD SWAP5 PUSH1 0x1 SWAP1 SWAP2 ADD SWAP1 DUP5 ADD PUSH2 0xE7B JUMP JUMPDEST POP DUP6 DUP3 LT ISZERO PUSH2 0xEB7 JUMPI DUP8 DUP6 ADD MLOAD PUSH0 NOT PUSH1 0x3 DUP9 SWAP1 SHL PUSH1 0xF8 AND SHR NOT AND DUP2 SSTORE JUMPDEST POP POP PUSH1 0x1 DUP5 PUSH1 0x1 SHL ADD DUP6 SSTORE JUMPDEST POP POP POP POP POP POP JUMP JUMPDEST PUSH1 0x40 DUP2 MSTORE PUSH0 PUSH2 0xEDD PUSH1 0x40 DUP4 ADD DUP6 PUSH2 0xB0F JUMP JUMPDEST SWAP1 POP PUSH1 0x1 PUSH1 0x1 PUSH1 0x40 SHL SUB DUP4 AND PUSH1 0x20 DUP4 ADD MSTORE SWAP4 SWAP3 POP POP POP JUMP JUMPDEST PUSH4 0x4E487B71 PUSH1 0xE0 SHL PUSH0 MSTORE PUSH1 0x32 PUSH1 0x4 MSTORE PUSH1 0x24 PUSH0 REVERT JUMPDEST PUSH4 0x4E487B71 PUSH1 0xE0 SHL PUSH0 MSTORE PUSH1 0x12 PUSH1 0x4 MSTORE PUSH1 0x24 PUSH0 REVERT JUMPDEST PUSH0 DUP3 PUSH2 0xF2B JUMPI PUSH2 0xF2B PUSH2 0xF09 JUMP JUMPDEST POP MOD SWAP1 JUMP JUMPDEST PUSH0 DUP3 PUSH2 0xF3E JUMPI PUSH2 0xF3E PUSH2 0xF09 JUMP JUMPDEST POP DIV SWAP1 JUMP JUMPDEST DUP1 DUP3 ADD DUP1 DUP3 GT ISZERO PUSH2 0xF56 JUMPI PUSH2 0xF56 PUSH2 0xD9C JUMP JUMPDEST SWAP3 SWAP2 POP POP JUMP JUMPDEST DUP1 DUP3 MUL DUP2 ISZERO DUP3 DUP3 DIV DUP5 EQ OR PUSH2 0xF56 JUMPI PUSH2 0xF56 PUSH2 0xD9C JUMP JUMPDEST DUP2 DUP2 SUB DUP2 DUP2 GT ISZERO PUSH2 0xF56 JUMPI PUSH2 0xF56 PUSH2 0xD9C JUMP JUMPDEST PUSH0 PUSH1 0xFF DUP3 AND PUSH1 0xFF DUP2 SUB PUSH2 0xF9B JUMPI PUSH2 0xF9B PUSH2 0xD9C JUMP JUMPDEST PUSH1 0x1 ADD SWAP3 SWAP2 POP POP JUMP JUMPDEST PUSH1 0x1 PUSH1 0x1 PUSH1 0x40 SHL SUB DUP2 DUP2 AND DUP4 DUP3 AND ADD SWAP1 DUP1 DUP3 GT ISZERO PUSH2 0xFC4 JUMPI PUSH2 0xFC4 PUSH2 0xD9C JUMP JUMPDEST POP SWAP3 SWAP2 POP POP JUMP JUMPDEST PUSH1 0xFF DUP3 DUP2 AND DUP3 DUP3 AND SUB SWAP1 DUP2 GT ISZERO PUSH2 0xF56 JUMPI PUSH2 0xF56 PUSH2 0xD9C JUMP INVALID LOG2 PUSH5 0x6970667358 0x22 SLT KECCAK256 DUP4 0xB9 0x4C 0xC OR SWAP6 0x22 PUSH24 0x7540C5064FCC98B1B41295CDBDA3033C96D6710EEB553E01 PUSH5 0x736F6C6343 STOP ADDMOD XOR STOP CALLER BASEFEE PUSH16 0x77206D616E7920736964657320646F65 PUSH20 0x20612068657861676F6E20686176653F57686174 KECCAK256 PUSH10 0x732074686520616E7377 PUSH6 0x7220746F206C PUSH10 0x66652C20756E69766572 PUSH20 0x652C20616E642065766572797468696E673F0000 "},"methodIdentifiers":{"BASE_REWARD()":"22009af6","MAX_DAILY_ATTEMPTS()":"99755998","answerQuestion(uint256,uint32)":"a1468640","createQuestion(string,uint32,uint64)":"4e6e0f8b","getActiveQuestionsCount()":"c5bb3449","getPlayerProgress(address)":"f635c69b","getQuestion(uint256)":"db88176f","getRandomQuestion(address)":"529c9635","hasSolved(address,uint256)":"ead109c4","playerProgress(address)":"ec7eba05","questionCount()":"1468aa2c","questions(uint256)":"31b1b978"}}}}}