{
  "_format": "hh-sol-artifact-1",
  "contractName": "QuestionTreasureBox",
  "sourceName": "contracts/QuestionTreasureBox.sol",
  "abi": [
    {
      "inputs": [],
      "stateMutability": "nonpayable",
      "type": "constructor"
    },
    {
      "inputs": [
        {
          "internalType": "uint256",
          "name": "questionId",
          "type": "uint256"
        }
      ],
      "name": "AlreadySolved",
      "type": "error"
    },
    {
      "inputs": [
        {
          "internalType": "uint8",
          "name": "attemptsUsed",
          "type": "uint8"
        },
        {
          "internalType": "uint256",
          "name": "resetsIn",
          "type": "uint256"
        }
      ],
      "name": "DailyLimitReached",
      "type": "error"
    },
    {
      "inputs": [],
      "name": "InvalidQuestionId",
      "type": "error"
    },
    {
      "inputs": [
        {
          "internalType": "uint256",
          "name": "questionId",
          "type": "uint256"
        }
      ],
      "name": "QuestionNotActive",
      "type": "error"
    },
    {
      "anonymous": false,
      "inputs": [
        {
          "indexed": true,
          "internalType": "address",
          "name": "player",
          "type": "address"
        },
        {
          "indexed": false,
          "internalType": "uint256",
          "name": "newDay",
          "type": "uint256"
        }
      ],
      "name": "DailyLimitReset",
      "type": "event"
    },
    {
      "anonymous": false,
      "inputs": [
        {
          "indexed": true,
          "internalType": "address",
          "name": "player",
          "type": "address"
        },
        {
          "indexed": true,
          "internalType": "uint256",
          "name": "questionId",
          "type": "uint256"
        },
        {
          "indexed": false,
          "internalType": "bool",
          "name": "success",
          "type": "bool"
        }
      ],
      "name": "QuestionAttempted",
      "type": "event"
    },
    {
      "anonymous": false,
      "inputs": [
        {
          "indexed": true,
          "internalType": "uint256",
          "name": "questionId",
          "type": "uint256"
        },
        {
          "indexed": false,
          "internalType": "string",
          "name": "questionText",
          "type": "string"
        },
        {
          "indexed": false,
          "internalType": "uint64",
          "name": "reward",
          "type": "uint64"
        }
      ],
      "name": "QuestionCreated",
      "type": "event"
    },
    {
      "anonymous": false,
      "inputs": [
        {
          "indexed": true,
          "internalType": "address",
          "name": "player",
          "type": "address"
        },
        {
          "indexed": true,
          "internalType": "uint256",
          "name": "questionId",
          "type": "uint256"
        },
        {
          "indexed": false,
          "internalType": "uint64",
          "name": "reward",
          "type": "uint64"
        }
      ],
      "name": "TreasureUnlocked",
      "type": "event"
    },
    {
      "inputs": [],
      "name": "BASE_REWARD",
      "outputs": [
        {
          "internalType": "uint64",
          "name": "",
          "type": "uint64"
        }
      ],
      "stateMutability": "view",
      "type": "function"
    },
    {
      "inputs": [],
      "name": "MAX_DAILY_ATTEMPTS",
      "outputs": [
        {
          "internalType": "uint8",
          "name": "",
          "type": "uint8"
        }
      ],
      "stateMutability": "view",
      "type": "function"
    },
    {
      "inputs": [
        {
          "internalType": "uint256",
          "name": "questionId",
          "type": "uint256"
        },
        {
          "internalType": "uint32",
          "name": "answer",
          "type": "uint32"
        }
      ],
      "name": "answerQuestion",
      "outputs": [
        {
          "internalType": "bool",
          "name": "success",
          "type": "bool"
        }
      ],
      "stateMutability": "nonpayable",
      "type": "function"
    },
    {
      "inputs": [
        {
          "internalType": "string",
          "name": "questionText",
          "type": "string"
        },
        {
          "internalType": "uint32",
          "name": "answer",
          "type": "uint32"
        },
        {
          "internalType": "uint64",
          "name": "reward",
          "type": "uint64"
        }
      ],
      "name": "createQuestion",
      "outputs": [
        {
          "internalType": "uint256",
          "name": "",
          "type": "uint256"
        }
      ],
      "stateMutability": "nonpayable",
      "type": "function"
    },
    {
      "inputs": [],
      "name": "getActiveQuestionsCount",
      "outputs": [
        {
          "internalType": "uint256",
          "name": "count",
          "type": "uint256"
        }
      ],
      "stateMutability": "view",
      "type": "function"
    },
    {
      "inputs": [
        {
          "internalType": "address",
          "name": "player",
          "type": "address"
        }
      ],
      "name": "getPlayerProgress",
      "outputs": [
        {
          "internalType": "uint8",
          "name": "attemptsToday",
          "type": "uint8"
        },
        {
          "internalType": "uint8",
          "name": "remainingAttempts",
          "type": "uint8"
        },
        {
          "internalType": "uint256",
          "name": "totalSolved",
          "type": "uint256"
        },
        {
          "internalType": "uint64",
          "name": "totalRewards",
          "type": "uint64"
        },
        {
          "internalType": "uint256",
          "name": "timeUntilReset",
          "type": "uint256"
        }
      ],
      "stateMutability": "view",
      "type": "function"
    },
    {
      "inputs": [
        {
          "internalType": "uint256",
          "name": "questionId",
          "type": "uint256"
        }
      ],
      "name": "getQuestion",
      "outputs": [
        {
          "internalType": "string",
          "name": "questionText",
          "type": "string"
        },
        {
          "internalType": "uint64",
          "name": "reward",
          "type": "uint64"
        },
        {
          "internalType": "bool",
          "name": "isActive",
          "type": "bool"
        },
        {
          "internalType": "bool",
          "name": "playerSolved",
          "type": "bool"
        }
      ],
      "stateMutability": "view",
      "type": "function"
    },
    {
      "inputs": [
        {
          "internalType": "address",
          "name": "player",
          "type": "address"
        }
      ],
      "name": "getRandomQuestion",
      "outputs": [
        {
          "internalType": "uint256",
          "name": "",
          "type": "uint256"
        }
      ],
      "stateMutability": "view",
      "type": "function"
    },
    {
      "inputs": [
        {
          "internalType": "address",
          "name": "",
          "type": "address"
        },
        {
          "internalType": "uint256",
          "name": "",
          "type": "uint256"
        }
      ],
      "name": "hasSolved",
      "outputs": [
        {
          "internalType": "bool",
          "name": "",
          "type": "bool"
        }
      ],
      "stateMutability": "view",
      "type": "function"
    },
    {
      "inputs": [
        {
          "internalType": "address",
          "name": "",
          "type": "address"
        }
      ],
      "name": "playerProgress",
      "outputs": [
        {
          "internalType": "uint256",
          "name": "lastResetDay",
          "type": "uint256"
        },
        {
          "internalType": "uint8",
          "name": "attemptsToday",
          "type": "uint8"
        },
        {
          "internalType": "uint256",
          "name": "totalSolved",
          "type": "uint256"
        },
        {
          "internalType": "uint64",
          "name": "totalRewards",
          "type": "uint64"
        }
      ],
      "stateMutability": "view",
      "type": "function"
    },
    {
      "inputs": [],
      "name": "protocolId",
      "outputs": [
        {
          "internalType": "uint256",
          "name": "",
          "type": "uint256"
        }
      ],
      "stateMutability": "pure",
      "type": "function"
    },
    {
      "inputs": [],
      "name": "questionCount",
      "outputs": [
        {
          "internalType": "uint256",
          "name": "",
          "type": "uint256"
        }
      ],
      "stateMutability": "view",
      "type": "function"
    },
    {
      "inputs": [
        {
          "internalType": "uint256",
          "name": "",
          "type": "uint256"
        }
      ],
      "name": "questions",
      "outputs": [
        {
          "internalType": "string",
          "name": "questionText",
          "type": "string"
        },
        {
          "internalType": "euint32",
          "name": "encryptedAnswer",
          "type": "bytes32"
        },
        {
          "internalType": "uint64",
          "name": "reward",
          "type": "uint64"
        },
        {
          "internalType": "bool",
          "name": "isActive",
          "type": "bool"
        },
        {
          "internalType": "uint256",
          "name": "createdAt",
          "type": "uint256"
        }
      ],
      "stateMutability": "view",
      "type": "function"
    }
  ],
  "bytecode": "0x608060405234801562000010575f80fd5b5062000169620000b1604080516080810182525f808252602082018190529181018290526060810191909152506040805160808101825273687820221192c5b662b25367f70076a37bc79b6c815273848b0066793bcc60346da1f49049357399b8d595602082015273a02cda4ca3a71d7c46997716f4283aa851c2881291810191909152731364cbbf2cdf5032c47d8226a6f6fbd2afcdacac606082015290565b80515f8051602062001b1b83398151915280546001600160a01b03199081166001600160a01b039384161790915560208301515f8051602062001ad88339815191528054831691841691909117905560408301517f9e7b61f58c47dc699ac88507c4f5bb9f121c03808c5676a8078fe583e46497028054831691841691909117905560608301517f9e7b61f58c47dc699ac88507c4f5bb9f121c03808c5676a8078fe583e46497038054909216921691909117905550565b6200017362000179565b6200080a565b60408051808201909152600e81526d576861742069732035202b20373f60901b6020820152620001ad90600c606462000342565b60408051808201909152600f81526e57686174206973203135202d20383f60881b6020820152620001e2906007606462000342565b60408051808201909152600e81526d576861742069732036202a20343f60901b602082015262000216906018606462000342565b60408051808201909152601881527f486f77206d616e79206461797320696e2061207765656b3f0000000000000000602082015262000259906007606462000342565b60408051808201909152601a81527f486f77206d616e79206d6f6e74687320696e206120796561723f00000000000060208201526200029c90600c606462000342565b620002c460405180606001604052806023815260200162001af8602391396006606462000342565b60408051808201909152601a81527f576861742069732031302073717561726564202831305e32293f0000000000006020820152620003129060646200030c816002620005af565b62000342565b6200034060405180606001604052806035815260200162001b3b60359139602a6200030c60646003620005af565b565b600180545f91826200035483620005dd565b9091555090505f620003668462000459565b9050620003738162000473565b506040805160a08101825286815260208082018490526001600160401b03861682840152600160608301524260808301525f858152908190529190912081518190620003c0908262000696565b50602082015160018201556040808301516002830180546060860151151568010000000000000000026001600160481b03199091166001600160401b03909316929092179190911790556080909201516003909101555182907fa298a7d6af5ba26fcde1da1533981c37fdb996ecc58211bac468dc21f4de6f78906200044a908890879062000762565b60405180910390a25050505050565b5f6200046d63ffffffff8316600462000484565b92915050565b5f62000480823062000522565b5090565b5f8051602062001ad883398151915254604051639cd07acb60e01b81525f915f8051602062001b1b833981519152916001600160a01b0390911690639cd07acb90620004d79087908790600401620007c1565b6020604051808303815f875af1158015620004f4573d5f803e3d5ffd5b505050506040513d601f19601f820116820180604052508101906200051a9190620007f2565b949350505050565b5f5f8051602062001b1b8339815191528054604051635ca4b5b160e11b8152600481018690526001600160a01b03858116602483015292935091169063b9496b62906044015f604051808303815f87803b1580156200057f575f80fd5b505af115801562000592573d5f803e3d5ffd5b50505050505050565b634e487b7160e01b5f52601160045260245ffd5b6001600160401b03818116838216028082169190828114620005d557620005d56200059b565b505092915050565b5f60018201620005f157620005f16200059b565b5060010190565b634e487b7160e01b5f52604160045260245ffd5b600181811c908216806200062157607f821691505b6020821081036200064057634e487b7160e01b5f52602260045260245ffd5b50919050565b601f8211156200069157805f5260205f20601f840160051c810160208510156200066d5750805b601f840160051c820191505b818110156200068e575f815560010162000679565b50505b505050565b81516001600160401b03811115620006b257620006b2620005f8565b620006ca81620006c384546200060c565b8462000646565b602080601f83116001811462000700575f8415620006e85750858301515b5f19600386901b1c1916600185901b1785556200075a565b5f85815260208120601f198616915b8281101562000730578886015182559484019460019091019084016200070f565b50858210156200074e57878501515f19600388901b60f8161c191681555b505060018460011b0185555b505050505050565b604081525f83518060408401525f5b8181101562000790576020818701810151606086840101520162000771565b505f60608285018101919091526001600160401b03949094166020840152601f01601f191690910190910192915050565b8281526040810160548310620007e557634e487b7160e01b5f52602160045260245ffd5b8260208301529392505050565b5f6020828403121562000803575f80fd5b5051919050565b6112c080620008185f395ff3fe608060405234801561000f575f80fd5b50600436106100cb575f3560e01c8063a146864011610088578063db88176f11610063578063db88176f146101a2578063ead109c4146101c5578063ec7eba05146101f2578063f635c69b1461025f575f80fd5b8063a14686401461016f578063c5bb344914610192578063da1f12ab1461019a575f80fd5b80631468aa2c146100cf57806322009af6146100eb57806331b1b9781461010b5780634e6e0f8b1461012f578063529c9635146101425780639975599814610155575b5f80fd5b6100d860015481565b6040519081526020015b60405180910390f35b6100f3606481565b6040516001600160401b0390911681526020016100e2565b61011e610119366004610d63565b6102a8565b6040516100e2959493929190610dbd565b6100d861013d366004610e3e565b61036c565b6100d8610150366004610f1e565b61047b565b61015d600381565b60405160ff90911681526020016100e2565b61018261017d366004610f37565b6105e6565b60405190151581526020016100e2565b6100d8610874565b6127116100d8565b6101b56101b0366004610d63565b6108bb565b6040516100e29493929190610f61565b6101826101d3366004610f9a565b600360209081525f928352604080842090915290825290205460ff1681565b610234610200366004610f1e565b600260208190525f91825260409091208054600182015492820154600390920154909260ff1691906001600160401b031684565b6040805194855260ff9093166020850152918301526001600160401b031660608201526080016100e2565b61027261026d366004610f1e565b6109c0565b6040805160ff9687168152959094166020860152928401919091526001600160401b03166060830152608082015260a0016100e2565b5f602081905290815260409020805481906102c290610fc2565b80601f01602080910402602001604051908101604052809291908181526020018280546102ee90610fc2565b80156103395780601f1061031057610100808354040283529160200191610339565b820191905f5260205f20905b81548152906001019060200180831161031c57829003601f168201915b5050505060018301546002840154600390940154929390926001600160401b0382169250600160401b90910460ff169085565b600180545f918291908261037f8361100e565b9190505590505f61038f85610a7e565b905061039a81610a90565b506040805160a08101825287815260208082018490526001600160401b03871682840152600160608301524260808301525f8581529081905291909120815181906103e59082611071565b506020820151600182015560408083015160028301805460608601511515600160401b0268ffffffffffffffffff199091166001600160401b03909316929092179190911790556080909201516003909101555182907fa298a7d6af5ba26fcde1da1533981c37fdb996ecc58211bac468dc21f4de6f789061046a9089908890611130565b60405180910390a250949350505050565b5f806001546001600160401b0381111561049757610497610dfc565b6040519080825280602002602001820160405280156104c0578160200160208202803683370190505b5090505f805b600154811015610553575f81815260208190526040902060020154600160401b900460ff16801561051a57506001600160a01b0385165f90815260036020908152604080832084845290915290205460ff16155b1561054b57808383815181106105325761053261115a565b6020908102919091010152816105478161100e565b9250505b6001016104c6565b50805f0361056457505f9392505050565b5f8142448760405160200161059e93929190928352602083019190915260601b6bffffffffffffffffffffffff1916604082015260540190565b604051602081830303815290604052805190602001205f1c6105c09190611182565b90508281815181106105d4576105d461115a565b60200260200101519350505050919050565b5f600154831061060957604051633fa9e8b960e11b815260040160405180910390fd5b5f8381526020819052604090206002810154600160401b900460ff1661064a5760405163318ddc5b60e21b8152600481018590526024015b60405180910390fd5b335f90815260036020908152604080832087845290915290205460ff161561068857604051632905f90960e21b815260048101859052602401610641565b61069133610a9b565b335f9081526002602052604090206001810154600360ff90911610610714575f6106be6201518042611195565b90505f6106cc8260016111a8565b6106d990620151806111bb565b90505f6106e642836111d2565b6001850154604051632e8dd65d60e11b815260ff909116600482015260248101829052909150604401610641565b60018101805460ff16905f610728836111e5565b91906101000a81548160ff021916908360ff160217905550505f61074b85610a7e565b905061075681610a90565b505f610766828560010154610b20565b6040518115158082529650909150879033907fd4f86dae1cde85d0378f4f83cb85b55a7b9106609bb788295ef6928e9aa9aff09060200160405180910390a3841561086957600283018054905f6107bc8361100e565b909155505060028401546003840180546001600160401b03928316925f916107e691859116611203565b82546101009290920a6001600160401b03818102199093169183160217909155335f8181526003602090815260408083208d8452825291829020805460ff19166001179055600289015491519190931681528a935090917f6c9c61b14224ccaf917717a764a2298feb33fd104cf4b1f42ea1c72fadfe70fb910160405180910390a35b505050505b92915050565b5f805b6001548110156108b7575f81815260208190526040902060020154600160401b900460ff16156108af57816108ab8161100e565b9250505b600101610877565b5090565b60605f805f60015485106108e257604051633fa9e8b960e11b815260040160405180910390fd5b5f858152602081815260408083206002810154338552600384528285208a8652909352922054825483926001600160401b0381169260ff600160401b909204821692911690849061093290610fc2565b80601f016020809104026020016040519081016040528092919081815260200182805461095e90610fc2565b80156109a95780601f10610980576101008083540402835291602001916109a9565b820191905f5260205f20905b81548152906001019060200180831161098c57829003601f168201915b505050505093509450945094509450509193509193565b6001600160a01b0381165f9081526002602052604081208190819081908190816109ed6201518042611195565b90505f81835f015410610a0757600183015460ff16610a09565b5f5b90505f600360ff83161015610a2857610a2382600361122a565b610a2a565b5f5b90505f610a388460016111a8565b610a4590620151806111bb565b90505f610a5242836111d2565b6002870154600390970154949d939c50959a50506001600160401b039092169750929550919350505050565b5f61086e8263ffffffff166004610b55565b5f6108b78230610c12565b6001600160a01b0381165f90815260026020526040812090610ac06201518042611195565b905080825f01541015610b1b5780825560018201805460ff191690556040518181526001600160a01b038416907fe08bf5ec0359ff00ff7306d2a54240f6b4970e8ed71e637f2117ab9b246896f99060200160405180910390a25b505050565b5f82610b3257610b2f5f610a7e565b92505b81610b4357610b405f610a7e565b91505b610b4e83835f610c9b565b9392505050565b7f9e7b61f58c47dc699ac88507c4f5bb9f121c03808c5676a8078fe583e464970154604051639cd07acb60e01b81525f917f9e7b61f58c47dc699ac88507c4f5bb9f121c03808c5676a8078fe583e4649700916001600160a01b0390911690639cd07acb90610bca9087908790600401611243565b6020604051808303815f875af1158015610be6573d5f803e3d5ffd5b505050506040513d601f19601f82011682018060405250810190610c0a9190611273565b949350505050565b5f7f9e7b61f58c47dc699ac88507c4f5bb9f121c03808c5676a8078fe583e46497008054604051635ca4b5b160e11b8152600481018690526001600160a01b03858116602483015292935091169063b9496b62906044015f604051808303815f87803b158015610c80575f80fd5b505af1158015610c92573d5f803e3d5ffd5b50505050505050565b5f808215610cae5750600160f81b610cb1565b505f5b5f7f9e7b61f58c47dc699ac88507c4f5bb9f121c03808c5676a8078fe583e4649700600181015460405163f77f3f1d60e01b815260048101899052602481018890526001600160f81b0319851660448201529192506001600160a01b03169063f77f3f1d906064016020604051808303815f875af1158015610d35573d5f803e3d5ffd5b505050506040513d601f19601f82011682018060405250810190610d599190611273565b9695505050505050565b5f60208284031215610d73575f80fd5b5035919050565b5f81518084525f5b81811015610d9e57602081850181015186830182015201610d82565b505f602082860101526020601f19601f83011685010191505092915050565b60a081525f610dcf60a0830188610d7a565b6020830196909652506001600160401b039390931660408401529015156060830152608090910152919050565b634e487b7160e01b5f52604160045260245ffd5b803563ffffffff81168114610e23575f80fd5b919050565b80356001600160401b0381168114610e23575f80fd5b5f805f60608486031215610e50575f80fd5b83356001600160401b0380821115610e66575f80fd5b818601915086601f830112610e79575f80fd5b813581811115610e8b57610e8b610dfc565b604051601f8201601f19908116603f01168101908382118183101715610eb357610eb3610dfc565b81604052828152896020848701011115610ecb575f80fd5b826020860160208301375f602084830101528097505050505050610ef160208501610e10565b9150610eff60408501610e28565b90509250925092565b80356001600160a01b0381168114610e23575f80fd5b5f60208284031215610f2e575f80fd5b610b4e82610f08565b5f8060408385031215610f48575f80fd5b82359150610f5860208401610e10565b90509250929050565b608081525f610f736080830187610d7a565b6001600160401b039590951660208301525091151560408301521515606090910152919050565b5f8060408385031215610fab575f80fd5b610fb483610f08565b946020939093013593505050565b600181811c90821680610fd657607f821691505b602082108103610ff457634e487b7160e01b5f52602260045260245ffd5b50919050565b634e487b7160e01b5f52601160045260245ffd5b5f6001820161101f5761101f610ffa565b5060010190565b601f821115610b1b57805f5260205f20601f840160051c8101602085101561104b5750805b601f840160051c820191505b8181101561106a575f8155600101611057565b5050505050565b81516001600160401b0381111561108a5761108a610dfc565b61109e816110988454610fc2565b84611026565b602080601f8311600181146110d1575f84156110ba5750858301515b5f19600386901b1c1916600185901b178555611128565b5f85815260208120601f198616915b828110156110ff578886015182559484019460019091019084016110e0565b508582101561111c57878501515f19600388901b60f8161c191681555b505060018460011b0185555b505050505050565b604081525f6111426040830185610d7a565b90506001600160401b03831660208301529392505050565b634e487b7160e01b5f52603260045260245ffd5b634e487b7160e01b5f52601260045260245ffd5b5f826111905761119061116e565b500690565b5f826111a3576111a361116e565b500490565b8082018082111561086e5761086e610ffa565b808202811582820484141761086e5761086e610ffa565b8181038181111561086e5761086e610ffa565b5f60ff821660ff81036111fa576111fa610ffa565b60010192915050565b6001600160401b0381811683821601908082111561122357611223610ffa565b5092915050565b60ff828116828216039081111561086e5761086e610ffa565b828152604081016054831061126657634e487b7160e01b5f52602160045260245ffd5b8260208301529392505050565b5f60208284031215611283575f80fd5b505191905056fea2646970667358221220cd6b108a4cc520fa54c902efa11b1dd98fb99b118a818cbebb650e292f04d7d664736f6c634300081800339e7b61f58c47dc699ac88507c4f5bb9f121c03808c5676a8078fe583e4649701486f77206d616e7920736964657320646f657320612068657861676f6e20686176653f9e7b61f58c47dc699ac88507c4f5bb9f121c03808c5676a8078fe583e4649700576861742069732074686520616e7377657220746f206c6966652c20756e6976657273652c20616e642065766572797468696e673f",
  "linkReferences": {},
  "deployedLinkReferences": {}
}