{
  "_format": "hh-sol-artifact-1",
  "contractName": "QuestionTreasureBox",
  "sourceName": "contracts/QuestionTreasureBox.sol",
  "abi": [
    {
      "inputs": [],
      "stateMutability": "nonpayable",
      "type": "constructor"
    },
    {
      "inputs": [
        {
          "internalType": "uint256",
          "name": "questionId",
          "type": "uint256"
        }
      ],
      "name": "AlreadySolved",
      "type": "error"
    },
    {
      "inputs": [
        {
          "internalType": "uint8",
          "name": "attemptsUsed",
          "type": "uint8"
        },
        {
          "internalType": "uint256",
          "name": "resetsIn",
          "type": "uint256"
        }
      ],
      "name": "DailyLimitReached",
      "type": "error"
    },
    {
      "inputs": [],
      "name": "InvalidQuestionId",
      "type": "error"
    },
    {
      "inputs": [
        {
          "internalType": "uint256",
          "name": "questionId",
          "type": "uint256"
        }
      ],
      "name": "QuestionNotActive",
      "type": "error"
    },
    {
      "anonymous": false,
      "inputs": [
        {
          "indexed": true,
          "internalType": "address",
          "name": "player",
          "type": "address"
        },
        {
          "indexed": false,
          "internalType": "uint256",
          "name": "newDay",
          "type": "uint256"
        }
      ],
      "name": "DailyLimitReset",
      "type": "event"
    },
    {
      "anonymous": false,
      "inputs": [
        {
          "indexed": true,
          "internalType": "address",
          "name": "player",
          "type": "address"
        },
        {
          "indexed": true,
          "internalType": "uint256",
          "name": "questionId",
          "type": "uint256"
        },
        {
          "indexed": false,
          "internalType": "bool",
          "name": "success",
          "type": "bool"
        }
      ],
      "name": "QuestionAttempted",
      "type": "event"
    },
    {
      "anonymous": false,
      "inputs": [
        {
          "indexed": true,
          "internalType": "uint256",
          "name": "questionId",
          "type": "uint256"
        },
        {
          "indexed": false,
          "internalType": "string",
          "name": "questionText",
          "type": "string"
        },
        {
          "indexed": false,
          "internalType": "uint64",
          "name": "reward",
          "type": "uint64"
        }
      ],
      "name": "QuestionCreated",
      "type": "event"
    },
    {
      "anonymous": false,
      "inputs": [
        {
          "indexed": true,
          "internalType": "address",
          "name": "player",
          "type": "address"
        },
        {
          "indexed": true,
          "internalType": "uint256",
          "name": "questionId",
          "type": "uint256"
        },
        {
          "indexed": false,
          "internalType": "uint64",
          "name": "reward",
          "type": "uint64"
        }
      ],
      "name": "TreasureUnlocked",
      "type": "event"
    },
    {
      "inputs": [],
      "name": "BASE_REWARD",
      "outputs": [
        {
          "internalType": "uint64",
          "name": "",
          "type": "uint64"
        }
      ],
      "stateMutability": "view",
      "type": "function"
    },
    {
      "inputs": [],
      "name": "MAX_DAILY_ATTEMPTS",
      "outputs": [
        {
          "internalType": "uint8",
          "name": "",
          "type": "uint8"
        }
      ],
      "stateMutability": "view",
      "type": "function"
    },
    {
      "inputs": [
        {
          "internalType": "uint256",
          "name": "questionId",
          "type": "uint256"
        },
        {
          "internalType": "uint32",
          "name": "answer",
          "type": "uint32"
        }
      ],
      "name": "answerQuestion",
      "outputs": [],
      "stateMutability": "nonpayable",
      "type": "function"
    },
    {
      "inputs": [
        {
          "internalType": "string",
          "name": "questionText",
          "type": "string"
        },
        {
          "internalType": "uint32",
          "name": "answer",
          "type": "uint32"
        },
        {
          "internalType": "uint64",
          "name": "reward",
          "type": "uint64"
        }
      ],
      "name": "createQuestion",
      "outputs": [
        {
          "internalType": "uint256",
          "name": "",
          "type": "uint256"
        }
      ],
      "stateMutability": "nonpayable",
      "type": "function"
    },
    {
      "inputs": [],
      "name": "getActiveQuestionsCount",
      "outputs": [
        {
          "internalType": "uint256",
          "name": "count",
          "type": "uint256"
        }
      ],
      "stateMutability": "view",
      "type": "function"
    },
    {
      "inputs": [
        {
          "internalType": "address",
          "name": "player",
          "type": "address"
        }
      ],
      "name": "getPlayerProgress",
      "outputs": [
        {
          "internalType": "uint8",
          "name": "attemptsToday",
          "type": "uint8"
        },
        {
          "internalType": "uint8",
          "name": "remainingAttempts",
          "type": "uint8"
        },
        {
          "internalType": "uint256",
          "name": "totalSolved",
          "type": "uint256"
        },
        {
          "internalType": "uint64",
          "name": "totalRewards",
          "type": "uint64"
        },
        {
          "internalType": "uint256",
          "name": "timeUntilReset",
          "type": "uint256"
        }
      ],
      "stateMutability": "view",
      "type": "function"
    },
    {
      "inputs": [
        {
          "internalType": "uint256",
          "name": "questionId",
          "type": "uint256"
        }
      ],
      "name": "getQuestion",
      "outputs": [
        {
          "internalType": "string",
          "name": "questionText",
          "type": "string"
        },
        {
          "internalType": "uint64",
          "name": "reward",
          "type": "uint64"
        },
        {
          "internalType": "bool",
          "name": "isActive",
          "type": "bool"
        },
        {
          "internalType": "bool",
          "name": "playerSolved",
          "type": "bool"
        }
      ],
      "stateMutability": "view",
      "type": "function"
    },
    {
      "inputs": [
        {
          "internalType": "address",
          "name": "player",
          "type": "address"
        }
      ],
      "name": "getRandomQuestion",
      "outputs": [
        {
          "internalType": "uint256",
          "name": "",
          "type": "uint256"
        }
      ],
      "stateMutability": "view",
      "type": "function"
    },
    {
      "inputs": [
        {
          "internalType": "address",
          "name": "",
          "type": "address"
        },
        {
          "internalType": "uint256",
          "name": "",
          "type": "uint256"
        }
      ],
      "name": "hasSolved",
      "outputs": [
        {
          "internalType": "bool",
          "name": "",
          "type": "bool"
        }
      ],
      "stateMutability": "view",
      "type": "function"
    },
    {
      "inputs": [
        {
          "internalType": "address",
          "name": "",
          "type": "address"
        }
      ],
      "name": "playerProgress",
      "outputs": [
        {
          "internalType": "uint256",
          "name": "lastResetDay",
          "type": "uint256"
        },
        {
          "internalType": "uint8",
          "name": "attemptsToday",
          "type": "uint8"
        },
        {
          "internalType": "uint256",
          "name": "totalSolved",
          "type": "uint256"
        },
        {
          "internalType": "uint64",
          "name": "totalRewards",
          "type": "uint64"
        }
      ],
      "stateMutability": "view",
      "type": "function"
    },
    {
      "inputs": [],
      "name": "protocolId",
      "outputs": [
        {
          "internalType": "uint256",
          "name": "",
          "type": "uint256"
        }
      ],
      "stateMutability": "pure",
      "type": "function"
    },
    {
      "inputs": [],
      "name": "questionCount",
      "outputs": [
        {
          "internalType": "uint256",
          "name": "",
          "type": "uint256"
        }
      ],
      "stateMutability": "view",
      "type": "function"
    },
    {
      "inputs": [
        {
          "internalType": "uint256",
          "name": "",
          "type": "uint256"
        }
      ],
      "name": "questions",
      "outputs": [
        {
          "internalType": "string",
          "name": "questionText",
          "type": "string"
        },
        {
          "internalType": "euint32",
          "name": "encryptedAnswer",
          "type": "bytes32"
        },
        {
          "internalType": "uint32",
          "name": "plaintextAnswer",
          "type": "uint32"
        },
        {
          "internalType": "uint64",
          "name": "reward",
          "type": "uint64"
        },
        {
          "internalType": "bool",
          "name": "isActive",
          "type": "bool"
        },
        {
          "internalType": "uint256",
          "name": "createdAt",
          "type": "uint256"
        }
      ],
      "stateMutability": "view",
      "type": "function"
    }
  ],
  "bytecode": "0x608060405234801562000010575f80fd5b5062000169620000b1604080516080810182525f808252602082018190529181018290526060810191909152506040805160808101825273687820221192c5b662b25367f70076a37bc79b6c815273848b0066793bcc60346da1f49049357399b8d595602082015273a02cda4ca3a71d7c46997716f4283aa851c2881291810191909152731364cbbf2cdf5032c47d8226a6f6fbd2afcdacac606082015290565b80515f8051602062001bb583398151915280546001600160a01b03199081166001600160a01b039384161790915560208301515f8051602062001b728339815191528054831691841691909117905560408301517f9e7b61f58c47dc699ac88507c4f5bb9f121c03808c5676a8078fe583e46497028054831691841691909117905560608301517f9e7b61f58c47dc699ac88507c4f5bb9f121c03808c5676a8078fe583e46497038054909216921691909117905550565b6200017362000179565b62000839565b60408051808201909152600e81526d576861742069732035202b20373f60901b6020820152620001ad90600c606462000342565b60408051808201909152600f81526e57686174206973203135202d20383f60881b6020820152620001e2906007606462000342565b60408051808201909152600e81526d576861742069732036202a20343f60901b602082015262000216906018606462000342565b60408051808201909152601881527f486f77206d616e79206461797320696e2061207765656b3f0000000000000000602082015262000259906007606462000342565b60408051808201909152601a81527f486f77206d616e79206d6f6e74687320696e206120796561723f00000000000060208201526200029c90600c606462000342565b620002c460405180606001604052806023815260200162001b92602391396006606462000342565b60408051808201909152601a81527f576861742069732031302073717561726564202831305e32293f0000000000006020820152620003129060646200030c816002620005de565b62000342565b6200034060405180606001604052806035815260200162001bd560359139602a6200030c60646003620005de565b565b600180545f918262000354836200060c565b9091555090505f620003668462000488565b90506200037381620004a2565b506040805160c081018252868152602080820184905263ffffffff8716828401526001600160401b0386166060830152600160808301524260a08301525f858152908190529190912081518190620003cc9082620006c5565b50602082015160018201556040808301516002830180546060860151608087015115156c010000000000000000000000000260ff60601b196001600160401b03909216640100000000026001600160601b031990931663ffffffff90951694909417919091171691909117905560a0909201516003909101555182907fa298a7d6af5ba26fcde1da1533981c37fdb996ecc58211bac468dc21f4de6f789062000479908890879062000791565b60405180910390a25050505050565b5f6200049c63ffffffff83166004620004b3565b92915050565b5f620004af823062000551565b5090565b5f8051602062001b7283398151915254604051639cd07acb60e01b81525f915f8051602062001bb5833981519152916001600160a01b0390911690639cd07acb90620005069087908790600401620007f0565b6020604051808303815f875af115801562000523573d5f803e3d5ffd5b505050506040513d601f19601f8201168201806040525081019062000549919062000821565b949350505050565b5f5f8051602062001bb58339815191528054604051635ca4b5b160e11b8152600481018690526001600160a01b03858116602483015292935091169063b9496b62906044015f604051808303815f87803b158015620005ae575f80fd5b505af1158015620005c1573d5f803e3d5ffd5b50505050505050565b634e487b7160e01b5f52601160045260245ffd5b6001600160401b03818116838216028082169190828114620006045762000604620005ca565b505092915050565b5f60018201620006205762000620620005ca565b5060010190565b634e487b7160e01b5f52604160045260245ffd5b600181811c908216806200065057607f821691505b6020821081036200066f57634e487b7160e01b5f52602260045260245ffd5b50919050565b601f821115620006c057805f5260205f20601f840160051c810160208510156200069c5750805b601f840160051c820191505b81811015620006bd575f8155600101620006a8565b50505b505050565b81516001600160401b03811115620006e157620006e162000627565b620006f981620006f284546200063b565b8462000675565b602080601f8311600181146200072f575f8415620007175750858301515b5f19600386901b1c1916600185901b17855562000789565b5f85815260208120601f198616915b828110156200075f578886015182559484019460019091019084016200073e565b50858210156200077d57878501515f19600388901b60f8161c191681555b505060018460011b0185555b505050505050565b604081525f83518060408401525f5b81811015620007bf5760208187018101516060868401015201620007a0565b505f60608285018101919091526001600160401b03949094166020840152601f01601f191690910190910192915050565b82815260408101605483106200081457634e487b7160e01b5f52602160045260245ffd5b8260208301529392505050565b5f6020828403121562000832575f80fd5b5051919050565b61132b80620008475f395ff3fe608060405234801561000f575f80fd5b50600436106100cb575f3560e01c8063a146864011610088578063db88176f11610063578063db88176f14610195578063ead109c4146101b8578063ec7eba05146101f5578063f635c69b14610262575f80fd5b8063a146864014610170578063c5bb344914610185578063da1f12ab1461018d575f80fd5b80631468aa2c146100cf57806322009af6146100eb57806331b1b9781461010b5780634e6e0f8b14610130578063529c9635146101435780639975599814610156575b5f80fd5b6100d860015481565b6040519081526020015b60405180910390f35b6100f3606481565b6040516001600160401b0390911681526020016100e2565b61011e610119366004610dc1565b6102ab565b6040516100e296959493929190610e1b565b6100d861013e366004610ea9565b61037d565b6100d8610151366004610f89565b6104ba565b61015e600381565b60405160ff90911681526020016100e2565b61018361017e366004610fa2565b610625565b005b6100d86108ce565b6127116100d8565b6101a86101a3366004610dc1565b610915565b6040516100e29493929190610fcc565b6101e56101c6366004611005565b600360209081525f928352604080842090915290825290205460ff1681565b60405190151581526020016100e2565b610237610203366004610f89565b600260208190525f91825260409091208054600182015492820154600390920154909260ff1691906001600160401b031684565b6040805194855260ff9093166020850152918301526001600160401b031660608201526080016100e2565b610275610270366004610f89565b610a21565b6040805160ff9687168152959094166020860152928401919091526001600160401b03166060830152608082015260a0016100e2565b5f602081905290815260409020805481906102c59061102d565b80601f01602080910402602001604051908101604052809291908181526020018280546102f19061102d565b801561033c5780601f106103135761010080835404028352916020019161033c565b820191905f5260205f20905b81548152906001019060200180831161031f57829003601f168201915b50505050600183015460028401546003909401549293909263ffffffff8216925064010000000082046001600160401b031691600160601b900460ff169086565b600180545f918291908261039083611079565b9190505590505f6103a085610adf565b90506103ab81610af7565b506040805160c081018252878152602080820184905263ffffffff8816828401526001600160401b0387166060830152600160808301524260a08301525f85815290819052919091208151819061040290826110dc565b5060208201516001820155604080830151600283018054606086015160808701511515600160601b0260ff60601b196001600160401b03909216640100000000026bffffffffffffffffffffffff1990931663ffffffff90951694909417919091171691909117905560a0909201516003909101555182907fa298a7d6af5ba26fcde1da1533981c37fdb996ecc58211bac468dc21f4de6f78906104a9908990889061119b565b60405180910390a250949350505050565b5f806001546001600160401b038111156104d6576104d6610e67565b6040519080825280602002602001820160405280156104ff578160200160208202803683370190505b5090505f805b600154811015610592575f81815260208190526040902060020154600160601b900460ff16801561055957506001600160a01b0385165f90815260036020908152604080832084845290915290205460ff16155b1561058a5780838381518110610571576105716111c5565b60209081029190910101528161058681611079565b9250505b600101610505565b50805f036105a357505f9392505050565b5f814244876040516020016105dd93929190928352602083019190915260601b6bffffffffffffffffffffffff1916604082015260540190565b604051602081830303815290604052805190602001205f1c6105ff91906111ed565b9050828181518110610613576106136111c5565b60200260200101519350505050919050565b600154821061064757604051633fa9e8b960e11b815260040160405180910390fd5b5f8281526020819052604090206002810154600160601b900460ff166106885760405163318ddc5b60e21b8152600481018490526024015b60405180910390fd5b335f90815260036020908152604080832086845290915290205460ff16156106c657604051632905f90960e21b81526004810184905260240161067f565b6106cf33610b02565b335f9081526002602052604090206001810154600360ff90911610610752575f6106fc6201518042611200565b90505f61070a826001611213565b6107179062015180611226565b90505f610724428361123d565b6001850154604051632e8dd65d60e11b815260ff90911660048201526024810182905290915060440161067f565b60018101805460ff16905f61076683611250565b91906101000a81548160ff021916908360ff160217905550505f61078984610adf565b905061079481610af7565b505f6107a4828560010154610b87565b600285015460405163ffffffff888116921691909114808252919250879033907fd4f86dae1cde85d0378f4f83cb85b55a7b9106609bb788295ef6928e9aa9aff09060200160405180910390a380156108c557600284018054905f61080883611079565b909155505060028501546003850180546001600160401b036401000000009093048316925f9161083a9185911661126e565b82546101009290920a6001600160401b03818102199093169183160217909155335f8181526003602090815260408083208d8452825291829020805460ff1916600117905560028a0154915164010000000090920490931681528a935090917f6c9c61b14224ccaf917717a764a2298feb33fd104cf4b1f42ea1c72fadfe70fb910160405180910390a35b50505050505050565b5f805b600154811015610911575f81815260208190526040902060020154600160601b900460ff1615610909578161090581611079565b9250505b6001016108d1565b5090565b60605f805f600154851061093c57604051633fa9e8b960e11b815260040160405180910390fd5b5f858152602081815260408083206002810154338552600384528285208a8652909352922054825483926001600160401b036401000000008204169260ff600160601b90920482169291169084906109939061102d565b80601f01602080910402602001604051908101604052809291908181526020018280546109bf9061102d565b8015610a0a5780601f106109e157610100808354040283529160200191610a0a565b820191905f5260205f20905b8154815290600101906020018083116109ed57829003601f168201915b505050505093509450945094509450509193509193565b6001600160a01b0381165f908152600260205260408120819081908190819081610a4e6201518042611200565b90505f81835f015410610a6857600183015460ff16610a6a565b5f5b90505f600360ff83161015610a8957610a84826003611295565b610a8b565b5f5b90505f610a99846001611213565b610aa69062015180611226565b90505f610ab3428361123d565b6002870154600390970154949d939c50959a50506001600160401b039092169750929550919350505050565b5f610af18263ffffffff166004610bbc565b92915050565b5f6109118230610c79565b6001600160a01b0381165f90815260026020526040812090610b276201518042611200565b905080825f01541015610b825780825560018201805460ff191690556040518181526001600160a01b038416907fe08bf5ec0359ff00ff7306d2a54240f6b4970e8ed71e637f2117ab9b246896f99060200160405180910390a25b505050565b5f82610b9957610b965f610adf565b92505b81610baa57610ba75f610adf565b91505b610bb583835f610cf9565b9392505050565b7f9e7b61f58c47dc699ac88507c4f5bb9f121c03808c5676a8078fe583e464970154604051639cd07acb60e01b81525f917f9e7b61f58c47dc699ac88507c4f5bb9f121c03808c5676a8078fe583e4649700916001600160a01b0390911690639cd07acb90610c3190879087906004016112ae565b6020604051808303815f875af1158015610c4d573d5f803e3d5ffd5b505050506040513d601f19601f82011682018060405250810190610c7191906112de565b949350505050565b5f7f9e7b61f58c47dc699ac88507c4f5bb9f121c03808c5676a8078fe583e46497008054604051635ca4b5b160e11b8152600481018690526001600160a01b03858116602483015292935091169063b9496b62906044015f604051808303815f87803b158015610ce7575f80fd5b505af11580156108c5573d5f803e3d5ffd5b5f808215610d0c5750600160f81b610d0f565b505f5b5f7f9e7b61f58c47dc699ac88507c4f5bb9f121c03808c5676a8078fe583e4649700600181015460405163f77f3f1d60e01b815260048101899052602481018890526001600160f81b0319851660448201529192506001600160a01b03169063f77f3f1d906064016020604051808303815f875af1158015610d93573d5f803e3d5ffd5b505050506040513d601f19601f82011682018060405250810190610db791906112de565b9695505050505050565b5f60208284031215610dd1575f80fd5b5035919050565b5f81518084525f5b81811015610dfc57602081850181015186830182015201610de0565b505f602082860101526020601f19601f83011685010191505092915050565b60c081525f610e2d60c0830189610dd8565b60208301979097525063ffffffff9490941660408501526001600160401b039290921660608401521515608083015260a090910152919050565b634e487b7160e01b5f52604160045260245ffd5b803563ffffffff81168114610e8e575f80fd5b919050565b80356001600160401b0381168114610e8e575f80fd5b5f805f60608486031215610ebb575f80fd5b83356001600160401b0380821115610ed1575f80fd5b818601915086601f830112610ee4575f80fd5b813581811115610ef657610ef6610e67565b604051601f8201601f19908116603f01168101908382118183101715610f1e57610f1e610e67565b81604052828152896020848701011115610f36575f80fd5b826020860160208301375f602084830101528097505050505050610f5c60208501610e7b565b9150610f6a60408501610e93565b90509250925092565b80356001600160a01b0381168114610e8e575f80fd5b5f60208284031215610f99575f80fd5b610bb582610f73565b5f8060408385031215610fb3575f80fd5b82359150610fc360208401610e7b565b90509250929050565b608081525f610fde6080830187610dd8565b6001600160401b039590951660208301525091151560408301521515606090910152919050565b5f8060408385031215611016575f80fd5b61101f83610f73565b946020939093013593505050565b600181811c9082168061104157607f821691505b60208210810361105f57634e487b7160e01b5f52602260045260245ffd5b50919050565b634e487b7160e01b5f52601160045260245ffd5b5f6001820161108a5761108a611065565b5060010190565b601f821115610b8257805f5260205f20601f840160051c810160208510156110b65750805b601f840160051c820191505b818110156110d5575f81556001016110c2565b5050505050565b81516001600160401b038111156110f5576110f5610e67565b61110981611103845461102d565b84611091565b602080601f83116001811461113c575f84156111255750858301515b5f19600386901b1c1916600185901b178555611193565b5f85815260208120601f198616915b8281101561116a5788860151825594840194600190910190840161114b565b508582101561118757878501515f19600388901b60f8161c191681555b505060018460011b0185555b505050505050565b604081525f6111ad6040830185610dd8565b90506001600160401b03831660208301529392505050565b634e487b7160e01b5f52603260045260245ffd5b634e487b7160e01b5f52601260045260245ffd5b5f826111fb576111fb6111d9565b500690565b5f8261120e5761120e6111d9565b500490565b80820180821115610af157610af1611065565b8082028115828204841417610af157610af1611065565b81810381811115610af157610af1611065565b5f60ff821660ff810361126557611265611065565b60010192915050565b6001600160401b0381811683821601908082111561128e5761128e611065565b5092915050565b60ff8281168282160390811115610af157610af1611065565b82815260408101605483106112d157634e487b7160e01b5f52602160045260245ffd5b8260208301529392505050565b5f602082840312156112ee575f80fd5b505191905056fea2646970667358221220c59024525e4bc868484eb840c7781337a6fbb8cf27e0db90ddec83e6941f146164736f6c634300081800339e7b61f58c47dc699ac88507c4f5bb9f121c03808c5676a8078fe583e4649701486f77206d616e7920736964657320646f657320612068657861676f6e20686176653f9e7b61f58c47dc699ac88507c4f5bb9f121c03808c5676a8078fe583e4649700576861742069732074686520616e7377657220746f206c6966652c20756e6976657273652c20616e642065766572797468696e673f",
  "linkReferences": {},
  "deployedLinkReferences": {}
}