{
  "_format": "hh-sol-artifact-1",
  "contractName": "QuestionTreasureBoxTest",
  "sourceName": "contracts/QuestionTreasureBoxTest.sol",
  "abi": [
    {
      "inputs": [],
      "stateMutability": "nonpayable",
      "type": "constructor"
    },
    {
      "inputs": [
        {
          "internalType": "uint256",
          "name": "questionId",
          "type": "uint256"
        }
      ],
      "name": "AlreadySolved",
      "type": "error"
    },
    {
      "inputs": [
        {
          "internalType": "uint8",
          "name": "attemptsUsed",
          "type": "uint8"
        },
        {
          "internalType": "uint256",
          "name": "resetsIn",
          "type": "uint256"
        }
      ],
      "name": "DailyLimitReached",
      "type": "error"
    },
    {
      "inputs": [],
      "name": "InvalidQuestionId",
      "type": "error"
    },
    {
      "inputs": [
        {
          "internalType": "uint256",
          "name": "questionId",
          "type": "uint256"
        }
      ],
      "name": "QuestionNotActive",
      "type": "error"
    },
    {
      "anonymous": false,
      "inputs": [
        {
          "indexed": true,
          "internalType": "address",
          "name": "player",
          "type": "address"
        },
        {
          "indexed": false,
          "internalType": "uint256",
          "name": "newDay",
          "type": "uint256"
        }
      ],
      "name": "DailyLimitReset",
      "type": "event"
    },
    {
      "anonymous": false,
      "inputs": [
        {
          "indexed": true,
          "internalType": "address",
          "name": "player",
          "type": "address"
        },
        {
          "indexed": true,
          "internalType": "uint256",
          "name": "questionId",
          "type": "uint256"
        },
        {
          "indexed": false,
          "internalType": "bool",
          "name": "success",
          "type": "bool"
        }
      ],
      "name": "QuestionAttempted",
      "type": "event"
    },
    {
      "anonymous": false,
      "inputs": [
        {
          "indexed": true,
          "internalType": "uint256",
          "name": "questionId",
          "type": "uint256"
        },
        {
          "indexed": false,
          "internalType": "string",
          "name": "questionText",
          "type": "string"
        },
        {
          "indexed": false,
          "internalType": "uint64",
          "name": "reward",
          "type": "uint64"
        }
      ],
      "name": "QuestionCreated",
      "type": "event"
    },
    {
      "anonymous": false,
      "inputs": [
        {
          "indexed": true,
          "internalType": "address",
          "name": "player",
          "type": "address"
        },
        {
          "indexed": true,
          "internalType": "uint256",
          "name": "questionId",
          "type": "uint256"
        },
        {
          "indexed": false,
          "internalType": "uint64",
          "name": "reward",
          "type": "uint64"
        }
      ],
      "name": "TreasureUnlocked",
      "type": "event"
    },
    {
      "inputs": [],
      "name": "BASE_REWARD",
      "outputs": [
        {
          "internalType": "uint64",
          "name": "",
          "type": "uint64"
        }
      ],
      "stateMutability": "view",
      "type": "function"
    },
    {
      "inputs": [],
      "name": "MAX_DAILY_ATTEMPTS",
      "outputs": [
        {
          "internalType": "uint8",
          "name": "",
          "type": "uint8"
        }
      ],
      "stateMutability": "view",
      "type": "function"
    },
    {
      "inputs": [
        {
          "internalType": "uint256",
          "name": "questionId",
          "type": "uint256"
        },
        {
          "internalType": "uint32",
          "name": "answer",
          "type": "uint32"
        }
      ],
      "name": "answerQuestion",
      "outputs": [],
      "stateMutability": "nonpayable",
      "type": "function"
    },
    {
      "inputs": [
        {
          "internalType": "string",
          "name": "questionText",
          "type": "string"
        },
        {
          "internalType": "uint32",
          "name": "answer",
          "type": "uint32"
        },
        {
          "internalType": "uint64",
          "name": "reward",
          "type": "uint64"
        }
      ],
      "name": "createQuestion",
      "outputs": [
        {
          "internalType": "uint256",
          "name": "",
          "type": "uint256"
        }
      ],
      "stateMutability": "nonpayable",
      "type": "function"
    },
    {
      "inputs": [],
      "name": "getActiveQuestionsCount",
      "outputs": [
        {
          "internalType": "uint256",
          "name": "count",
          "type": "uint256"
        }
      ],
      "stateMutability": "view",
      "type": "function"
    },
    {
      "inputs": [
        {
          "internalType": "address",
          "name": "player",
          "type": "address"
        }
      ],
      "name": "getPlayerProgress",
      "outputs": [
        {
          "internalType": "uint8",
          "name": "attemptsToday",
          "type": "uint8"
        },
        {
          "internalType": "uint8",
          "name": "remainingAttempts",
          "type": "uint8"
        },
        {
          "internalType": "uint256",
          "name": "totalSolved",
          "type": "uint256"
        },
        {
          "internalType": "uint64",
          "name": "totalRewards",
          "type": "uint64"
        },
        {
          "internalType": "uint256",
          "name": "timeUntilReset",
          "type": "uint256"
        }
      ],
      "stateMutability": "view",
      "type": "function"
    },
    {
      "inputs": [
        {
          "internalType": "uint256",
          "name": "questionId",
          "type": "uint256"
        }
      ],
      "name": "getQuestion",
      "outputs": [
        {
          "internalType": "string",
          "name": "questionText",
          "type": "string"
        },
        {
          "internalType": "uint64",
          "name": "reward",
          "type": "uint64"
        },
        {
          "internalType": "bool",
          "name": "isActive",
          "type": "bool"
        },
        {
          "internalType": "bool",
          "name": "playerSolved",
          "type": "bool"
        }
      ],
      "stateMutability": "view",
      "type": "function"
    },
    {
      "inputs": [
        {
          "internalType": "address",
          "name": "player",
          "type": "address"
        }
      ],
      "name": "getRandomQuestion",
      "outputs": [
        {
          "internalType": "uint256",
          "name": "",
          "type": "uint256"
        }
      ],
      "stateMutability": "view",
      "type": "function"
    },
    {
      "inputs": [
        {
          "internalType": "address",
          "name": "",
          "type": "address"
        },
        {
          "internalType": "uint256",
          "name": "",
          "type": "uint256"
        }
      ],
      "name": "hasSolved",
      "outputs": [
        {
          "internalType": "bool",
          "name": "",
          "type": "bool"
        }
      ],
      "stateMutability": "view",
      "type": "function"
    },
    {
      "inputs": [
        {
          "internalType": "address",
          "name": "",
          "type": "address"
        }
      ],
      "name": "playerProgress",
      "outputs": [
        {
          "internalType": "uint256",
          "name": "lastResetDay",
          "type": "uint256"
        },
        {
          "internalType": "uint8",
          "name": "attemptsToday",
          "type": "uint8"
        },
        {
          "internalType": "uint256",
          "name": "totalSolved",
          "type": "uint256"
        },
        {
          "internalType": "uint64",
          "name": "totalRewards",
          "type": "uint64"
        }
      ],
      "stateMutability": "view",
      "type": "function"
    },
    {
      "inputs": [],
      "name": "questionCount",
      "outputs": [
        {
          "internalType": "uint256",
          "name": "",
          "type": "uint256"
        }
      ],
      "stateMutability": "view",
      "type": "function"
    },
    {
      "inputs": [
        {
          "internalType": "uint256",
          "name": "",
          "type": "uint256"
        }
      ],
      "name": "questions",
      "outputs": [
        {
          "internalType": "string",
          "name": "questionText",
          "type": "string"
        },
        {
          "internalType": "uint32",
          "name": "answer",
          "type": "uint32"
        },
        {
          "internalType": "uint64",
          "name": "reward",
          "type": "uint64"
        },
        {
          "internalType": "bool",
          "name": "isActive",
          "type": "bool"
        },
        {
          "internalType": "uint256",
          "name": "createdAt",
          "type": "uint256"
        }
      ],
      "stateMutability": "view",
      "type": "function"
    }
  ],
  "bytecode": "0x608060405234801562000010575f80fd5b506200001b62000021565b62000533565b60408051808201909152600e81526d576861742069732035202b20373f60901b60208201526200005590600c6064620001ea565b60408051808201909152600f81526e57686174206973203135202d20383f60881b60208201526200008a9060076064620001ea565b60408051808201909152600e81526d576861742069732036202a20343f60901b6020820152620000be9060186064620001ea565b60408051808201909152601881527f486f77206d616e79206461797320696e2061207765656b3f00000000000000006020820152620001019060076064620001ea565b60408051808201909152601a81527f486f77206d616e79206d6f6e74687320696e206120796561723f00000000000060208201526200014490600c6064620001ea565b6200016c6040518060600160405280602381526020016200155b6023913960066064620001ea565b60408051808201909152601a81527f576861742069732031302073717561726564202831305e32293f0000000000006020820152620001ba906064620001b481600262000321565b620001ea565b620001e86040518060600160405280603581526020016200157e60359139602a620001b46064600362000321565b565b600180545f9182620001fc836200034f565b909155506040805160a08101825286815263ffffffff86166020808301919091526001600160401b03861682840152600160608301524260808301525f848152908190529190912081519293509091819062000259908262000408565b506020820151600182018054604080860151606087015115156c010000000000000000000000000260ff60601b196001600160401b03909216640100000000026001600160601b031990941663ffffffff9096169590951792909217919091169290921790556080909201516002909101555181907fa298a7d6af5ba26fcde1da1533981c37fdb996ecc58211bac468dc21f4de6f7890620002ff9087908690620004d4565b60405180910390a250505050565b634e487b7160e01b5f52601160045260245ffd5b6001600160401b038181168382160280821691908281146200034757620003476200030d565b505092915050565b5f600182016200036357620003636200030d565b5060010190565b634e487b7160e01b5f52604160045260245ffd5b600181811c908216806200039357607f821691505b602082108103620003b257634e487b7160e01b5f52602260045260245ffd5b50919050565b601f8211156200040357805f5260205f20601f840160051c81016020851015620003df5750805b601f840160051c820191505b8181101562000400575f8155600101620003eb565b50505b505050565b81516001600160401b038111156200042457620004246200036a565b6200043c816200043584546200037e565b84620003b8565b602080601f83116001811462000472575f84156200045a5750858301515b5f19600386901b1c1916600185901b178555620004cc565b5f85815260208120601f198616915b82811015620004a25788860151825594840194600190910190840162000481565b5085821015620004c057878501515f19600388901b60f8161c191681555b505060018460011b0185555b505050505050565b604081525f83518060408401525f5b81811015620005025760208187018101516060868401015201620004e3565b505f60608285018101919091526001600160401b03949094166020840152601f01601f191690910190910192915050565b61101a80620005415f395ff3fe608060405234801561000f575f80fd5b50600436106100b1575f3560e01c8063a14686401161006e578063a146864014610155578063c5bb34491461016a578063db88176f14610172578063ead109c414610195578063ec7eba05146101d2578063f635c69b1461023f575f80fd5b80631468aa2c146100b557806322009af6146100d157806331b1b978146100f15780634e6e0f8b14610115578063529c963514610128578063997559981461013b575b5f80fd5b6100be60015481565b6040519081526020015b60405180910390f35b6100d9606481565b6040516001600160401b0390911681526020016100c8565b6101046100ff366004610af8565b610288565b6040516100c8959493929190610b52565b6100be610123366004610bd9565b610354565b6100be610136366004610cb9565b610472565b610143600381565b60405160ff90911681526020016100c8565b610168610163366004610cd9565b6105dd565b005b6100be610862565b610185610180366004610af8565b6108a9565b6040516100c89493929190610d03565b6101c26101a3366004610d3c565b600360209081525f928352604080842090915290825290205460ff1681565b60405190151581526020016100c8565b6102146101e0366004610cb9565b600260208190525f91825260409091208054600182015492820154600390920154909260ff1691906001600160401b031684565b6040805194855260ff9093166020850152918301526001600160401b031660608201526080016100c8565b61025261024d366004610cb9565b6109b5565b6040805160ff9687168152959094166020860152928401919091526001600160401b03166060830152608082015260a0016100c8565b5f602081905290815260409020805481906102a290610d64565b80601f01602080910402602001604051908101604052809291908181526020018280546102ce90610d64565b80156103195780601f106102f057610100808354040283529160200191610319565b820191905f5260205f20905b8154815290600101906020018083116102fc57829003601f168201915b505050506001830154600290930154919263ffffffff81169264010000000082046001600160401b03169250600160601b90910460ff169085565b600180545f918291908261036783610db0565b909155506040805160a08101825287815263ffffffff87166020808301919091526001600160401b03871682840152600160608301524260808301525f84815290819052919091208151929350909181906103c29082610e0c565b50602082015160018201805460408086015160608701511515600160601b0260ff60601b196001600160401b03909216640100000000026bffffffffffffffffffffffff1990941663ffffffff9096169590951792909217919091169290921790556080909201516002909101555181907fa298a7d6af5ba26fcde1da1533981c37fdb996ecc58211bac468dc21f4de6f78906104629088908790610ecb565b60405180910390a2949350505050565b5f806001546001600160401b0381111561048e5761048e610b97565b6040519080825280602002602001820160405280156104b7578160200160208202803683370190505b5090505f805b60015481101561054a575f81815260208190526040902060010154600160601b900460ff16801561051157506001600160a01b0385165f90815260036020908152604080832084845290915290205460ff16155b15610542578083838151811061052957610529610ef5565b60209081029190910101528161053e81610db0565b9250505b6001016104bd565b50805f0361055b57505f9392505050565b5f8142448760405160200161059593929190928352602083019190915260601b6bffffffffffffffffffffffff1916604082015260540190565b604051602081830303815290604052805190602001205f1c6105b79190610f1d565b90508281815181106105cb576105cb610ef5565b60200260200101519350505050919050565b60015482106105ff57604051633fa9e8b960e11b815260040160405180910390fd5b5f8281526020819052604090206001810154600160601b900460ff166106405760405163318ddc5b60e21b8152600481018490526024015b60405180910390fd5b335f90815260036020908152604080832086845290915290205460ff161561067e57604051632905f90960e21b815260048101849052602401610637565b61068733610a73565b335f9081526002602052604090206001810154600360ff9091161061070a575f6106b46201518042610f30565b90505f6106c2826001610f43565b6106cf9062015180610f5c565b90505f6106dc4283610f73565b6001850154604051632e8dd65d60e11b815260ff909116600482015260248101829052909150604401610637565b60018101805460ff16905f61071e83610f86565b825460ff9182166101009390930a928302919092021990911617905550600182015460405163ffffffff85811692169190911480825290859033907fd4f86dae1cde85d0378f4f83cb85b55a7b9106609bb788295ef6928e9aa9aff09060200160405180910390a3801561085b57600282018054905f61079d83610db0565b909155505060018301546003830180546001600160401b036401000000009093048316925f916107cf91859116610fa4565b82546101009290920a6001600160401b03818102199093169183160217909155335f8181526003602090815260408083208b8452825291829020805460ff191660019081179091558801549151640100000000909204909316815288935090917f6c9c61b14224ccaf917717a764a2298feb33fd104cf4b1f42ea1c72fadfe70fb910160405180910390a35b5050505050565b5f805b6001548110156108a5575f81815260208190526040902060010154600160601b900460ff161561089d578161089981610db0565b9250505b600101610865565b5090565b60605f805f60015485106108d057604051633fa9e8b960e11b815260040160405180910390fd5b5f858152602081815260408083206001810154338552600384528285208a8652909352922054825483926001600160401b036401000000008204169260ff600160601b909204821692911690849061092790610d64565b80601f016020809104026020016040519081016040528092919081815260200182805461095390610d64565b801561099e5780601f106109755761010080835404028352916020019161099e565b820191905f5260205f20905b81548152906001019060200180831161098157829003601f168201915b505050505093509450945094509450509193509193565b6001600160a01b0381165f9081526002602052604081208190819081908190816109e26201518042610f30565b90505f81835f0154106109fc57600183015460ff166109fe565b5f5b90505f600360ff83161015610a1d57610a18826003610fcb565b610a1f565b5f5b90505f610a2d846001610f43565b610a3a9062015180610f5c565b90505f610a474283610f73565b6002870154600390970154949d939c50959a50506001600160401b039092169750929550919350505050565b6001600160a01b0381165f90815260026020526040812090610a986201518042610f30565b905080825f01541015610af35780825560018201805460ff191690556040518181526001600160a01b038416907fe08bf5ec0359ff00ff7306d2a54240f6b4970e8ed71e637f2117ab9b246896f99060200160405180910390a25b505050565b5f60208284031215610b08575f80fd5b5035919050565b5f81518084525f5b81811015610b3357602081850181015186830182015201610b17565b505f602082860101526020601f19601f83011685010191505092915050565b60a081525f610b6460a0830188610b0f565b63ffffffff969096166020830152506001600160401b039390931660408401529015156060830152608090910152919050565b634e487b7160e01b5f52604160045260245ffd5b803563ffffffff81168114610bbe575f80fd5b919050565b80356001600160401b0381168114610bbe575f80fd5b5f805f60608486031215610beb575f80fd5b83356001600160401b0380821115610c01575f80fd5b818601915086601f830112610c14575f80fd5b813581811115610c2657610c26610b97565b604051601f8201601f19908116603f01168101908382118183101715610c4e57610c4e610b97565b81604052828152896020848701011115610c66575f80fd5b826020860160208301375f602084830101528097505050505050610c8c60208501610bab565b9150610c9a60408501610bc3565b90509250925092565b80356001600160a01b0381168114610bbe575f80fd5b5f60208284031215610cc9575f80fd5b610cd282610ca3565b9392505050565b5f8060408385031215610cea575f80fd5b82359150610cfa60208401610bab565b90509250929050565b608081525f610d156080830187610b0f565b6001600160401b039590951660208301525091151560408301521515606090910152919050565b5f8060408385031215610d4d575f80fd5b610d5683610ca3565b946020939093013593505050565b600181811c90821680610d7857607f821691505b602082108103610d9657634e487b7160e01b5f52602260045260245ffd5b50919050565b634e487b7160e01b5f52601160045260245ffd5b5f60018201610dc157610dc1610d9c565b5060010190565b601f821115610af357805f5260205f20601f840160051c81016020851015610ded5750805b601f840160051c820191505b8181101561085b575f8155600101610df9565b81516001600160401b03811115610e2557610e25610b97565b610e3981610e338454610d64565b84610dc8565b602080601f831160018114610e6c575f8415610e555750858301515b5f19600386901b1c1916600185901b178555610ec3565b5f85815260208120601f198616915b82811015610e9a57888601518255948401946001909101908401610e7b565b5085821015610eb757878501515f19600388901b60f8161c191681555b505060018460011b0185555b505050505050565b604081525f610edd6040830185610b0f565b90506001600160401b03831660208301529392505050565b634e487b7160e01b5f52603260045260245ffd5b634e487b7160e01b5f52601260045260245ffd5b5f82610f2b57610f2b610f09565b500690565b5f82610f3e57610f3e610f09565b500490565b80820180821115610f5657610f56610d9c565b92915050565b8082028115828204841417610f5657610f56610d9c565b81810381811115610f5657610f56610d9c565b5f60ff821660ff8103610f9b57610f9b610d9c565b60010192915050565b6001600160401b03818116838216019080821115610fc457610fc4610d9c565b5092915050565b60ff8281168282160390811115610f5657610f56610d9c56fea264697066735822122083b94c0c179522777540c5064fcc98b1b41295cdbda3033c96d6710eeb553e0164736f6c63430008180033486f77206d616e7920736964657320646f657320612068657861676f6e20686176653f576861742069732074686520616e7377657220746f206c6966652c20756e6976657273652c20616e642065766572797468696e673f",
  "linkReferences": {},
  "deployedLinkReferences": {}
}